{
  "_format": "hh-sol-artifact-1",
  "contractName": "BridgeTokenFactory",
  "sourceName": "contracts/BridgeTokenFactory.sol",
  "abi": [
    {
      "inputs": [
        {
          "internalType": "bytes",
          "name": "nearTokenFactory",
          "type": "bytes"
        },
        {
          "internalType": "contract INearProver",
          "name": "prover",
          "type": "address"
        }
      ],
      "stateMutability": "nonpayable",
      "type": "constructor"
    },
    {
      "anonymous": false,
      "inputs": [
        {
          "indexed": false,
          "internalType": "uint256",
          "name": "amount",
          "type": "uint256"
        },
        {
          "indexed": false,
          "internalType": "address",
          "name": "recipient",
          "type": "address"
        }
      ],
      "name": "Deposit",
      "type": "event"
    },
    {
      "anonymous": false,
      "inputs": [
        {
          "indexed": false,
          "internalType": "address",
          "name": "token",
          "type": "address"
        },
        {
          "indexed": false,
          "internalType": "string",
          "name": "name",
          "type": "string"
        },
        {
          "indexed": false,
          "internalType": "string",
          "name": "symbol",
          "type": "string"
        },
        {
          "indexed": false,
          "internalType": "uint8",
          "name": "decimals",
          "type": "uint8"
        }
      ],
      "name": "SetMetadata",
      "type": "event"
    },
    {
      "anonymous": false,
      "inputs": [
        {
          "indexed": false,
          "internalType": "string",
          "name": "token",
          "type": "string"
        },
        {
          "indexed": true,
          "internalType": "address",
          "name": "sender",
          "type": "address"
        },
        {
          "indexed": false,
          "internalType": "uint256",
          "name": "amount",
          "type": "uint256"
        },
        {
          "indexed": false,
          "internalType": "string",
          "name": "recipient",
          "type": "string"
        }
      ],
      "name": "Withdraw",
      "type": "event"
    },
    {
      "inputs": [
        {
          "internalType": "bytes",
          "name": "proofData",
          "type": "bytes"
        },
        {
          "internalType": "uint64",
          "name": "proofBlockHeight",
          "type": "uint64"
        }
      ],
      "name": "deposit",
      "outputs": [],
      "stateMutability": "nonpayable",
      "type": "function"
    },
    {
      "inputs": [
        {
          "internalType": "address",
          "name": "token",
          "type": "address"
        }
      ],
      "name": "ethToNearToken",
      "outputs": [
        {
          "internalType": "string",
          "name": "",
          "type": "string"
        }
      ],
      "stateMutability": "view",
      "type": "function"
    },
    {
      "inputs": [
        {
          "internalType": "address",
          "name": "token",
          "type": "address"
        }
      ],
      "name": "isBridgeToken",
      "outputs": [
        {
          "internalType": "bool",
          "name": "",
          "type": "bool"
        }
      ],
      "stateMutability": "view",
      "type": "function"
    },
    {
      "inputs": [
        {
          "internalType": "string",
          "name": "nearTokenId",
          "type": "string"
        }
      ],
      "name": "nearToEthToken",
      "outputs": [
        {
          "internalType": "address",
          "name": "",
          "type": "address"
        }
      ],
      "stateMutability": "view",
      "type": "function"
    },
    {
      "inputs": [],
      "name": "nearTokenFactory_",
      "outputs": [
        {
          "internalType": "bytes",
          "name": "",
          "type": "bytes"
        }
      ],
      "stateMutability": "view",
      "type": "function"
    },
    {
      "inputs": [
        {
          "internalType": "string",
          "name": "nearTokenId",
          "type": "string"
        }
      ],
      "name": "newBridgeToken",
      "outputs": [
        {
          "internalType": "contract BridgeToken",
          "name": "",
          "type": "address"
        }
      ],
      "stateMutability": "nonpayable",
      "type": "function"
    },
    {
      "inputs": [],
      "name": "prover_",
      "outputs": [
        {
          "internalType": "contract INearProver",
          "name": "",
          "type": "address"
        }
      ],
      "stateMutability": "view",
      "type": "function"
    },
    {
      "inputs": [
        {
          "internalType": "bytes",
          "name": "proofData",
          "type": "bytes"
        },
        {
          "internalType": "uint64",
          "name": "proofBlockHeight",
          "type": "uint64"
        }
      ],
      "name": "set_metadata",
      "outputs": [],
      "stateMutability": "nonpayable",
      "type": "function"
    },
    {
      "inputs": [
        {
          "internalType": "bytes32",
          "name": "",
          "type": "bytes32"
        }
      ],
      "name": "usedEvents_",
      "outputs": [
        {
          "internalType": "bool",
          "name": "",
          "type": "bool"
        }
      ],
      "stateMutability": "view",
      "type": "function"
    },
    {
      "inputs": [
        {
          "internalType": "address",
          "name": "token",
          "type": "address"
        },
        {
          "internalType": "uint256",
          "name": "amount",
          "type": "uint256"
        },
        {
          "internalType": "string",
          "name": "recipient",
          "type": "string"
        }
      ],
      "name": "withdraw",
      "outputs": [],
      "stateMutability": "nonpayable",
      "type": "function"
    }
  ],
  "bytecode": "0x60806040523480156200001157600080fd5b50604051620038193803806200381983398101604081905262000034916200014a565b81516200004990600190602085019062000071565b50600080546001600160a01b0319166001600160a01b03929092169190911790555062000278565b8280546200007f906200023b565b90600052602060002090601f016020900481019282620000a35760008555620000ee565b82601f10620000be57805160ff1916838001178555620000ee565b82800160010185558215620000ee579182015b82811115620000ee578251825591602001919060010190620000d1565b50620000fc92915062000100565b5090565b5b80821115620000fc576000815560010162000101565b634e487b7160e01b600052604160045260246000fd5b80516001600160a01b03811681146200014557600080fd5b919050565b600080604083850312156200015e57600080fd5b82516001600160401b03808211156200017657600080fd5b818501915085601f8301126200018b57600080fd5b815181811115620001a057620001a062000117565b604051601f8201601f19908116603f01168101908382118183101715620001cb57620001cb62000117565b81604052828152602093508884848701011115620001e857600080fd5b600091505b828210156200020c5784820184015181830185015290830190620001ed565b828211156200021e5760008484830101525b9550620002309150508582016200012d565b925050509250929050565b600181811c908216806200025057607f821691505b602082108114156200027257634e487b7160e01b600052602260045260246000fd5b50919050565b61359180620002886000396000f3fe60806040523480156200001157600080fd5b5060043610620000ab5760003560e01c8063bb00b698116200006e578063bb00b6981462000156578063bccc9fcf146200016a578063e088747b14620001a1578063e9008d5b14620001b8578063fc63e12914620001e757600080fd5b806311d1575014620000b05780632414da0c14620000df5780635c882f3614620000f85780637116dbbf1462000128578063a040f353146200013f575b600080fd5b620000c7620000c136600462001d41565b620001f1565b604051620000d6919062001dc0565b60405180910390f35b620000f6620000f036600462001e67565b620002e8565b005b6200010f6200010936600462001edd565b6200046a565b6040516001600160a01b039091168152602001620000d6565b620000f66200013936600462001e67565b620005df565b6200010f6200015036600462001edd565b6200076d565b6000546200010f906001600160a01b031681565b620001906200017b36600462001f53565b60026020526000908152604090205460ff1681565b6040519015158152602001620000d6565b620000f6620001b236600462001f6d565b62000807565b62000190620001c936600462001d41565b6001600160a01b031660009081526005602052604090205460ff1690565b620000c762000901565b6001600160a01b03811660009081526005602052604090205460609060ff16620002385760405162461bcd60e51b81526004016200022f9062001fde565b60405180910390fd5b6001600160a01b038216600090815260036020526040902080546200025d906200200c565b80601f01602080910402602001604051908101604052809291908181526020018280546200028b906200200c565b8015620002dc5780601f10620002b057610100808354040283529160200191620002dc565b820191906000526020600020905b815481529060010190602001808311620002be57829003601f168201915b50505050509050919050565b6000620002f6838362000997565b9050600062000309826060015162000d29565b9050600560006004836000015160405162000325919062002043565b9081526040805160209281900383019020546001600160a01b0316835290820192909252016000205460ff16620003705760405162461bcd60e51b81526004016200022f9062001fde565b8051604051600491620003839162002043565b90815260408051602092819003830181205491840151928401516340c10f1960e01b82526001600160a01b0393841660048301526001600160801b031660248201529116906340c10f1990604401600060405180830381600087803b158015620003ec57600080fd5b505af115801562000401573d6000803e3d6000fd5b505050507f4bcc17093cdf51079c755de089be5a85e70fa374ec656c194480fbdcda224a53816020015182604001516040516200045c9291906001600160801b039290921682526001600160a01b0316602082015260400190565b60405180910390a150505050565b600060056000600485856040516200048492919062002061565b9081526040805160209281900383019020546001600160a01b0316835290820192909252016000205460ff1615620004ff5760405162461bcd60e51b815260206004820152601760248201527f4552525f4252494447455f544f4b454e5f45584953545300000000000000000060448201526064016200022f565b600080604051620005109062001ad7565b6060808252600090820181905260806020830181905282015260ff909116604082015260a001604051809103906000f08015801562000553573d6000803e3d6000fd5b506001600160a01b0381166000908152600560209081526040808320805460ff19166001179055600390915290209091506200059190858562001ae5565b508060048585604051620005a792919062002061565b90815260405190819003602001902080546001600160a01b03929092166001600160a01b031990921691909117905590505b92915050565b6000620005ed838362000997565b9050600062000600826060015162000d96565b905060056000600483600001516040516200061c919062002043565b9081526040805160209281900383019020546001600160a01b0316835290820192909252016000205460ff16620006675760405162461bcd60e51b81526004016200022f9062001fde565b80516040516004916200067a9162002043565b90815260408051918290036020908101832054908401519184015160608501516080860151637aa3b8bf60e11b86526001600160a01b039093169463f547717e94620006cd949093929160040162002071565b600060405180830381600087803b158015620006e857600080fd5b505af1158015620006fd573d6000803e3d6000fd5b505050507f51fd1655ea77bd0129444f35a068f69b40c53d2bdf0e6e606a899aa34cdc41bc6004826000015160405162000738919062002043565b908152604080516020928190038301812054928501519185015160608601516200045c946001600160a01b03169392620020be565b600060056000600485856040516200078792919062002061565b9081526040805160209281900383019020546001600160a01b0316835290820192909252016000205460ff16620007d25760405162461bcd60e51b81526004016200022f9062001fde565b60048383604051620007e692919062002061565b908152604051908190036020019020546001600160a01b0316905092915050565b6001600160a01b03831660009081526005602052604090205460ff16620008425760405162461bcd60e51b81526004016200022f9062001fde565b604051632770a7eb60e21b8152336004820152602481018390526001600160a01b03841690639dc29fac90604401600060405180830381600087803b1580156200088b57600080fd5b505af1158015620008a0573d6000803e3d6000fd5b505050506001600160a01b03831660009081526003602052604090819020905133917fbe0071d3ab0eb6dc7f33a38ba50120d775cd62fa123f3b59c193caf48e44bb4c91620008f49190869086906200210d565b60405180910390a2505050565b6001805462000910906200200c565b80601f01602080910402602001604051908101604052809291908181526020018280546200093e906200200c565b80156200098f5780601f1062000963576101008083540402835291602001916200098f565b820191906000526020600020905b8154815290600101906020018083116200097157829003601f168201915b505050505081565b6040805160a081018252600080825260208201819052818301819052606080830152608082018190525491516392d68dfd60e01b815290916001600160a01b0316906392d68dfd90620009f19086908690600401620021b7565b602060405180830381865afa15801562000a0f573d6000803e3d6000fd5b505050506040513d601f19601f8201168201806040525081019062000a359190620021e4565b62000a7b5760405162461bcd60e51b8152602060048201526015602482015274141c9bdbd9881cda1bdd5b19081899481d985b1a59605a1b60448201526064016200022f565b600062000a888462000e43565b9050600062000a978262000e75565b905062000aa48262000ec1565b6000816000015160400151602001516020015160008151811062000acc5762000acc62002208565b6020908102919091018101516000818152600290925260409091205490915060ff161562000b3d5760405162461bcd60e51b815260206004820152601f60248201527f546865206275726e206576656e742063616e6e6f74206265207265757365640060448201526064016200022f565b60008181526002602052604090819020805460ff19166001908117909155905162000b6991906200221e565b60405180910390208260000151604001516020015160800151805190602001201462000c195760405162461bcd60e51b815260206004820152605260248201527f43616e206f6e6c7920756e6c6f636b20746f6b656e732066726f6d207468652060448201527f6c696e6b6564206d696e7461626c652066756e6769626c6520746f6b656e206f60648201527137102732b0b910313637b1b5b1b430b4b71760711b608482015260a4016200022f565b8160000151604001516020015160a00151935083604001511562000ca65760405162461bcd60e51b815260206004820152603d60248201527f43616e6e6f7420757365206661696c656420657865637574696f6e206f75746360448201527f6f6d6520666f7220756e6c6f636b696e672074686520746f6b656e732e00000060648201526084016200022f565b83602001511562000d205760405162461bcd60e51b815260206004820152603e60248201527f43616e6e6f742075736520756e6b6e6f776e20657865637574696f6e206f757460448201527f636f6d6520666f7220756e6c6f636b696e672074686520746f6b656e732e000060648201526084016200022f565b50505092915050565b604080516060808201835281526000602082018190529181018290529062000d518362000e43565b905062000d5e8162000f1a565b825262000d6b8162000f60565b6001600160801b03166020830152600062000d868262001010565b60601c6040840152509092915050565b62000dd56040518060a00160405280606081526020016060815260200160608152602001600060ff16815260200160006001600160401b031681525090565b600062000de28362000e43565b905062000def8162000f1a565b825262000dfc8162000f1a565b602083015262000e0c8162000f1a565b604083015262000e1c816200101f565b60ff16606083015262000e2f8162001037565b6001600160401b0316608083015250919050565b60408051808201909152600080825260208201526020820181528162000e67815190565b825101602083015250919050565b62000e7f62001b74565b62000e8a82620010af565b815262000e9782620010eb565b602082015262000ea782620011c6565b604082015262000eb782620010eb565b6060820152919050565b602081015181511462000f175760405162461bcd60e51b815260206004820152601960248201527f5061727365206572726f723a20454f492065787065637465640000000000000060448201526064016200022f565b50565b6060600062000f2983620012f4565b63ffffffff16905062000f4681846200132d90919063ffffffff16565b825162000f5490826200138a565b83519091019092525090565b6000620005d962000f73836010620013d8565b60801c6dff000000ff000000ff000000ff00600882811b9182166cff000000ff000000ff000000ff9390911c92831617601090811b6fff000000ff000000ff000000ff0000009092166eff000000ff000000ff000000ff00009093169290921790911c17602081811b6fffffffff00000000ffffffff00000000166bffffffff00000000ffffffff9290911c9190911617604081811b91901c1790565b6000620005d9826014620013d8565b60006200102e826001620013d8565b60f81c92915050565b6000620005d96200104a836008620013d8565b66ff000000ff000060c882901c90811667ff000000ff00000060b89390931c92831617601090811c64ff000000ff9290921665ff000000ff00939093169290921790911b17602081811c63ffffffff1691901b6bffffffffffffffff00000000161790565b620010b962001bd5565b620010c482620010eb565b8152620010d182620013f3565b6020820152620010e18262001402565b6040820152919050565b6040805160208101909152606081526200110582620012f4565b63ffffffff166001600160401b0381111562001125576200112562001dd5565b6040519080825280602002602001820160405280156200116c57816020015b6040805180820190915260008082526020820152815260200190600190039081620011445790505b50815260005b815151811015620011c0576200118883620014ec565b82518051839081106200119f576200119f62002208565b60200260200101819052508080620011b790620022ae565b91505062001172565b50919050565b620011d062001bfd565b620011db82620013f3565b8152620011e882620013f3565b6020820152620011f8826200159e565b60408083018290526101009091015160208084015183519182019290925291820152600290819060600160408051601f19818403018152908290526200123e9162002043565b602060405180830381855afa1580156200125c573d6000803e3d6000fd5b5050506040513d601f19601f82011682018060405250810190620012819190620022cc565b825160408051602081019390935282015260600160408051601f1981840301815290829052620012b19162002043565b602060405180830381855afa158015620012cf573d6000803e3d6000fd5b5050506040513d601f19601f8201168201806040525081019062000eb79190620022cc565b6000620005d962001307836004620013d8565b60e881901c62ff00ff1663ff00ff0060d89290921c9190911617601081811c91901b1790565b6020820151825182011115620013865760405162461bcd60e51b815260206004820152601b60248201527f5061727365206572726f723a20756e657870656374656420454f49000000000060448201526064016200022f565b5050565b60608115620005d9576040519050601f19603f830116810180604052828252602082015b8451815260200181811415620013c457620013d0565b602085019450620013ae565b505092915050565b6000620013e683836200132d565b5081518051910190915290565b6000620005d9826020620013d8565b6200140c62001c2b565b6200141782620013f3565b815262001424826200164f565b6020820181905260c001515160009062001440906001620022e6565b90506002600882811c62ff00ff1663ff00ff009184901b9190911617601081811c91901b17835160208086015160c00151604051620014829493920162002301565b60408051601f19818403018152908290526200149e9162002043565b602060405180830381855afa158015620014bc573d6000803e3d6000fd5b5050506040513d601f19601f82011682018060405250810190620014e19190620022cc565b604083015250919050565b60408051808201909152600080825260208201526200150b82620013f3565b815262001518826200101f565b60ff1660208201819052600211620015995760405162461bcd60e51b815260206004820152603760248201527f50726f6f664465636f6465723a204d65726b6c65506174684974656d2064697260448201527f656374696f6e2073686f756c642062652030206f72203100000000000000000060648201526084016200022f565b919050565b620015a862001c48565b620015b58260d06200197e565b610100820152620015c68262001037565b6001600160401b03168152620015dc82620013f3565b6020820152620015ec82620013f3565b6040820152620015fc82620013f3565b60608201526200160c82620013f3565b60808201526200161c8262001037565b6001600160401b031660a08201526200163582620013f3565b60c08201526200164582620013f3565b60e0820152919050565b6200165962001c94565b6200166482620012f4565b63ffffffff166001600160401b0381111562001684576200168462001dd5565b604051908082528060200260200182016040528015620016b957816020015b6060815260200190600190039081620016a35790505b50815260005b8151518110156200170d57620016d58362000f1a565b8251805183908110620016ec57620016ec62002208565b602002602001018190525080806200170490620022ae565b915050620016bf565b5081516200171b83620012f4565b63ffffffff166001600160401b038111156200173b576200173b62001dd5565b60405190808252806020026020018201604052801562001765578160200160208202803683370190505b50602083015260005b826020015151811015620017c0576200178784620013f3565b83602001518281518110620017a057620017a062002208565b602090810291909101015280620017b781620022ae565b9150506200176e565b50620017cc8362001037565b6001600160401b03166040830152620017e58362000f60565b6001600160801b03166060830152620017fe8362000f1a565b60808301526200180e83620019a1565b60a083015281515162001823906001620022e6565b6001600160401b038111156200183d576200183d62001dd5565b60405190808252806020026020018201604052801562001867578160200160208202803683370190505b5060c08301528251620018899082906200188390829062002352565b62001ab3565b8260c00151600081518110620018a357620018a362002208565b60200260200101818152505060005b8251518110156200197757600283600001518281518110620018d857620018d862002208565b6020026020010151604051620018ef919062002043565b602060405180830381855afa1580156200190d573d6000803e3d6000fd5b5050506040513d601f19601f82011682018060405250810190620019329190620022cc565b60c084015162001944836001620022e6565b8151811062001957576200195762002208565b6020908102919091010152806200196e81620022ae565b915050620018b2565b5050919050565b60006200198c83836200132d565b82516200199a908362001ab3565b9392505050565b6040805160a0810182526000808252602082018190529181018290526060808201526080810191909152620019d6826200101f565b60ff16808252620019ed5760016020820152919050565b806000015160ff166001141562001a0a5760016040820152919050565b806000015160ff166002141562001a265762000eb78262000f1a565b806000015160ff166003141562001a4c5762001a4282620013f3565b6080820152919050565b60405162461bcd60e51b815260206004820152603560248201527f4e6561724465636f6465723a206465636f6465457865637574696f6e53746174604482015274757320696e646578206f7574206f662072616e676560581b60648201526084016200022f565b600060206000838560025afa5b8062001acc5762001ac0565b505060005192915050565b6111ef806200236d83390190565b82805462001af3906200200c565b90600052602060002090601f01602090048101928262001b17576000855562001b62565b82601f1062001b325782800160ff1982351617855562001b62565b8280016001018555821562001b62579182015b8281111562001b6257823582559160200191906001019062001b45565b5062001b7092915062001d12565b5090565b604051806080016040528062001b8962001bd5565b815260200162001ba56040518060200160405280606081525090565b815260200162001bb462001bfd565b815260200162001bd06040518060200160405280606081525090565b905290565b60408051608081018252606080820190815281526000602082015290810162001bd062001c2b565b604080516080810182526000808252602082015290810162001c1e62001c48565b8152600060209091015290565b6040805160608101909152600081526020810162001c1e62001c94565b6040805161012081018252600080825260208201819052918101829052606081018290526080810182905260a0810182905260c0810182905260e0810182905261010081019190915290565b6040518060e00160405280606081526020016060815260200160006001600160401b0316815260200160006001600160801b031681526020016060815260200162001d056040805160a081018252600080825260208201819052918101829052606080820152608081019190915290565b8152602001606081525090565b5b8082111562001b70576000815560010162001d13565b80356001600160a01b03811681146200159957600080fd5b60006020828403121562001d5457600080fd5b6200199a8262001d29565b60005b8381101562001d7c57818101518382015260200162001d62565b8381111562001d8c576000848401525b50505050565b6000815180845262001dac81602086016020860162001d5f565b601f01601f19169290920160200192915050565b6020815260006200199a602083018462001d92565b634e487b7160e01b600052604160045260246000fd5b60006001600160401b038084111562001e085762001e0862001dd5565b604051601f8501601f19908116603f0116810190828211818310171562001e335762001e3362001dd5565b8160405280935085815286868601111562001e4d57600080fd5b858560208301376000602087830101525050509392505050565b6000806040838503121562001e7b57600080fd5b82356001600160401b038082111562001e9357600080fd5b818501915085601f83011262001ea857600080fd5b62001eb98683356020850162001deb565b935060208501359150808216821462001ed157600080fd5b50809150509250929050565b6000806020838503121562001ef157600080fd5b82356001600160401b038082111562001f0957600080fd5b818501915085601f83011262001f1e57600080fd5b81358181111562001f2e57600080fd5b86602082850101111562001f4157600080fd5b60209290920196919550909350505050565b60006020828403121562001f6657600080fd5b5035919050565b60008060006060848603121562001f8357600080fd5b62001f8e8462001d29565b92506020840135915060408401356001600160401b0381111562001fb157600080fd5b8401601f8101861362001fc357600080fd5b62001fd48682356020840162001deb565b9150509250925092565b60208082526014908201527322a9292fa727aa2fa12924a223a2afaa27a5a2a760611b604082015260600190565b600181811c908216806200202157607f821691505b60208210811415620011c057634e487b7160e01b600052602260045260246000fd5b600082516200205781846020870162001d5f565b9190910192915050565b8183823760009101908152919050565b60808152600062002086608083018762001d92565b82810360208401526200209a818762001d92565b91505060ff841660408301526001600160401b038316606083015295945050505050565b6001600160a01b0385168152608060208201819052600090620020e49083018662001d92565b8281036040840152620020f8818662001d92565b91505060ff8316606083015295945050505050565b60608152600080855462002121816200200c565b80606086015260806001808416600081146200214657600181146200215b576200218e565b60ff1985168884015260a0880195506200218e565b8a60005260208060002060005b86811015620021855781548b820187015290840190820162002168565b8a018501975050505b50505050508460208401528281036040840152620021ad818562001d92565b9695505050505050565b604081526000620021cc604083018562001d92565b90506001600160401b03831660208301529392505050565b600060208284031215620021f757600080fd5b815180151581146200199a57600080fd5b634e487b7160e01b600052603260045260246000fd5b60008083546200222e816200200c565b600182811680156200224957600181146200225b576200228c565b60ff198416875282870194506200228c565b8760005260208060002060005b85811015620022835781548a82015290840190820162002268565b50505082870194505b50929695505050505050565b634e487b7160e01b600052601160045260246000fd5b6000600019821415620022c557620022c562002298565b5060010190565b600060208284031215620022df57600080fd5b5051919050565b60008219821115620022fc57620022fc62002298565b500190565b63ffffffff60e01b8460e01b1681528260048201526000602482018351602080860160005b83811015620023445781518552938201939082019060010162002326565b509298975050505050505050565b60008282101562002367576200236762002298565b50039056fe60806040523480156200001157600080fd5b50604051620011ef380380620011ef833981016040819052620000349162000234565b8251839083906200004d906003906020850190620000c1565b50805162000063906004906020840190620000c1565b5050600580546001600160a01b031916331790555082516200008d906006906020860190620000c1565b508151620000a3906007906020850190620000c1565b506008805460ff191660ff9290921691909117905550620002f69050565b828054620000cf90620002b9565b90600052602060002090601f016020900481019282620000f357600085556200013e565b82601f106200010e57805160ff19168380011785556200013e565b828001600101855582156200013e579182015b828111156200013e57825182559160200191906001019062000121565b506200014c92915062000150565b5090565b5b808211156200014c576000815560010162000151565b634e487b7160e01b600052604160045260246000fd5b600082601f8301126200018f57600080fd5b81516001600160401b0380821115620001ac57620001ac62000167565b604051601f8301601f19908116603f01168101908282118183101715620001d757620001d762000167565b81604052838152602092508683858801011115620001f457600080fd5b600091505b83821015620002185785820183015181830184015290820190620001f9565b838211156200022a5760008385830101525b9695505050505050565b6000806000606084860312156200024a57600080fd5b83516001600160401b03808211156200026257600080fd5b62000270878388016200017d565b945060208601519150808211156200028757600080fd5b5062000296868287016200017d565b925050604084015160ff81168114620002ae57600080fd5b809150509250925092565b600181811c90821680620002ce57607f821691505b60208210811415620002f057634e487b7160e01b600052602260045260246000fd5b50919050565b610ee980620003066000396000f3fe608060405234801561001057600080fd5b50600436106100ea5760003560e01c806370a082311161008c578063a457c2d711610066578063a457c2d7146101d6578063a9059cbb146101e9578063dd62ed3e146101fc578063f547717e1461023557600080fd5b806370a082311461019257806395d89b41146101bb5780639dc29fac146101c357600080fd5b806323b872dd116100c857806323b872dd14610142578063313ce56714610155578063395093511461016a57806340c10f191461017d57600080fd5b806306fdde03146100ef578063095ea7b31461010d57806318160ddd14610130575b600080fd5b6100f7610248565b6040516101049190610ba1565b60405180910390f35b61012061011b366004610c12565b6102da565b6040519015158152602001610104565b6002545b604051908152602001610104565b610120610150366004610c3c565b6102f2565b60085460405160ff9091168152602001610104565b610120610178366004610c12565b610316565b61019061018b366004610c12565b610355565b005b6101346101a0366004610c78565b6001600160a01b031660009081526020819052604090205490565b6100f7610396565b6101906101d1366004610c12565b6103a5565b6101206101e4366004610c12565b6103d9565b6101206101f7366004610c12565b61046b565b61013461020a366004610c9a565b6001600160a01b03918216600090815260016020908152604080832093909416825291909152205490565b610190610243366004610d70565b610479565b60606006805461025790610e07565b80601f016020809104026020016040519081016040528092919081815260200182805461028390610e07565b80156102d05780601f106102a5576101008083540402835291602001916102d0565b820191906000526020600020905b8154815290600101906020018083116102b357829003601f168201915b5050505050905090565b6000336102e881858561055e565b5060019392505050565b600033610300858285610683565b61030b858585610715565b506001949350505050565b3360008181526001602090815260408083206001600160a01b03871684529091528120549091906102e89082908690610350908790610e58565b61055e565b6005546001600160a01b031633146103885760405162461bcd60e51b815260040161037f90610e70565b60405180910390fd5b61039282826108e3565b5050565b60606007805461025790610e07565b6005546001600160a01b031633146103cf5760405162461bcd60e51b815260040161037f90610e70565b61039282826109c2565b3360008181526001602090815260408083206001600160a01b03871684529091528120549091908381101561045e5760405162461bcd60e51b815260206004820152602560248201527f45524332303a2064656372656173656420616c6c6f77616e63652062656c6f77604482015264207a65726f60d81b606482015260840161037f565b61030b828686840361055e565b6000336102e8818585610715565b6005546001600160a01b031633146104a35760405162461bcd60e51b815260040161037f90610e70565b60085467ffffffffffffffff610100909104811690821610156104fb5760405162461bcd60e51b815260206004820152601060248201526f4552525f4f4c445f4d4554414441544160801b604482015260640161037f565b6008805468ffffffffffffffff00191661010067ffffffffffffffff8416021790558351610530906006906020870190610b08565b508251610544906007906020860190610b08565b50506008805460ff191660ff929092169190911790555050565b6001600160a01b0383166105c05760405162461bcd60e51b8152602060048201526024808201527f45524332303a20617070726f76652066726f6d20746865207a65726f206164646044820152637265737360e01b606482015260840161037f565b6001600160a01b0382166106215760405162461bcd60e51b815260206004820152602260248201527f45524332303a20617070726f766520746f20746865207a65726f206164647265604482015261737360f01b606482015260840161037f565b6001600160a01b0383811660008181526001602090815260408083209487168084529482529182902085905590518481527f8c5be1e5ebec7d5bd14f71427d1e84f3dd0314c0f7b2291e5b200ac8c7c3b92591015b60405180910390a3505050565b6001600160a01b03838116600090815260016020908152604080832093861683529290522054600019811461070f57818110156107025760405162461bcd60e51b815260206004820152601d60248201527f45524332303a20696e73756666696369656e7420616c6c6f77616e6365000000604482015260640161037f565b61070f848484840361055e565b50505050565b6001600160a01b0383166107795760405162461bcd60e51b815260206004820152602560248201527f45524332303a207472616e736665722066726f6d20746865207a65726f206164604482015264647265737360d81b606482015260840161037f565b6001600160a01b0382166107db5760405162461bcd60e51b815260206004820152602360248201527f45524332303a207472616e7366657220746f20746865207a65726f206164647260448201526265737360e81b606482015260840161037f565b6001600160a01b038316600090815260208190526040902054818110156108535760405162461bcd60e51b815260206004820152602660248201527f45524332303a207472616e7366657220616d6f756e7420657863656564732062604482015265616c616e636560d01b606482015260840161037f565b6001600160a01b0380851660009081526020819052604080822085850390559185168152908120805484929061088a908490610e58565b92505081905550826001600160a01b0316846001600160a01b03167fddf252ad1be2c89b69c2b068fc378daa952ba7f163c4a11628f55a4df523b3ef846040516108d691815260200190565b60405180910390a361070f565b6001600160a01b0382166109395760405162461bcd60e51b815260206004820152601f60248201527f45524332303a206d696e7420746f20746865207a65726f206164647265737300604482015260640161037f565b806002600082825461094b9190610e58565b90915550506001600160a01b03821660009081526020819052604081208054839290610978908490610e58565b90915550506040518181526001600160a01b038316906000907fddf252ad1be2c89b69c2b068fc378daa952ba7f163c4a11628f55a4df523b3ef9060200160405180910390a35050565b6001600160a01b038216610a225760405162461bcd60e51b815260206004820152602160248201527f45524332303a206275726e2066726f6d20746865207a65726f206164647265736044820152607360f81b606482015260840161037f565b6001600160a01b03821660009081526020819052604090205481811015610a965760405162461bcd60e51b815260206004820152602260248201527f45524332303a206275726e20616d6f756e7420657863656564732062616c616e604482015261636560f01b606482015260840161037f565b6001600160a01b0383166000908152602081905260408120838303905560028054849290610ac5908490610e9c565b90915550506040518281526000906001600160a01b038516907fddf252ad1be2c89b69c2b068fc378daa952ba7f163c4a11628f55a4df523b3ef90602001610676565b828054610b1490610e07565b90600052602060002090601f016020900481019282610b365760008555610b7c565b82601f10610b4f57805160ff1916838001178555610b7c565b82800160010185558215610b7c579182015b82811115610b7c578251825591602001919060010190610b61565b50610b88929150610b8c565b5090565b5b80821115610b885760008155600101610b8d565b600060208083528351808285015260005b81811015610bce57858101830151858201604001528201610bb2565b81811115610be0576000604083870101525b50601f01601f1916929092016040019392505050565b80356001600160a01b0381168114610c0d57600080fd5b919050565b60008060408385031215610c2557600080fd5b610c2e83610bf6565b946020939093013593505050565b600080600060608486031215610c5157600080fd5b610c5a84610bf6565b9250610c6860208501610bf6565b9150604084013590509250925092565b600060208284031215610c8a57600080fd5b610c9382610bf6565b9392505050565b60008060408385031215610cad57600080fd5b610cb683610bf6565b9150610cc460208401610bf6565b90509250929050565b634e487b7160e01b600052604160045260246000fd5b600082601f830112610cf457600080fd5b813567ffffffffffffffff80821115610d0f57610d0f610ccd565b604051601f8301601f19908116603f01168101908282118183101715610d3757610d37610ccd565b81604052838152866020858801011115610d5057600080fd5b836020870160208301376000602085830101528094505050505092915050565b60008060008060808587031215610d8657600080fd5b843567ffffffffffffffff80821115610d9e57600080fd5b610daa88838901610ce3565b95506020870135915080821115610dc057600080fd5b610dcc88838901610ce3565b94506040870135915060ff82168214610de457600080fd5b9092506060860135908082168214610dfb57600080fd5b50939692955090935050565b600181811c90821680610e1b57607f821691505b60208210811415610e3c57634e487b7160e01b600052602260045260246000fd5b50919050565b634e487b7160e01b600052601160045260246000fd5b60008219821115610e6b57610e6b610e42565b500190565b60208082526012908201527122a9292fa727aa2fa1a7a72a2927a62622a960711b604082015260600190565b600082821015610eae57610eae610e42565b50039056fea26469706673582212208bd9282807a9bf26df3b933f9f16184b920500af9957c67b0300e5ef80d7945e64736f6c634300080b0033a26469706673582212203a7638eb6c58003b8008ac6a46dea9489da114a1ab1219b2a0db24b2b6f4930d64736f6c634300080b0033",
  "linkReferences": {},
  "deployedLinkReferences": {}
}