{
  "_format": "hh-sol-artifact-1",
  "contractName": "AccountIds",
  "sourceName": "contracts/AccountIds.sol",
  "abi": [
    {
      "inputs": [],
      "name": "currentAccountId",
      "outputs": [
        {
          "internalType": "string",
          "name": "",
          "type": "string"
        }
      ],
      "stateMutability": "nonpayable",
      "type": "function"
    },
    {
      "inputs": [],
      "name": "predecessorAccountId",
      "outputs": [
        {
          "internalType": "string",
          "name": "",
          "type": "string"
        }
      ],
      "stateMutability": "nonpayable",
      "type": "function"
    }
  ],
  "bytecode": "0x608060405234801561001057600080fd5b50610466806100206000396000f3fe608060405234801561001057600080fd5b50600436106100365760003560e01c80632bf954531461003b57806348ca4f6214610059575b600080fd5b610043610061565b6040516100509190610331565b60405180910390f35b61004361009a565b606061006b610313565b604081600080600073723ffbaba940e75e7bf5f6d61dcbf8d9a4de0fd75af150610094816100c9565b91505090565b60606100a4610313565b604081600080600073fefae79e4180eb0284f261205e3f8cea737aff565af150610094815b606060005b60208160ff161080156101035750825160ff8216602081106100f2576100f2610386565b1a60f81b6001600160f81b03191615155b8061015c575060208160ff1610158015610120575060408160ff16105b801561015c57506020808401519061013890836103b2565b60ff166020811061014b5761014b610386565b1a60f81b6001600160f81b03191615155b15610173578061016b816103d5565b9150506100ce565b60008160ff1667ffffffffffffffff811115610191576101916103f5565b6040519080825280601f01601f1916602001820160405280156101bb576020820181803683370190505b50905060005b60208160ff161080156101f65750845160ff8216602081106101e5576101e5610386565b1a60f81b6001600160f81b03191615155b1561025357845160ff82166020811061021157610211610386565b1a60f81b828260ff168151811061022a5761022a610386565b60200101906001600160f81b031916908160001a9053508061024b816103d5565b9150506101c1565b60208360ff16111561030b575060005b60208160ff1610801561029e575084600160200201518160ff166020811061028d5761028d610386565b1a60f81b6001600160f81b03191615155b1561030b5784600160200201518160ff16602081106102bf576102bf610386565b1a60f81b826102cf83602061040b565b60ff16815181106102e2576102e2610386565b60200101906001600160f81b031916908160001a90535080610303816103d5565b915050610263565b509392505050565b60405180604001604052806002906020820280368337509192915050565b600060208083528351808285015260005b8181101561035e57858101830151858201604001528201610342565b81811115610370576000604083870101525b50601f01601f1916929092016040019392505050565b634e487b7160e01b600052603260045260246000fd5b634e487b7160e01b600052601160045260246000fd5b600060ff821660ff8416808210156103cc576103cc61039c565b90039392505050565b600060ff821660ff8114156103ec576103ec61039c565b60010192915050565b634e487b7160e01b600052604160045260246000fd5b600060ff821660ff84168060ff038211156104285761042861039c565b01939250505056fea26469706673582212208aea9d04c37f5aa03950793b7a02f2158adb8fab340bdb4f5da67b21ff7a90fa64736f6c634300080b0033",
  "linkReferences": {},
  "deployedLinkReferences": {}
}