{
  "_format": "hh-sol-artifact-1",
  "contractName": "AuroraERC20Locker",
  "sourceName": "contracts/AuroraERC20Locker.sol",
  "abi": [
    {
      "inputs": [
        {
          "internalType": "address",
          "name": "_admin",
          "type": "address"
        }
      ],
      "stateMutability": "nonpayable",
      "type": "constructor"
    },
    {
      "anonymous": false,
      "inputs": [
        {
          "indexed": true,
          "internalType": "address",
          "name": "token",
          "type": "address"
        },
        {
          "indexed": true,
          "internalType": "address",
          "name": "sender",
          "type": "address"
        },
        {
          "indexed": false,
          "internalType": "uint256",
          "name": "amount",
          "type": "uint256"
        },
        {
          "indexed": false,
          "internalType": "string",
          "name": "accountId",
          "type": "string"
        }
      ],
      "name": "Locked",
      "type": "event"
    },
    {
      "anonymous": false,
      "inputs": [
        {
          "indexed": false,
          "internalType": "uint256",
          "name": "amount",
          "type": "uint256"
        },
        {
          "indexed": false,
          "internalType": "address",
          "name": "recipient",
          "type": "address"
        }
      ],
      "name": "Unlocked",
      "type": "event"
    },
    {
      "inputs": [
        {
          "internalType": "address",
          "name": "newAdmin",
          "type": "address"
        }
      ],
      "name": "acceptAdmin",
      "outputs": [],
      "stateMutability": "nonpayable",
      "type": "function"
    },
    {
      "inputs": [],
      "name": "admin",
      "outputs": [
        {
          "internalType": "address",
          "name": "",
          "type": "address"
        }
      ],
      "stateMutability": "view",
      "type": "function"
    },
    {
      "inputs": [
        {
          "internalType": "address",
          "name": "target",
          "type": "address"
        },
        {
          "internalType": "bytes",
          "name": "data",
          "type": "bytes"
        }
      ],
      "name": "adminDelegatecall",
      "outputs": [
        {
          "internalType": "bytes",
          "name": "",
          "type": "bytes"
        }
      ],
      "stateMutability": "payable",
      "type": "function"
    },
    {
      "inputs": [
        {
          "internalType": "uint256",
          "name": "flags",
          "type": "uint256"
        }
      ],
      "name": "adminPause",
      "outputs": [],
      "stateMutability": "nonpayable",
      "type": "function"
    },
    {
      "inputs": [],
      "name": "adminReceiveEth",
      "outputs": [],
      "stateMutability": "payable",
      "type": "function"
    },
    {
      "inputs": [
        {
          "internalType": "address payable",
          "name": "destination",
          "type": "address"
        },
        {
          "internalType": "uint256",
          "name": "amount",
          "type": "uint256"
        }
      ],
      "name": "adminSendEth",
      "outputs": [],
      "stateMutability": "nonpayable",
      "type": "function"
    },
    {
      "inputs": [
        {
          "internalType": "uint256",
          "name": "key",
          "type": "uint256"
        },
        {
          "internalType": "uint256",
          "name": "value",
          "type": "uint256"
        }
      ],
      "name": "adminSstore",
      "outputs": [],
      "stateMutability": "nonpayable",
      "type": "function"
    },
    {
      "inputs": [
        {
          "internalType": "uint256",
          "name": "key",
          "type": "uint256"
        },
        {
          "internalType": "uint256",
          "name": "value",
          "type": "uint256"
        },
        {
          "internalType": "uint256",
          "name": "mask",
          "type": "uint256"
        }
      ],
      "name": "adminSstoreWithMask",
      "outputs": [],
      "stateMutability": "nonpayable",
      "type": "function"
    },
    {
      "inputs": [
        {
          "internalType": "contract IERC20",
          "name": "token",
          "type": "address"
        },
        {
          "internalType": "address",
          "name": "destination",
          "type": "address"
        },
        {
          "internalType": "uint256",
          "name": "amount",
          "type": "uint256"
        }
      ],
      "name": "adminTransfer",
      "outputs": [],
      "stateMutability": "nonpayable",
      "type": "function"
    },
    {
      "inputs": [
        {
          "internalType": "address",
          "name": "ethToken",
          "type": "address"
        },
        {
          "internalType": "uint256",
          "name": "amount",
          "type": "uint256"
        },
        {
          "internalType": "bytes",
          "name": "recipient",
          "type": "bytes"
        }
      ],
      "name": "lockToken",
      "outputs": [],
      "stateMutability": "nonpayable",
      "type": "function"
    },
    {
      "inputs": [
        {
          "internalType": "address",
          "name": "newAdmin",
          "type": "address"
        }
      ],
      "name": "nominateAdmin",
      "outputs": [],
      "stateMutability": "nonpayable",
      "type": "function"
    },
    {
      "inputs": [],
      "name": "nominatedAdmin",
      "outputs": [
        {
          "internalType": "address",
          "name": "",
          "type": "address"
        }
      ],
      "stateMutability": "view",
      "type": "function"
    },
    {
      "inputs": [],
      "name": "paused",
      "outputs": [
        {
          "internalType": "uint256",
          "name": "",
          "type": "uint256"
        }
      ],
      "stateMutability": "view",
      "type": "function"
    },
    {
      "inputs": [],
      "name": "rejectNominatedAdmin",
      "outputs": [],
      "stateMutability": "nonpayable",
      "type": "function"
    },
    {
      "inputs": [
        {
          "internalType": "address",
          "name": "_from",
          "type": "address"
        },
        {
          "internalType": "uint256",
          "name": "_value",
          "type": "uint256"
        },
        {
          "internalType": "bytes",
          "name": "_data",
          "type": "bytes"
        }
      ],
      "name": "tokenFallback",
      "outputs": [],
      "stateMutability": "pure",
      "type": "function"
    },
    {
      "inputs": [
        {
          "internalType": "address",
          "name": "token",
          "type": "address"
        },
        {
          "internalType": "uint256",
          "name": "amount",
          "type": "uint256"
        },
        {
          "internalType": "address",
          "name": "recipient",
          "type": "address"
        }
      ],
      "name": "unlockToken",
      "outputs": [],
      "stateMutability": "nonpayable",
      "type": "function"
    }
  ],
  "bytecode": "0x608060405234801561001057600080fd5b5060405161107638038061107683398101604081905261002f91610057565b600080546001600160a01b0319166001600160a01b0392909216919091178155600255610087565b60006020828403121561006957600080fd5b81516001600160a01b038116811461008057600080fd5b9392505050565b610fe0806100966000396000f3fe6080604052600436106100f35760003560e01c8063b8e9744c1161008a578063da72c1e811610059578063da72c1e814610278578063e8ac653314610298578063f48ab4e0146102d0578063f851a440146102d857600080fd5b8063b8e9744c146101f8578063be831a2e14610218578063c0ee0b8a14610238578063cd5ad4c51461025857600080fd5b8063628806ef116100c6578063628806ef146101835780636c4624c3146101a357806387238d11146101c3578063ac77a535146101e357600080fd5b80632692c59f146100f8578063530208f21461011a5780635a9c78ab1461013a5780635c975abb1461015a575b600080fd5b34801561010457600080fd5b50610118610113366004610b9f565b6102f8565b005b34801561012657600080fd5b50610118610135366004610bcd565b610314565b34801561014657600080fd5b50610118610155366004610bf9565b610361565b34801561016657600080fd5b5061017060025481565b6040519081526020015b60405180910390f35b34801561018f57600080fd5b5061011861019e366004610c3b565b6103f8565b3480156101af57600080fd5b506101186101be366004610c58565b6104c8565b3480156101cf57600080fd5b506101186101de366004610d27565b6104ea565b3480156101ef57600080fd5b506101186106c5565b61020b610206366004610d80565b6106ee565b60405161017a9190610e28565b34801561022457600080fd5b50610118610233366004610e3b565b61077a565b34801561024457600080fd5b50610118610253366004610d27565b505050565b34801561026457600080fd5b50610118610273366004610c3b565b610795565b34801561028457600080fd5b50610118610293366004610e5d565b6107d7565b3480156102a457600080fd5b506001546102b8906001600160a01b031681565b6040516001600160a01b03909116815260200161017a565b610118610802565b3480156102e457600080fd5b506000546102b8906001600160a01b031681565b6000546001600160a01b0316331461030f57600080fd5b600255565b6000546001600160a01b0316331461032b57600080fd5b6040516001600160a01b0383169082156108fc029083906000818181858888f19350505050158015610253573d6000803e3d6000fd5b6000546001600160a01b0316331461037857600080fd5b600280548116158061039457506000546001600160a01b031633145b61039d57600080fd5b6103b16001600160a01b038516838561081b565b604080518481526001600160a01b03841660208201527fe7536184071702b58fe23a1d7d0df5fb9eed9a3176bbae54cf3e17d45f77ac32910160405180910390a150505050565b6000546001600160a01b0316331461040f57600080fd5b6104188161087e565b6001546001600160a01b038281169116146104a05760405162461bcd60e51b815260206004820152603a60248201527f5468652070726f76696465642061646d696e206164647265737320646f65736e60448201527f2774206d6174636820746865206e6f6d696e61746564206f6e6500000000000060648201526084015b60405180910390fd5b5060018054600080546001600160a01b03199081166001600160a01b03841617909155169055565b6000546001600160a01b031633146104df57600080fd5b825491821816189055565b600180600254166000148061050957506000546001600160a01b031633145b61051257600080fd5b6105216001600160801b610eb4565b6040516370a0823160e01b81523060048201526105959085906001600160a01b038816906370a0823190602401602060405180830381865afa15801561056b573d6000803e3d6000fd5b505050506040513d601f19601f8201168201806040525081019061058f9190610ecb565b90610971565b11156105f85760405162461bcd60e51b815260206004820152602c60248201527f4d6178696d756d20746f6b656e73206c6f636b6564206578636565646564202860448201526b3c20325e313238202d20312960a01b6064820152608401610497565b61060d6001600160a01b038516333086610984565b6040518390600090610629903390889085908890602001610ee4565b604051602081830303815290604052905060008451604961064a9190610f3b565b9050602060008260208501600073e9217bc70b7ed1f598ddd3199e80b093fa71124f5af150336001600160a01b0316876001600160a01b03167fdd85dc56b5b4da387bf69c28ec19b1d66e793e0d51b567882fa31dc50bbd32c588886040516106b4929190610f53565b60405180910390a350505050505050565b6000546001600160a01b031633146106dc57600080fd5b600180546001600160a01b0319169055565b6000546060906001600160a01b0316331461070857600080fd5b600080846001600160a01b0316846040516107239190610f6c565b600060405180830381855af49150503d806000811461075e576040519150601f19603f3d011682016040523d82523d6000602084013e610763565b606091505b50915091508161077257600080fd5b949350505050565b6000546001600160a01b0316331461079157600080fd5b9055565b6000546001600160a01b031633146107ac57600080fd5b6107b58161087e565b600180546001600160a01b0319166001600160a01b0392909216919091179055565b6000546001600160a01b031633146107ee57600080fd5b6102536001600160a01b038416838361081b565b6000546001600160a01b0316331461081957600080fd5b565b6040516001600160a01b03831660248201526044810182905261025390849063a9059cbb60e01b906064015b60408051601f198184030181529190526020810180516001600160e01b03166001600160e01b0319909316929092179091526109c2565b6000546001600160a01b0316331461089557600080fd5b6000546001600160a01b03828116911614156109065760405162461bcd60e51b815260206004820152602a60248201527f4e6f6d696e617465642061646d696e206973207468652073616d6520617320746044820152691a194818dd5c9c995b9d60b21b6064820152608401610497565b6001600160a01b03811661096e5760405162461bcd60e51b815260206004820152602960248201527f4e6f6d696e617465642061646d696e2073686f756c646e2774206265207a65726044820152686f206164647265737360b81b6064820152608401610497565b50565b600061097d8284610f3b565b9392505050565b6040516001600160a01b03808516602483015283166044820152606481018290526109bc9085906323b872dd60e01b90608401610847565b50505050565b6000610a17826040518060400160405280602081526020017f5361666545524332303a206c6f772d6c6576656c2063616c6c206661696c6564815250856001600160a01b0316610a949092919063ffffffff16565b8051909150156102535780806020019051810190610a359190610f88565b6102535760405162461bcd60e51b815260206004820152602a60248201527f5361666545524332303a204552433230206f7065726174696f6e20646964206e6044820152691bdd081cdd58d8d9595960b21b6064820152608401610497565b6060610772848460008585843b610aed5760405162461bcd60e51b815260206004820152601d60248201527f416464726573733a2063616c6c20746f206e6f6e2d636f6e74726163740000006044820152606401610497565b600080866001600160a01b03168587604051610b099190610f6c565b60006040518083038185875af1925050503d8060008114610b46576040519150601f19603f3d011682016040523d82523d6000602084013e610b4b565b606091505b5091509150610b5b828286610b66565b979650505050505050565b60608315610b7557508161097d565b825115610b855782518084602001fd5b8160405162461bcd60e51b81526004016104979190610e28565b600060208284031215610bb157600080fd5b5035919050565b6001600160a01b038116811461096e57600080fd5b60008060408385031215610be057600080fd5b8235610beb81610bb8565b946020939093013593505050565b600080600060608486031215610c0e57600080fd5b8335610c1981610bb8565b9250602084013591506040840135610c3081610bb8565b809150509250925092565b600060208284031215610c4d57600080fd5b813561097d81610bb8565b600080600060608486031215610c6d57600080fd5b505081359360208301359350604090920135919050565b634e487b7160e01b600052604160045260246000fd5b600082601f830112610cab57600080fd5b813567ffffffffffffffff80821115610cc657610cc6610c84565b604051601f8301601f19908116603f01168101908282118183101715610cee57610cee610c84565b81604052838152866020858801011115610d0757600080fd5b836020870160208301376000602085830101528094505050505092915050565b600080600060608486031215610d3c57600080fd5b8335610d4781610bb8565b925060208401359150604084013567ffffffffffffffff811115610d6a57600080fd5b610d7686828701610c9a565b9150509250925092565b60008060408385031215610d9357600080fd5b8235610d9e81610bb8565b9150602083013567ffffffffffffffff811115610dba57600080fd5b610dc685828601610c9a565b9150509250929050565b60005b83811015610deb578181015183820152602001610dd3565b838111156109bc5750506000910152565b60008151808452610e14816020860160208601610dd0565b601f01601f19169290920160200192915050565b60208152600061097d6020830184610dfc565b60008060408385031215610e4e57600080fd5b50508035926020909101359150565b600080600060608486031215610e7257600080fd5b8335610e7d81610bb8565b92506020840135610e8d81610bb8565b929592945050506040919091013590565b634e487b7160e01b600052601160045260246000fd5b600082821015610ec657610ec6610e9e565b500390565b600060208284031215610edd57600080fd5b5051919050565b600160f91b815260006bffffffffffffffffffffffff19808760601b166001840152808660601b166015840152508360298301528251610f2b816049850160208701610dd0565b9190910160490195945050505050565b60008219821115610f4e57610f4e610e9e565b500190565b8281526040602082015260006107726040830184610dfc565b60008251610f7e818460208701610dd0565b9190910192915050565b600060208284031215610f9a57600080fd5b8151801515811461097d57600080fdfea2646970667358221220b48a37d86c60fbcd5b8fd298a07db3aaa240d8eb58a3aabd000663e5598ff43964736f6c634300080b0033",
  "linkReferences": {},
  "deployedLinkReferences": {}
}