{
  "_format": "hh-sol-artifact-1",
  "contractName": "AuroraERC20Locker",
  "sourceName": "contracts/AuroraERC20Locker.sol",
  "abi": [
    {
      "inputs": [
        {
          "internalType": "string",
          "name": "_nearTokenFactory",
          "type": "string"
        },
        {
          "internalType": "string",
          "name": "_auroraAsyncAccount",
          "type": "string"
        },
        {
          "internalType": "address",
          "name": "_admin",
          "type": "address"
        },
        {
          "internalType": "uint256",
          "name": "_pausedFlags",
          "type": "uint256"
        }
      ],
      "stateMutability": "nonpayable",
      "type": "constructor"
    },
    {
      "anonymous": false,
      "inputs": [
        {
          "indexed": false,
          "internalType": "uint256",
          "name": "index",
          "type": "uint256"
        },
        {
          "indexed": true,
          "internalType": "address",
          "name": "token",
          "type": "address"
        },
        {
          "indexed": false,
          "internalType": "uint256",
          "name": "amount",
          "type": "uint256"
        },
        {
          "indexed": false,
          "internalType": "string",
          "name": "accountId",
          "type": "string"
        }
      ],
      "name": "Claimed",
      "type": "event"
    },
    {
      "anonymous": false,
      "inputs": [
        {
          "indexed": true,
          "internalType": "address",
          "name": "token",
          "type": "address"
        },
        {
          "indexed": true,
          "internalType": "address",
          "name": "sender",
          "type": "address"
        },
        {
          "indexed": false,
          "internalType": "uint256",
          "name": "amount",
          "type": "uint256"
        },
        {
          "indexed": false,
          "internalType": "string",
          "name": "accountId",
          "type": "string"
        }
      ],
      "name": "Locked",
      "type": "event"
    },
    {
      "anonymous": false,
      "inputs": [
        {
          "indexed": false,
          "internalType": "uint128",
          "name": "amount",
          "type": "uint128"
        },
        {
          "indexed": false,
          "internalType": "address",
          "name": "recipient",
          "type": "address"
        }
      ],
      "name": "Unlocked",
      "type": "event"
    },
    {
      "inputs": [
        {
          "internalType": "address",
          "name": "newAdmin",
          "type": "address"
        }
      ],
      "name": "acceptAdmin",
      "outputs": [],
      "stateMutability": "nonpayable",
      "type": "function"
    },
    {
      "inputs": [],
      "name": "admin",
      "outputs": [
        {
          "internalType": "address",
          "name": "",
          "type": "address"
        }
      ],
      "stateMutability": "view",
      "type": "function"
    },
    {
      "inputs": [
        {
          "internalType": "address",
          "name": "target",
          "type": "address"
        },
        {
          "internalType": "bytes",
          "name": "data",
          "type": "bytes"
        }
      ],
      "name": "adminDelegatecall",
      "outputs": [
        {
          "internalType": "bytes",
          "name": "",
          "type": "bytes"
        }
      ],
      "stateMutability": "payable",
      "type": "function"
    },
    {
      "inputs": [
        {
          "internalType": "uint256",
          "name": "flags",
          "type": "uint256"
        }
      ],
      "name": "adminPause",
      "outputs": [],
      "stateMutability": "nonpayable",
      "type": "function"
    },
    {
      "inputs": [],
      "name": "adminReceiveEth",
      "outputs": [],
      "stateMutability": "payable",
      "type": "function"
    },
    {
      "inputs": [
        {
          "internalType": "address payable",
          "name": "destination",
          "type": "address"
        },
        {
          "internalType": "uint256",
          "name": "amount",
          "type": "uint256"
        }
      ],
      "name": "adminSendEth",
      "outputs": [],
      "stateMutability": "nonpayable",
      "type": "function"
    },
    {
      "inputs": [
        {
          "internalType": "uint256",
          "name": "key",
          "type": "uint256"
        },
        {
          "internalType": "uint256",
          "name": "value",
          "type": "uint256"
        }
      ],
      "name": "adminSstore",
      "outputs": [],
      "stateMutability": "nonpayable",
      "type": "function"
    },
    {
      "inputs": [
        {
          "internalType": "uint256",
          "name": "key",
          "type": "uint256"
        },
        {
          "internalType": "uint256",
          "name": "value",
          "type": "uint256"
        },
        {
          "internalType": "uint256",
          "name": "mask",
          "type": "uint256"
        }
      ],
      "name": "adminSstoreWithMask",
      "outputs": [],
      "stateMutability": "nonpayable",
      "type": "function"
    },
    {
      "inputs": [
        {
          "internalType": "contract IERC20",
          "name": "token",
          "type": "address"
        },
        {
          "internalType": "address",
          "name": "destination",
          "type": "address"
        },
        {
          "internalType": "uint256",
          "name": "amount",
          "type": "uint256"
        }
      ],
      "name": "adminTransfer",
      "outputs": [],
      "stateMutability": "nonpayable",
      "type": "function"
    },
    {
      "inputs": [],
      "name": "auroraAsyncAccount",
      "outputs": [
        {
          "internalType": "string",
          "name": "",
          "type": "string"
        }
      ],
      "stateMutability": "view",
      "type": "function"
    },
    {
      "inputs": [
        {
          "internalType": "address",
          "name": "token",
          "type": "address"
        },
        {
          "internalType": "uint256",
          "name": "lockEventIndex",
          "type": "uint256"
        }
      ],
      "name": "claim",
      "outputs": [
        {
          "internalType": "uint256",
          "name": "amount",
          "type": "uint256"
        },
        {
          "internalType": "string",
          "name": "recipient",
          "type": "string"
        }
      ],
      "stateMutability": "nonpayable",
      "type": "function"
    },
    {
      "inputs": [],
      "name": "currentAccountId",
      "outputs": [
        {
          "internalType": "string",
          "name": "",
          "type": "string"
        }
      ],
      "stateMutability": "nonpayable",
      "type": "function"
    },
    {
      "inputs": [
        {
          "internalType": "address",
          "name": "token",
          "type": "address"
        }
      ],
      "name": "getTokenMetadata",
      "outputs": [
        {
          "internalType": "string",
          "name": "name",
          "type": "string"
        },
        {
          "internalType": "string",
          "name": "symbol",
          "type": "string"
        },
        {
          "internalType": "uint8",
          "name": "decimals",
          "type": "uint8"
        }
      ],
      "stateMutability": "view",
      "type": "function"
    },
    {
      "inputs": [
        {
          "internalType": "uint256",
          "name": "",
          "type": "uint256"
        }
      ],
      "name": "lockEvents",
      "outputs": [
        {
          "internalType": "uint256",
          "name": "index",
          "type": "uint256"
        },
        {
          "internalType": "address",
          "name": "token",
          "type": "address"
        },
        {
          "internalType": "address",
          "name": "sender",
          "type": "address"
        },
        {
          "internalType": "uint256",
          "name": "amount",
          "type": "uint256"
        },
        {
          "internalType": "string",
          "name": "recipient",
          "type": "string"
        }
      ],
      "stateMutability": "view",
      "type": "function"
    },
    {
      "inputs": [
        {
          "internalType": "address",
          "name": "ethToken",
          "type": "address"
        },
        {
          "internalType": "uint256",
          "name": "amount",
          "type": "uint256"
        },
        {
          "internalType": "string",
          "name": "recipient",
          "type": "string"
        }
      ],
      "name": "lockToken",
      "outputs": [
        {
          "internalType": "uint256",
          "name": "",
          "type": "uint256"
        }
      ],
      "stateMutability": "nonpayable",
      "type": "function"
    },
    {
      "inputs": [
        {
          "internalType": "address",
          "name": "ethToken",
          "type": "address"
        },
        {
          "internalType": "uint256",
          "name": "amount",
          "type": "uint256"
        },
        {
          "internalType": "string",
          "name": "recipient",
          "type": "string"
        }
      ],
      "name": "lockTokenAsyncOnly",
      "outputs": [
        {
          "internalType": "string",
          "name": "",
          "type": "string"
        }
      ],
      "stateMutability": "nonpayable",
      "type": "function"
    },
    {
      "inputs": [],
      "name": "nearTokenFactory",
      "outputs": [
        {
          "internalType": "string",
          "name": "",
          "type": "string"
        }
      ],
      "stateMutability": "view",
      "type": "function"
    },
    {
      "inputs": [
        {
          "internalType": "address",
          "name": "newAdmin",
          "type": "address"
        }
      ],
      "name": "nominateAdmin",
      "outputs": [],
      "stateMutability": "nonpayable",
      "type": "function"
    },
    {
      "inputs": [],
      "name": "nominatedAdmin",
      "outputs": [
        {
          "internalType": "address",
          "name": "",
          "type": "address"
        }
      ],
      "stateMutability": "view",
      "type": "function"
    },
    {
      "inputs": [],
      "name": "paused",
      "outputs": [
        {
          "internalType": "uint256",
          "name": "",
          "type": "uint256"
        }
      ],
      "stateMutability": "view",
      "type": "function"
    },
    {
      "inputs": [],
      "name": "predecessorAccountId",
      "outputs": [
        {
          "internalType": "string",
          "name": "",
          "type": "string"
        }
      ],
      "stateMutability": "nonpayable",
      "type": "function"
    },
    {
      "inputs": [],
      "name": "rejectNominatedAdmin",
      "outputs": [],
      "stateMutability": "nonpayable",
      "type": "function"
    },
    {
      "inputs": [
        {
          "internalType": "address",
          "name": "_from",
          "type": "address"
        },
        {
          "internalType": "uint256",
          "name": "_value",
          "type": "uint256"
        },
        {
          "internalType": "bytes",
          "name": "_data",
          "type": "bytes"
        }
      ],
      "name": "tokenFallback",
      "outputs": [],
      "stateMutability": "pure",
      "type": "function"
    },
    {
      "inputs": [
        {
          "internalType": "address",
          "name": "token",
          "type": "address"
        },
        {
          "internalType": "uint256",
          "name": "amount",
          "type": "uint256"
        },
        {
          "internalType": "address",
          "name": "recipient",
          "type": "address"
        }
      ],
      "name": "unlockToken",
      "outputs": [],
      "stateMutability": "nonpayable",
      "type": "function"
    }
  ],
  "bytecode": "0x60806040523480156200001157600080fd5b50604051620025c9380380620025c9833981016040819052620000349162000200565b600080546001600160a01b0319166001600160a01b038416178155600282905560045583516200006c9060059060208701906200008d565b508251620000829060069060208601906200008d565b5050505050620002d0565b8280546200009b9062000293565b90600052602060002090601f016020900481019282620000bf57600085556200010a565b82601f10620000da57805160ff19168380011785556200010a565b828001600101855582156200010a579182015b828111156200010a578251825591602001919060010190620000ed565b50620001189291506200011c565b5090565b5b808211156200011857600081556001016200011d565b634e487b7160e01b600052604160045260246000fd5b600082601f8301126200015b57600080fd5b81516001600160401b038082111562000178576200017862000133565b604051601f8301601f19908116603f01168101908282118183101715620001a357620001a362000133565b81604052838152602092508683858801011115620001c057600080fd5b600091505b83821015620001e45785820183015181830184015290820190620001c5565b83821115620001f65760008385830101525b9695505050505050565b600080600080608085870312156200021757600080fd5b84516001600160401b03808211156200022f57600080fd5b6200023d8883890162000149565b955060208701519150808211156200025457600080fd5b50620002638782880162000149565b604087015190945090506001600160a01b03811681146200028357600080fd5b6060959095015193969295505050565b600181811c90821680620002a857607f821691505b60208210811415620002ca57634e487b7160e01b600052602260045260246000fd5b50919050565b6122e980620002e06000396000f3fe60806040526004361061014b5760003560e01c8063aad3ec96116100b6578063cd5ad4c51161006f578063cd5ad4c51461039d578063d9296f51146103bd578063da72c1e8146103d2578063e8ac6533146103f2578063f48ab4e01461042a578063f851a4401461043257600080fd5b8063aad3ec96146102d8578063ac77a53514610306578063b8e9744c1461031b578063be831a2e1461032e578063c00f14ab1461034e578063c0ee0b8a1461037d57600080fd5b80635a9c78ab116101085780635a9c78ab146102115780635c975abb14610231578063628806ef146102475780636c4624c3146102675780636f73189a146102875780638ef5dd44146102b857600080fd5b80630889bfe7146101505780632692c59f146101835780632bf95453146101a557806348ca4f62146101c75780634a6295dc146101dc578063530208f2146101f1575b600080fd5b34801561015c57600080fd5b5061017061016b366004611b34565b610452565b6040519081526020015b60405180910390f35b34801561018f57600080fd5b506101a361019e366004611ba1565b61068b565b005b3480156101b157600080fd5b506101ba6106a7565b60405161017a9190611c12565b3480156101d357600080fd5b506101ba6106e0565b3480156101e857600080fd5b506101ba610713565b3480156101fd57600080fd5b506101a361020c366004611c25565b6107a1565b34801561021d57600080fd5b506101a361022c366004611c51565b6107ee565b34801561023d57600080fd5b5061017060025481565b34801561025357600080fd5b506101a3610262366004611c93565b61090f565b34801561027357600080fd5b506101a3610282366004611cb0565b6109da565b34801561029357600080fd5b506102a76102a2366004611ba1565b6109fc565b60405161017a959493929190611cdc565b3480156102c457600080fd5b506101ba6102d3366004611b34565b610ac3565b3480156102e457600080fd5b506102f86102f3366004611c25565b610bf0565b60405161017a929190611d15565b34801561031257600080fd5b506101a3610e28565b6101ba610329366004611d4e565b610e51565b34801561033a57600080fd5b506101a3610349366004611d9e565b610edd565b34801561035a57600080fd5b5061036e610369366004611c93565b610ef8565b60405161017a93929190611dc0565b34801561038957600080fd5b506101a3610398366004611df9565b505050565b3480156103a957600080fd5b506101a36103b8366004611c93565b611037565b3480156103c957600080fd5b506101ba611079565b3480156103de57600080fd5b506101a36103ed366004611e48565b611086565b3480156103fe57600080fd5b50600154610412906001600160a01b031681565b6040516001600160a01b03909116815260200161017a565b6101a36110b1565b34801561043e57600080fd5b50600054610412906001600160a01b031681565b6000600180600254166000148061047357506000546001600160a01b031633145b61047c57600080fd5b61048b6001600160801b611e9f565b6040516370a0823160e01b81523060048201526104ff9086906001600160a01b038916906370a0823190602401602060405180830381865afa1580156104d5573d6000803e3d6000fd5b505050506040513d601f19601f820116820180604052508101906104f99190611eb6565b906110ca565b11156105675760405162461bcd60e51b815260206004820152602c60248201527f4d6178696d756d20746f6b656e73206c6f636b6564206578636565646564202860448201526b3c20325e313238202d20312960a01b60648201526084015b60405180910390fd5b61057c6001600160a01b0386163330876110dd565b6004805490600061058c83611ecf565b90915550506040805160a081018252600480548083526001600160a01b03808a16602080860191825233868801908152606087018c8152608088018c815260009687526003808552999096208851815593516001850180549187166001600160a01b03199283161790559151600285018054919096169216919091179093559151958101959095559051805193948594909361062d93908501920190611985565b50905050336001600160a01b0316866001600160a01b03167fdd85dc56b5b4da387bf69c28ec19b1d66e793e0d51b567882fa31dc50bbd32c58787604051610676929190611d15565b60405180910390a35050600454949350505050565b6000546001600160a01b031633146106a257600080fd5b600255565b60606106b1611a09565b604081600080600073723ffbaba940e75e7bf5f6d61dcbf8d9a4de0fd75af1506106da81611148565b91505090565b60606106ea611a09565b604081600080600073fefae79e4180eb0284f261205e3f8cea737aff565af1506106da81611148565b6005805461072090611eea565b80601f016020809104026020016040519081016040528092919081815260200182805461074c90611eea565b80156107995780601f1061076e57610100808354040283529160200191610799565b820191906000526020600020905b81548152906001019060200180831161077c57829003601f168201915b505050505081565b6000546001600160a01b031633146107b857600080fd5b6040516001600160a01b0383169082156108fc029083906000818181858888f19350505050158015610398573d6000803e3d6000fd5b600280548116158061080a57506000546001600160a01b031633145b61081357600080fd5b6108ae61081e6106a7565b6005805461082b90611eea565b80601f016020809104026020016040519081016040528092919081815260200182805461085790611eea565b80156108a45780601f10610879576101008083540402835291602001916108a4565b820191906000526020600020905b81548152906001019060200180831161088757829003601f168201915b5050505050611392565b6108f55760405162461bcd60e51b8152602060048201526018602482015277135a5cdb585d18da08199858dd1bdc9e481858d8dbdd5b9d60421b604482015260640161055e565b6109096001600160a01b03851683856113eb565b50505050565b6000546001600160a01b0316331461092657600080fd5b61092f8161141b565b6001546001600160a01b038281169116146109b25760405162461bcd60e51b815260206004820152603a60248201527f5468652070726f76696465642061646d696e206164647265737320646f65736e60448201527f2774206d6174636820746865206e6f6d696e61746564206f6e65000000000000606482015260840161055e565b5060018054600080546001600160a01b03199081166001600160a01b03841617909155169055565b6000546001600160a01b031633146109f157600080fd5b825491821816189055565b60036020819052600091825260409091208054600182015460028301549383015460048401805493956001600160a01b0393841695931693919291610a4090611eea565b80601f0160208091040260200160405190810160405280929190818152602001828054610a6c90611eea565b8015610ab95780601f10610a8e57610100808354040283529160200191610ab9565b820191906000526020600020905b815481529060010190602001808311610a9c57829003601f168201915b5050505050905085565b60606001806002541660001480610ae457506000546001600160a01b031633145b610aed57600080fd5b610b05610af86106a7565b6006805461082b90611eea565b610b515760405162461bcd60e51b815260206004820152601d60248201527f4d69736d61746368206175726f7261206173796e63206163636f756e74000000604482015260640161055e565b6000610b5e868686610452565b90506000610b76876001600160a01b0316601461150e565b610b7f836116aa565b604051602001610b90929190611f41565b60408051601f198184030181528282018252600e83526d037353030303030303030303030360941b6020848101919091529151909350610bd592600592859201611fb8565b60405160208183030381529060405293505050509392505050565b60006060610bff61081e6106a7565b610c465760405162461bcd60e51b8152602060048201526018602482015277135a5cdb585d18da08199858dd1bdc9e481858d8dbdd5b9d60421b604482015260640161055e565b60008381526003602052604090208054610ca25760405162461bcd60e51b815260206004820152601f60248201527f546865206c6f636b4576656e74496e646578206973206e6f7420657869737400604482015260640161055e565b60018101546001600160a01b03868116911614610cfa5760405162461bcd60e51b81526020600482015260166024820152754d69736d6174636820746f6b656e206164647265737360501b604482015260640161055e565b80600301549250806004018054610d1090611eea565b80601f0160208091040260200160405190810160405280929190818152602001828054610d3c90611eea565b8015610d895780601f10610d5e57610100808354040283529160200191610d89565b820191906000526020600020905b815481529060010190602001808311610d6c57829003601f168201915b505050600087815260036020819052604082208281556001810180546001600160a01b031990811690915560028201805490911690559081018290559395509150610dd990506004830182611a27565b5050846001600160a01b03167fee563d8e532abc293fca2fdeb41c25180305bddcf9206c167dab3e155aaf1713858585604051610e18939291906120b2565b60405180910390a2509250929050565b6000546001600160a01b03163314610e3f57600080fd5b600180546001600160a01b0319169055565b6000546060906001600160a01b03163314610e6b57600080fd5b600080846001600160a01b031684604051610e8691906120da565b600060405180830381855af49150503d8060008114610ec1576040519150601f19603f3d011682016040523d82523d6000602084013e610ec6565b606091505b509150915081610ed557600080fd5b949350505050565b6000546001600160a01b03163314610ef457600080fd5b9055565b6060806000836001600160a01b03166306fdde036040518163ffffffff1660e01b8152600401600060405180830381865afa158015610f3b573d6000803e3d6000fd5b505050506040513d6000823e601f3d908101601f19168201604052610f6391908101906120f6565b9250836001600160a01b03166395d89b416040518163ffffffff1660e01b8152600401600060405180830381865afa158015610fa3573d6000803e3d6000fd5b505050506040513d6000823e601f3d908101601f19168201604052610fcb91908101906120f6565b9150836001600160a01b031663313ce5676040518163ffffffff1660e01b8152600401602060405180830381865afa15801561100b573d6000803e3d6000fd5b505050506040513d601f19601f8201168201806040525081019061102f9190612164565b929491935050565b6000546001600160a01b0316331461104e57600080fd5b6110578161141b565b600180546001600160a01b0319166001600160a01b0392909216919091179055565b6006805461072090611eea565b6000546001600160a01b0316331461109d57600080fd5b6103986001600160a01b03841683836113eb565b6000546001600160a01b031633146110c857600080fd5b565b60006110d68284612187565b9392505050565b6040516001600160a01b03808516602483015283166044820152606481018290526109099085906323b872dd60e01b906084015b60408051601f198184030181529190526020810180516001600160e01b03166001600160e01b0319909316929092179091526117a8565b606060005b60208160ff161080156111825750825160ff8216602081106111715761117161219f565b1a60f81b6001600160f81b03191615155b806111db575060208160ff161015801561119f575060408160ff16105b80156111db5750602080840151906111b790836121b5565b60ff16602081106111ca576111ca61219f565b1a60f81b6001600160f81b03191615155b156111f257806111ea816121d8565b91505061114d565b60008160ff1667ffffffffffffffff81111561121057611210611a87565b6040519080825280601f01601f19166020018201604052801561123a576020820181803683370190505b50905060005b60208160ff161080156112755750845160ff8216602081106112645761126461219f565b1a60f81b6001600160f81b03191615155b156112d257845160ff8216602081106112905761129061219f565b1a60f81b828260ff16815181106112a9576112a961219f565b60200101906001600160f81b031916908160001a905350806112ca816121d8565b915050611240565b60208360ff16111561138a575060005b60208160ff1610801561131d575084600160200201518160ff166020811061130c5761130c61219f565b1a60f81b6001600160f81b03191615155b1561138a5784600160200201518160ff166020811061133e5761133e61219f565b1a60f81b8261134e8360206121f8565b60ff16815181106113615761136161219f565b60200101906001600160f81b031916908160001a90535080611382816121d8565b9150506112e2565b509392505050565b6000816040516020016113a591906120da565b60405160208183030381529060405280519060200120836040516020016113cc91906120da565b6040516020818303038152906040528051906020012014905092915050565b6040516001600160a01b03831660248201526044810182905261039890849063a9059cbb60e01b90606401611111565b6000546001600160a01b0316331461143257600080fd5b6000546001600160a01b03828116911614156114a35760405162461bcd60e51b815260206004820152602a60248201527f4e6f6d696e617465642061646d696e206973207468652073616d6520617320746044820152691a194818dd5c9c995b9d60b21b606482015260840161055e565b6001600160a01b03811661150b5760405162461bcd60e51b815260206004820152602960248201527f4e6f6d696e617465642061646d696e2073686f756c646e2774206265207a65726044820152686f206164647265737360b81b606482015260840161055e565b50565b6060600061151d83600261221d565b611528906002612187565b67ffffffffffffffff81111561154057611540611a87565b6040519080825280601f01601f19166020018201604052801561156a576020820181803683370190505b509050600360fc1b816000815181106115855761158561219f565b60200101906001600160f81b031916908160001a905350600f60fb1b816001815181106115b4576115b461219f565b60200101906001600160f81b031916908160001a90535060006115d884600261221d565b6115e3906001612187565b90505b600181111561165b576f181899199a1a9b1b9c1cb0b131b232b360811b85600f16601081106116175761161761219f565b1a60f81b82828151811061162d5761162d61219f565b60200101906001600160f81b031916908160001a90535060049490941c936116548161223c565b90506115e6565b5083156110d65760405162461bcd60e51b815260206004820181905260248201527f537472696e67733a20686578206c656e67746820696e73756666696369656e74604482015260640161055e565b6060816116ce5750506040805180820190915260018152600360fc1b602082015290565b8160005b81156116f857806116e281611ecf565b91506116f19050600a83612269565b91506116d2565b60008167ffffffffffffffff81111561171357611713611a87565b6040519080825280601f01601f19166020018201604052801561173d576020820181803683370190505b5090505b8415610ed557611752600183611e9f565b915061175f600a8661227d565b61176a906030612187565b60f81b81838151811061177f5761177f61219f565b60200101906001600160f81b031916908160001a9053506117a1600a86612269565b9450611741565b60006117fd826040518060400160405280602081526020017f5361666545524332303a206c6f772d6c6576656c2063616c6c206661696c6564815250856001600160a01b031661187a9092919063ffffffff16565b805190915015610398578080602001905181019061181b9190612291565b6103985760405162461bcd60e51b815260206004820152602a60248201527f5361666545524332303a204552433230206f7065726174696f6e20646964206e6044820152691bdd081cdd58d8d9595960b21b606482015260840161055e565b6060610ed5848460008585843b6118d35760405162461bcd60e51b815260206004820152601d60248201527f416464726573733a2063616c6c20746f206e6f6e2d636f6e7472616374000000604482015260640161055e565b600080866001600160a01b031685876040516118ef91906120da565b60006040518083038185875af1925050503d806000811461192c576040519150601f19603f3d011682016040523d82523d6000602084013e611931565b606091505b509150915061194182828661194c565b979650505050505050565b6060831561195b5750816110d6565b82511561196b5782518084602001fd5b8160405162461bcd60e51b815260040161055e9190611c12565b82805461199190611eea565b90600052602060002090601f0160209004810192826119b357600085556119f9565b82601f106119cc57805160ff19168380011785556119f9565b828001600101855582156119f9579182015b828111156119f95782518255916020019190600101906119de565b50611a05929150611a5d565b5090565b60405180604001604052806002906020820280368337509192915050565b508054611a3390611eea565b6000825580601f10611a43575050565b601f01602090049060005260206000209081019061150b91905b5b80821115611a055760008155600101611a5e565b6001600160a01b038116811461150b57600080fd5b634e487b7160e01b600052604160045260246000fd5b604051601f8201601f1916810167ffffffffffffffff81118282101715611ac657611ac6611a87565b604052919050565b600067ffffffffffffffff821115611ae857611ae8611a87565b50601f01601f191660200190565b6000611b09611b0484611ace565b611a9d565b9050828152838383011115611b1d57600080fd5b828260208301376000602084830101529392505050565b600080600060608486031215611b4957600080fd5b8335611b5481611a72565b925060208401359150604084013567ffffffffffffffff811115611b7757600080fd5b8401601f81018613611b8857600080fd5b611b9786823560208401611af6565b9150509250925092565b600060208284031215611bb357600080fd5b5035919050565b60005b83811015611bd5578181015183820152602001611bbd565b838111156109095750506000910152565b60008151808452611bfe816020860160208601611bba565b601f01601f19169290920160200192915050565b6020815260006110d66020830184611be6565b60008060408385031215611c3857600080fd5b8235611c4381611a72565b946020939093013593505050565b600080600060608486031215611c6657600080fd5b8335611c7181611a72565b9250602084013591506040840135611c8881611a72565b809150509250925092565b600060208284031215611ca557600080fd5b81356110d681611a72565b600080600060608486031215611cc557600080fd5b505081359360208301359350604090920135919050565b8581526001600160a01b038581166020830152841660408201526060810183905260a06080820181905260009061194190830184611be6565b828152604060208201526000610ed56040830184611be6565b600082601f830112611d3f57600080fd5b6110d683833560208501611af6565b60008060408385031215611d6157600080fd5b8235611d6c81611a72565b9150602083013567ffffffffffffffff811115611d8857600080fd5b611d9485828601611d2e565b9150509250929050565b60008060408385031215611db157600080fd5b50508035926020909101359150565b606081526000611dd36060830186611be6565b8281036020840152611de58186611be6565b91505060ff83166040830152949350505050565b600080600060608486031215611e0e57600080fd5b8335611e1981611a72565b925060208401359150604084013567ffffffffffffffff811115611e3c57600080fd5b611b9786828701611d2e565b600080600060608486031215611e5d57600080fd5b8335611e6881611a72565b92506020840135611e7881611a72565b929592945050506040919091013590565b634e487b7160e01b600052601160045260246000fd5b600082821015611eb157611eb1611e89565b500390565b600060208284031215611ec857600080fd5b5051919050565b6000600019821415611ee357611ee3611e89565b5060010190565b600181811c90821680611efe57607f821691505b60208210811415611f1f57634e487b7160e01b600052602260045260246000fd5b50919050565b60008151611f37818560208601611bba565b9290920192915050565b693d913a37b5b2b7111d1160b11b81528251600090611f6781600a850160208801611bba565b751116113637b1b5afb2bb32b73a2fb4b73232bc111d1160511b600a918401918201528351611f9d816020808501908801611bba565b61227d60f01b60209290910191820152602201949350505050565b68383937b6b4b9b2b99d60b91b8152600060096000865481600182811c915080831680611fe657607f831692505b602080841082141561200657634e487b7160e01b86526022600452602486fd5b81801561201a576001811461202f57612060565b60ff1986168a890152848a0188019650612060565b60008d81526020902060005b868110156120565781548c82018b015290850190830161203b565b505087858b010196505b5050505050506119416120ac6120996120a661209961208686602360f81b815260010190565b6619195c1bdcda5d60ca1b815260070190565b602360f81b815260010190565b89611f25565b86611f25565b8381528260208201526060604082015260006120d16060830184611be6565b95945050505050565b600082516120ec818460208701611bba565b9190910192915050565b60006020828403121561210857600080fd5b815167ffffffffffffffff81111561211f57600080fd5b8201601f8101841361213057600080fd5b805161213e611b0482611ace565b81815285602083850101111561215357600080fd5b6120d1826020830160208601611bba565b60006020828403121561217657600080fd5b815160ff811681146110d657600080fd5b6000821982111561219a5761219a611e89565b500190565b634e487b7160e01b600052603260045260246000fd5b600060ff821660ff8416808210156121cf576121cf611e89565b90039392505050565b600060ff821660ff8114156121ef576121ef611e89565b60010192915050565b600060ff821660ff84168060ff0382111561221557612215611e89565b019392505050565b600081600019048311821515161561223757612237611e89565b500290565b60008161224b5761224b611e89565b506000190190565b634e487b7160e01b600052601260045260246000fd5b60008261227857612278612253565b500490565b60008261228c5761228c612253565b500690565b6000602082840312156122a357600080fd5b815180151581146110d657600080fdfea26469706673582212207b4d1e19e5a6784fa874d11d91deafcc8a903ee7ec80afbb8a1c17014be1193464736f6c634300080b0033",
  "linkReferences": {},
  "deployedLinkReferences": {}
}