{
  "_format": "hh-sol-artifact-1",
  "contractName": "BridgeTokenProxy",
  "sourceName": "contracts/BridgeTokenProxy.sol",
  "abi": [
    {
      "inputs": [
        {
          "internalType": "address",
          "name": "_logic",
          "type": "address"
        },
        {
          "internalType": "bytes",
          "name": "_data",
          "type": "bytes"
        }
      ],
      "stateMutability": "nonpayable",
      "type": "constructor"
    },
    {
      "anonymous": false,
      "inputs": [
        {
          "indexed": false,
          "internalType": "address",
          "name": "previousAdmin",
          "type": "address"
        },
        {
          "indexed": false,
          "internalType": "address",
          "name": "newAdmin",
          "type": "address"
        }
      ],
      "name": "AdminChanged",
      "type": "event"
    },
    {
      "anonymous": false,
      "inputs": [
        {
          "indexed": true,
          "internalType": "address",
          "name": "beacon",
          "type": "address"
        }
      ],
      "name": "BeaconUpgraded",
      "type": "event"
    },
    {
      "anonymous": false,
      "inputs": [
        {
          "indexed": true,
          "internalType": "bytes32",
          "name": "role",
          "type": "bytes32"
        },
        {
          "indexed": true,
          "internalType": "bytes32",
          "name": "previousAdminRole",
          "type": "bytes32"
        },
        {
          "indexed": true,
          "internalType": "bytes32",
          "name": "newAdminRole",
          "type": "bytes32"
        }
      ],
      "name": "RoleAdminChanged",
      "type": "event"
    },
    {
      "anonymous": false,
      "inputs": [
        {
          "indexed": true,
          "internalType": "bytes32",
          "name": "role",
          "type": "bytes32"
        },
        {
          "indexed": true,
          "internalType": "address",
          "name": "account",
          "type": "address"
        },
        {
          "indexed": true,
          "internalType": "address",
          "name": "sender",
          "type": "address"
        }
      ],
      "name": "RoleGranted",
      "type": "event"
    },
    {
      "anonymous": false,
      "inputs": [
        {
          "indexed": true,
          "internalType": "bytes32",
          "name": "role",
          "type": "bytes32"
        },
        {
          "indexed": true,
          "internalType": "address",
          "name": "account",
          "type": "address"
        },
        {
          "indexed": true,
          "internalType": "address",
          "name": "sender",
          "type": "address"
        }
      ],
      "name": "RoleRevoked",
      "type": "event"
    },
    {
      "anonymous": false,
      "inputs": [
        {
          "indexed": true,
          "internalType": "address",
          "name": "implementation",
          "type": "address"
        }
      ],
      "name": "Upgraded",
      "type": "event"
    },
    {
      "stateMutability": "payable",
      "type": "fallback"
    },
    {
      "inputs": [],
      "name": "DEFAULT_ADMIN_ROLE",
      "outputs": [
        {
          "internalType": "bytes32",
          "name": "",
          "type": "bytes32"
        }
      ],
      "stateMutability": "view",
      "type": "function"
    },
    {
      "inputs": [
        {
          "internalType": "bytes32",
          "name": "role",
          "type": "bytes32"
        }
      ],
      "name": "getRoleAdmin",
      "outputs": [
        {
          "internalType": "bytes32",
          "name": "",
          "type": "bytes32"
        }
      ],
      "stateMutability": "view",
      "type": "function"
    },
    {
      "inputs": [
        {
          "internalType": "bytes32",
          "name": "role",
          "type": "bytes32"
        },
        {
          "internalType": "address",
          "name": "account",
          "type": "address"
        }
      ],
      "name": "grantRole",
      "outputs": [],
      "stateMutability": "nonpayable",
      "type": "function"
    },
    {
      "inputs": [
        {
          "internalType": "bytes32",
          "name": "role",
          "type": "bytes32"
        },
        {
          "internalType": "address",
          "name": "account",
          "type": "address"
        }
      ],
      "name": "hasRole",
      "outputs": [
        {
          "internalType": "bool",
          "name": "",
          "type": "bool"
        }
      ],
      "stateMutability": "view",
      "type": "function"
    },
    {
      "inputs": [
        {
          "internalType": "bytes32",
          "name": "role",
          "type": "bytes32"
        },
        {
          "internalType": "address",
          "name": "account",
          "type": "address"
        }
      ],
      "name": "renounceRole",
      "outputs": [],
      "stateMutability": "nonpayable",
      "type": "function"
    },
    {
      "inputs": [
        {
          "internalType": "bytes32",
          "name": "role",
          "type": "bytes32"
        },
        {
          "internalType": "address",
          "name": "account",
          "type": "address"
        }
      ],
      "name": "revokeRole",
      "outputs": [],
      "stateMutability": "nonpayable",
      "type": "function"
    },
    {
      "inputs": [
        {
          "internalType": "bytes4",
          "name": "interfaceId",
          "type": "bytes4"
        }
      ],
      "name": "supportsInterface",
      "outputs": [
        {
          "internalType": "bool",
          "name": "",
          "type": "bool"
        }
      ],
      "stateMutability": "view",
      "type": "function"
    },
    {
      "inputs": [
        {
          "internalType": "address",
          "name": "implementation",
          "type": "address"
        }
      ],
      "name": "upgradeTo",
      "outputs": [],
      "stateMutability": "nonpayable",
      "type": "function"
    },
    {
      "stateMutability": "payable",
      "type": "receive"
    }
  ],
  "bytecode": "0x60806040523480156200001157600080fd5b50604051620010a4380380620010a483398101604081905262000034916200040e565b818162000044828260006200005c565b5062000054905060003362000099565b50506200053c565b6200006783620000a9565b600082511180620000755750805b156200009457620000928383620000eb60201b620003161760201c565b505b505050565b620000a582826200011a565b5050565b620000b481620001ba565b6040516001600160a01b038216907fbc7cd75a20ee27fd9adebab32041f755214dbc6bffa90cc0225b39da2e5c2d3b90600090a250565b60606200011383836040518060600160405280602781526020016200107d6027913962000293565b9392505050565b6000828152602081815260408083206001600160a01b038516845290915290205460ff16620000a5576000828152602081815260408083206001600160a01b03851684529091529020805460ff19166001179055620001763390565b6001600160a01b0316816001600160a01b0316837f2f8788117e7eff1d82e926ec794901d17c78024a50270940304540a733656f0d60405160405180910390a45050565b620001d0816200037960201b620003421760201c565b620002385760405162461bcd60e51b815260206004820152602d60248201527f455243313936373a206e657720696d706c656d656e746174696f6e206973206e60448201526c1bdd08184818dbdb9d1c9858dd609a1b60648201526084015b60405180910390fd5b80620002727f360894a13ba1a3210667c828492db98dca3e2076cc3735a920a3ca505d382bbc60001b6200038860201b620003511760201c565b80546001600160a01b0319166001600160a01b039290921691909117905550565b60606001600160a01b0384163b620002fd5760405162461bcd60e51b815260206004820152602660248201527f416464726573733a2064656c65676174652063616c6c20746f206e6f6e2d636f6044820152651b9d1c9858dd60d21b60648201526084016200022f565b600080856001600160a01b0316856040516200031a9190620004e9565b600060405180830381855af49150503d806000811462000357576040519150601f19603f3d011682016040523d82523d6000602084013e6200035c565b606091505b5090925090506200036f8282866200038b565b9695505050505050565b6001600160a01b03163b151590565b90565b606083156200039c57508162000113565b825115620003ad5782518084602001fd5b8160405162461bcd60e51b81526004016200022f919062000507565b634e487b7160e01b600052604160045260246000fd5b60005b83811015620003fc578181015183820152602001620003e2565b83811115620000925750506000910152565b600080604083850312156200042257600080fd5b82516001600160a01b03811681146200043a57600080fd5b60208401519092506001600160401b03808211156200045857600080fd5b818501915085601f8301126200046d57600080fd5b815181811115620004825762000482620003c9565b604051601f8201601f19908116603f01168101908382118183101715620004ad57620004ad620003c9565b81604052828152886020848701011115620004c757600080fd5b620004da836020830160208801620003df565b80955050505050509250929050565b60008251620004fd818460208701620003df565b9190910192915050565b602081526000825180602084015262000528816040850160208701620003df565b601f01601f19169190910160400192915050565b610b31806200054c6000396000f3fe60806040526004361061007f5760003560e01c80633659cfe61161004e5780633659cfe61461014957806391d1485414610169578063a217fddf14610189578063d547741f1461019e5761008e565b806301ffc9a714610096578063248a9ca3146100cb5780632f2ff15d1461010957806336568abe146101295761008e565b3661008e5761008c6101be565b005b61008c6101be565b3480156100a257600080fd5b506100b66100b13660046108aa565b6101d0565b60405190151581526020015b60405180910390f35b3480156100d757600080fd5b506100fb6100e63660046108d4565b60009081526020819052604090206001015490565b6040519081526020016100c2565b34801561011557600080fd5b5061008c610124366004610909565b610207565b34801561013557600080fd5b5061008c610144366004610909565b610231565b34801561015557600080fd5b5061008c610164366004610935565b6102b4565b34801561017557600080fd5b506100b6610184366004610909565b6102c8565b34801561019557600080fd5b506100fb600081565b3480156101aa57600080fd5b5061008c6101b9366004610909565b6102f1565b6101ce6101c9610354565b61038c565b565b60006001600160e01b03198216637965db0b60e01b148061020157506301ffc9a760e01b6001600160e01b03198316145b92915050565b600082815260208190526040902060010154610222816103b0565b61022c83836103bd565b505050565b6001600160a01b03811633146102a65760405162461bcd60e51b815260206004820152602f60248201527f416363657373436f6e74726f6c3a2063616e206f6e6c792072656e6f756e636560448201526e103937b632b9903337b91039b2b63360891b60648201526084015b60405180910390fd5b6102b08282610441565b5050565b60006102bf816103b0565b6102b0826104a6565b6000918252602082815260408084206001600160a01b0393909316845291905290205460ff1690565b60008281526020819052604090206001015461030c816103b0565b61022c8383610441565b606061033b8383604051806060016040528060278152602001610ad5602791396104e6565b9392505050565b6001600160a01b03163b151590565b90565b60006103877f360894a13ba1a3210667c828492db98dca3e2076cc3735a920a3ca505d382bbc546001600160a01b031690565b905090565b3660008037600080366000845af43d6000803e8080156103ab573d6000f35b3d6000fd5b6103ba81336105c3565b50565b6103c782826102c8565b6102b0576000828152602081815260408083206001600160a01b03851684529091529020805460ff191660011790556103fd3390565b6001600160a01b0316816001600160a01b0316837f2f8788117e7eff1d82e926ec794901d17c78024a50270940304540a733656f0d60405160405180910390a45050565b61044b82826102c8565b156102b0576000828152602081815260408083206001600160a01b0385168085529252808320805460ff1916905551339285917ff6391f5c32d9c69d2a47ea670b442974b53935d1edc7fd64eb21e047a839171b9190a45050565b6104af81610627565b6040516001600160a01b038216907fbc7cd75a20ee27fd9adebab32041f755214dbc6bffa90cc0225b39da2e5c2d3b90600090a250565b60606001600160a01b0384163b61054e5760405162461bcd60e51b815260206004820152602660248201527f416464726573733a2064656c65676174652063616c6c20746f206e6f6e2d636f6044820152651b9d1c9858dd60d21b606482015260840161029d565b600080856001600160a01b0316856040516105699190610980565b600060405180830381855af49150503d80600081146105a4576040519150601f19603f3d011682016040523d82523d6000602084013e6105a9565b606091505b50915091506105b98282866106d5565b9695505050505050565b6105cd82826102c8565b6102b0576105e5816001600160a01b0316601461070e565b6105f083602061070e565b60405160200161060192919061099c565b60408051601f198184030181529082905262461bcd60e51b825261029d91600401610a11565b6001600160a01b0381163b6106945760405162461bcd60e51b815260206004820152602d60248201527f455243313936373a206e657720696d706c656d656e746174696f6e206973206e60448201526c1bdd08184818dbdb9d1c9858dd609a1b606482015260840161029d565b7f360894a13ba1a3210667c828492db98dca3e2076cc3735a920a3ca505d382bbc80546001600160a01b0319166001600160a01b0392909216919091179055565b606083156106e457508161033b565b8251156106f45782518084602001fd5b8160405162461bcd60e51b815260040161029d9190610a11565b6060600061071d836002610a5a565b610728906002610a79565b67ffffffffffffffff81111561074057610740610a91565b6040519080825280601f01601f19166020018201604052801561076a576020820181803683370190505b509050600360fc1b8160008151811061078557610785610aa7565b60200101906001600160f81b031916908160001a905350600f60fb1b816001815181106107b4576107b4610aa7565b60200101906001600160f81b031916908160001a90535060006107d8846002610a5a565b6107e3906001610a79565b90505b600181111561085b576f181899199a1a9b1b9c1cb0b131b232b360811b85600f166010811061081757610817610aa7565b1a60f81b82828151811061082d5761082d610aa7565b60200101906001600160f81b031916908160001a90535060049490941c9361085481610abd565b90506107e6565b50831561033b5760405162461bcd60e51b815260206004820181905260248201527f537472696e67733a20686578206c656e67746820696e73756666696369656e74604482015260640161029d565b6000602082840312156108bc57600080fd5b81356001600160e01b03198116811461033b57600080fd5b6000602082840312156108e657600080fd5b5035919050565b80356001600160a01b038116811461090457600080fd5b919050565b6000806040838503121561091c57600080fd5b8235915061092c602084016108ed565b90509250929050565b60006020828403121561094757600080fd5b61033b826108ed565b60005b8381101561096b578181015183820152602001610953565b8381111561097a576000848401525b50505050565b60008251610992818460208701610950565b9190910192915050565b7f416363657373436f6e74726f6c3a206163636f756e74200000000000000000008152600083516109d4816017850160208801610950565b7001034b99036b4b9b9b4b733903937b6329607d1b6017918401918201528351610a05816028840160208801610950565b01602801949350505050565b6020815260008251806020840152610a30816040850160208701610950565b601f01601f19169190910160400192915050565b634e487b7160e01b600052601160045260246000fd5b6000816000190483118215151615610a7457610a74610a44565b500290565b60008219821115610a8c57610a8c610a44565b500190565b634e487b7160e01b600052604160045260246000fd5b634e487b7160e01b600052603260045260246000fd5b600081610acc57610acc610a44565b50600019019056fe416464726573733a206c6f772d6c6576656c2064656c65676174652063616c6c206661696c6564a2646970667358221220a44ac419fc9dec94b03047d19fce8f13dcd0603ae1f891a2de7b914028470ee964736f6c634300080b0033416464726573733a206c6f772d6c6576656c2064656c65676174652063616c6c206661696c6564",
  "linkReferences": {},
  "deployedLinkReferences": {}
}