{
  "_format": "hh-sol-artifact-1",
  "contractName": "BridgeTokenFactory",
  "sourceName": "contracts/BridgeTokenFactory.sol",
  "abi": [
    {
      "anonymous": false,
      "inputs": [
        {
          "indexed": true,
          "internalType": "string",
          "name": "token",
          "type": "string"
        },
        {
          "indexed": false,
          "internalType": "uint256",
          "name": "amount",
          "type": "uint256"
        },
        {
          "indexed": false,
          "internalType": "address",
          "name": "recipient",
          "type": "address"
        }
      ],
      "name": "Deposit",
      "type": "event"
    },
    {
      "anonymous": false,
      "inputs": [
        {
          "indexed": false,
          "internalType": "uint8",
          "name": "version",
          "type": "uint8"
        }
      ],
      "name": "Initialized",
      "type": "event"
    },
    {
      "anonymous": false,
      "inputs": [
        {
          "indexed": false,
          "internalType": "address",
          "name": "account",
          "type": "address"
        },
        {
          "indexed": false,
          "internalType": "uint256",
          "name": "flags",
          "type": "uint256"
        }
      ],
      "name": "Paused",
      "type": "event"
    },
    {
      "anonymous": false,
      "inputs": [
        {
          "indexed": true,
          "internalType": "bytes32",
          "name": "role",
          "type": "bytes32"
        },
        {
          "indexed": true,
          "internalType": "bytes32",
          "name": "previousAdminRole",
          "type": "bytes32"
        },
        {
          "indexed": true,
          "internalType": "bytes32",
          "name": "newAdminRole",
          "type": "bytes32"
        }
      ],
      "name": "RoleAdminChanged",
      "type": "event"
    },
    {
      "anonymous": false,
      "inputs": [
        {
          "indexed": true,
          "internalType": "bytes32",
          "name": "role",
          "type": "bytes32"
        },
        {
          "indexed": true,
          "internalType": "address",
          "name": "account",
          "type": "address"
        },
        {
          "indexed": true,
          "internalType": "address",
          "name": "sender",
          "type": "address"
        }
      ],
      "name": "RoleGranted",
      "type": "event"
    },
    {
      "anonymous": false,
      "inputs": [
        {
          "indexed": true,
          "internalType": "bytes32",
          "name": "role",
          "type": "bytes32"
        },
        {
          "indexed": true,
          "internalType": "address",
          "name": "account",
          "type": "address"
        },
        {
          "indexed": true,
          "internalType": "address",
          "name": "sender",
          "type": "address"
        }
      ],
      "name": "RoleRevoked",
      "type": "event"
    },
    {
      "anonymous": false,
      "inputs": [
        {
          "indexed": true,
          "internalType": "address",
          "name": "token",
          "type": "address"
        },
        {
          "indexed": false,
          "internalType": "string",
          "name": "name",
          "type": "string"
        },
        {
          "indexed": false,
          "internalType": "string",
          "name": "symbol",
          "type": "string"
        },
        {
          "indexed": false,
          "internalType": "uint8",
          "name": "decimals",
          "type": "uint8"
        }
      ],
      "name": "SetMetadata",
      "type": "event"
    },
    {
      "anonymous": false,
      "inputs": [
        {
          "indexed": true,
          "internalType": "string",
          "name": "token",
          "type": "string"
        },
        {
          "indexed": true,
          "internalType": "address",
          "name": "sender",
          "type": "address"
        },
        {
          "indexed": false,
          "internalType": "uint256",
          "name": "amount",
          "type": "uint256"
        },
        {
          "indexed": false,
          "internalType": "string",
          "name": "recipient",
          "type": "string"
        }
      ],
      "name": "Withdraw",
      "type": "event"
    },
    {
      "inputs": [],
      "name": "ADMIN_PAUSE_ROLE",
      "outputs": [
        {
          "internalType": "bytes32",
          "name": "",
          "type": "bytes32"
        }
      ],
      "stateMutability": "view",
      "type": "function"
    },
    {
      "inputs": [],
      "name": "DEFAULT_ADMIN_ROLE",
      "outputs": [
        {
          "internalType": "bytes32",
          "name": "",
          "type": "bytes32"
        }
      ],
      "stateMutability": "view",
      "type": "function"
    },
    {
      "inputs": [],
      "name": "PAUSE_DEPOSIT_ROLE",
      "outputs": [
        {
          "internalType": "bytes32",
          "name": "",
          "type": "bytes32"
        }
      ],
      "stateMutability": "view",
      "type": "function"
    },
    {
      "inputs": [],
      "name": "PAUSE_SET_METADATA_ROLE",
      "outputs": [
        {
          "internalType": "bytes32",
          "name": "",
          "type": "bytes32"
        }
      ],
      "stateMutability": "view",
      "type": "function"
    },
    {
      "inputs": [],
      "name": "PAUSE_WITHDRAW_ROLE",
      "outputs": [
        {
          "internalType": "bytes32",
          "name": "",
          "type": "bytes32"
        }
      ],
      "stateMutability": "view",
      "type": "function"
    },
    {
      "inputs": [],
      "name": "WHITELIST_ADMIN_ROLE",
      "outputs": [
        {
          "internalType": "bytes32",
          "name": "",
          "type": "bytes32"
        }
      ],
      "stateMutability": "view",
      "type": "function"
    },
    {
      "inputs": [
        {
          "internalType": "string",
          "name": "token",
          "type": "string"
        },
        {
          "internalType": "address",
          "name": "account",
          "type": "address"
        }
      ],
      "name": "addAccountToWhitelist",
      "outputs": [],
      "stateMutability": "nonpayable",
      "type": "function"
    },
    {
      "inputs": [
        {
          "internalType": "bytes",
          "name": "proofData",
          "type": "bytes"
        },
        {
          "internalType": "uint64",
          "name": "proofBlockHeight",
          "type": "uint64"
        }
      ],
      "name": "deposit",
      "outputs": [],
      "stateMutability": "nonpayable",
      "type": "function"
    },
    {
      "inputs": [],
      "name": "disableWhitelistMode",
      "outputs": [],
      "stateMutability": "nonpayable",
      "type": "function"
    },
    {
      "inputs": [],
      "name": "enableWhitelistMode",
      "outputs": [],
      "stateMutability": "nonpayable",
      "type": "function"
    },
    {
      "inputs": [
        {
          "internalType": "address",
          "name": "token",
          "type": "address"
        }
      ],
      "name": "ethToNearToken",
      "outputs": [
        {
          "internalType": "string",
          "name": "",
          "type": "string"
        }
      ],
      "stateMutability": "view",
      "type": "function"
    },
    {
      "inputs": [
        {
          "internalType": "bytes32",
          "name": "role",
          "type": "bytes32"
        }
      ],
      "name": "getRoleAdmin",
      "outputs": [
        {
          "internalType": "bytes32",
          "name": "",
          "type": "bytes32"
        }
      ],
      "stateMutability": "view",
      "type": "function"
    },
    {
      "inputs": [
        {
          "internalType": "bytes32",
          "name": "role",
          "type": "bytes32"
        },
        {
          "internalType": "address",
          "name": "account",
          "type": "address"
        }
      ],
      "name": "grantRole",
      "outputs": [],
      "stateMutability": "nonpayable",
      "type": "function"
    },
    {
      "inputs": [
        {
          "internalType": "bytes32",
          "name": "role",
          "type": "bytes32"
        },
        {
          "internalType": "address",
          "name": "account",
          "type": "address"
        }
      ],
      "name": "hasRole",
      "outputs": [
        {
          "internalType": "bool",
          "name": "",
          "type": "bool"
        }
      ],
      "stateMutability": "view",
      "type": "function"
    },
    {
      "inputs": [
        {
          "internalType": "address",
          "name": "_proofConsumerAddress",
          "type": "address"
        }
      ],
      "name": "initialize",
      "outputs": [],
      "stateMutability": "nonpayable",
      "type": "function"
    },
    {
      "inputs": [
        {
          "internalType": "address",
          "name": "token",
          "type": "address"
        }
      ],
      "name": "isBridgeToken",
      "outputs": [
        {
          "internalType": "bool",
          "name": "",
          "type": "bool"
        }
      ],
      "stateMutability": "view",
      "type": "function"
    },
    {
      "inputs": [
        {
          "internalType": "string",
          "name": "nearTokenId",
          "type": "string"
        }
      ],
      "name": "nearToEthToken",
      "outputs": [
        {
          "internalType": "address",
          "name": "",
          "type": "address"
        }
      ],
      "stateMutability": "view",
      "type": "function"
    },
    {
      "inputs": [
        {
          "internalType": "string",
          "name": "nearTokenId",
          "type": "string"
        }
      ],
      "name": "newBridgeToken",
      "outputs": [
        {
          "internalType": "contract BridgeTokenProxy",
          "name": "",
          "type": "address"
        }
      ],
      "stateMutability": "nonpayable",
      "type": "function"
    },
    {
      "inputs": [
        {
          "internalType": "uint256",
          "name": "flags",
          "type": "uint256"
        }
      ],
      "name": "pause",
      "outputs": [],
      "stateMutability": "nonpayable",
      "type": "function"
    },
    {
      "inputs": [],
      "name": "pauseDeposit",
      "outputs": [],
      "stateMutability": "nonpayable",
      "type": "function"
    },
    {
      "inputs": [],
      "name": "pauseSetMetadata",
      "outputs": [],
      "stateMutability": "nonpayable",
      "type": "function"
    },
    {
      "inputs": [],
      "name": "pauseWithdraw",
      "outputs": [],
      "stateMutability": "nonpayable",
      "type": "function"
    },
    {
      "inputs": [
        {
          "internalType": "uint256",
          "name": "flag",
          "type": "uint256"
        }
      ],
      "name": "paused",
      "outputs": [
        {
          "internalType": "bool",
          "name": "",
          "type": "bool"
        }
      ],
      "stateMutability": "view",
      "type": "function"
    },
    {
      "inputs": [],
      "name": "pausedFlags",
      "outputs": [
        {
          "internalType": "uint256",
          "name": "",
          "type": "uint256"
        }
      ],
      "stateMutability": "view",
      "type": "function"
    },
    {
      "inputs": [],
      "name": "proofConsumerAddress",
      "outputs": [
        {
          "internalType": "address",
          "name": "",
          "type": "address"
        }
      ],
      "stateMutability": "view",
      "type": "function"
    },
    {
      "inputs": [
        {
          "internalType": "string",
          "name": "token",
          "type": "string"
        },
        {
          "internalType": "address",
          "name": "account",
          "type": "address"
        }
      ],
      "name": "removeAccountFromWhitelist",
      "outputs": [],
      "stateMutability": "nonpayable",
      "type": "function"
    },
    {
      "inputs": [
        {
          "internalType": "bytes32",
          "name": "role",
          "type": "bytes32"
        },
        {
          "internalType": "address",
          "name": "account",
          "type": "address"
        }
      ],
      "name": "renounceRole",
      "outputs": [],
      "stateMutability": "nonpayable",
      "type": "function"
    },
    {
      "inputs": [
        {
          "internalType": "bytes32",
          "name": "role",
          "type": "bytes32"
        },
        {
          "internalType": "address",
          "name": "account",
          "type": "address"
        }
      ],
      "name": "revokeRole",
      "outputs": [],
      "stateMutability": "nonpayable",
      "type": "function"
    },
    {
      "inputs": [
        {
          "internalType": "bytes",
          "name": "proofData",
          "type": "bytes"
        },
        {
          "internalType": "uint64",
          "name": "proofBlockHeight",
          "type": "uint64"
        }
      ],
      "name": "setMetadata",
      "outputs": [],
      "stateMutability": "nonpayable",
      "type": "function"
    },
    {
      "inputs": [
        {
          "internalType": "string",
          "name": "token",
          "type": "string"
        },
        {
          "internalType": "enum BridgeTokenFactory.WhitelistMode",
          "name": "mode",
          "type": "uint8"
        }
      ],
      "name": "setTokenWhitelistMode",
      "outputs": [],
      "stateMutability": "nonpayable",
      "type": "function"
    },
    {
      "inputs": [
        {
          "internalType": "bytes4",
          "name": "interfaceId",
          "type": "bytes4"
        }
      ],
      "name": "supportsInterface",
      "outputs": [
        {
          "internalType": "bool",
          "name": "",
          "type": "bool"
        }
      ],
      "stateMutability": "view",
      "type": "function"
    },
    {
      "inputs": [
        {
          "internalType": "string",
          "name": "nearTokenId",
          "type": "string"
        },
        {
          "internalType": "address",
          "name": "implementation",
          "type": "address"
        }
      ],
      "name": "upgradeToken",
      "outputs": [],
      "stateMutability": "nonpayable",
      "type": "function"
    },
    {
      "inputs": [
        {
          "internalType": "string",
          "name": "token",
          "type": "string"
        },
        {
          "internalType": "uint256",
          "name": "amount",
          "type": "uint256"
        },
        {
          "internalType": "string",
          "name": "recipient",
          "type": "string"
        }
      ],
      "name": "withdraw",
      "outputs": [],
      "stateMutability": "nonpayable",
      "type": "function"
    }
  ],
  "bytecode": "0x608060405234801561001057600080fd5b5061563b806100206000396000f3fe60806040523480156200001157600080fd5b5060043610620002245760003560e01c806369026e881162000131578063a217fddf11620000bb578063c82863b61162000086578063c82863b614620004e3578063c9a5e1b414620004fa578063d547741f1462000513578063e9008d5b146200052a578063fc03d42f146200055957600080fd5b8063a217fddf14620004a3578063bffa777d14620004ac578063c04ab89814620004b5578063c4d66de814620004cc57600080fd5b80638badb21911620000fc5780638badb219146200044357806391d14854146200044d5780639d79d15a1462000464578063a040f353146200048c57600080fd5b806369026e8814620003e357806378ae8ea214620003ed57806387395c311462000415578063889d76d8146200042c57600080fd5b80632f2ff15d11620001b357806354e5f22f116200017e57806354e5f22f14620003885780635c882f36146200039f5780636049634814620003cf5780636155e3de14620003d957600080fd5b80632f2ff15d146200032c5780632f79d791146200034357806336568abe146200035a57806354202c4e146200037157600080fd5b80631eabc88211620001f45780631eabc88214620002ae5780632414da0c14620002b8578063248a9ca314620002cf578063250e0dc5146200030457600080fd5b8062dde10e146200022957806301ffc9a7146200025857806311d15750146200026f578063136439dd1462000295575b600080fd5b620002436200023a366004620022ad565b60975416151590565b60405190151581526020015b60405180910390f35b6200024362000269366004620022c7565b62000581565b620002866200028036600462002310565b620005b9565b6040516200024f91906200238f565b620002ac620002a6366004620022ad565b620006b0565b005b620002ac620006eb565b620002ac620002c93660046200249b565b62000705565b620002f5620002e0366004620022ad565b60009081526065602052604090206001015490565b6040519081526020016200024f565b620002f57fac0c39a5c83dc0f0439e3faa066bf234104d51dfdc9693b11d7ad30f9652c45481565b620002ac6200033d36600462002507565b62000919565b620002ac6200035436600462002581565b62000947565b620002ac6200036b36600462002507565b62000a1d565b620002f5600080516020620055e683398151915281565b620002ac6200039936600462002581565b62000a9b565b620003b6620003b0366004620025da565b62000b94565b6040516001600160a01b0390911681526020016200024f565b620002ac62000d69565b620002ac62000d86565b620002ac62000dcc565b620002f57fb5c32c5338a4841f17325e04d19d70ce58ad8cd21338b36459d998d0c6d0bc3e81565b620002ac620004263660046200249b565b62000e08565b620002ac6200043d36600462002642565b620010ff565b620002ac62001254565b620002436200045e36600462002507565b62001290565b620002f57fd7098b6e6f71f0e52bfd14f103a5030aaebb02f06ba728cbd568c712c0a2e7e181565b620003b66200049d366004620025da565b620012bb565b620002f5600081565b609754620002f5565b620002ac620004c636600462002581565b62001355565b620002ac620004dd36600462002310565b620013c2565b620002ac620004f4366004620026b5565b62001654565b60ce54620003b69061010090046001600160a01b031681565b620002ac6200052436600462002507565b620016bb565b620002436200053b36600462002310565b6001600160a01b0316600090815260cb602052604090205460ff1690565b620002f57f85f49d3768442d7efa364f2f8ba56db92f2532340c2a999255efb62b980e73ba81565b60006001600160e01b03198216637965db0b60e01b1480620005b357506301ffc9a760e01b6001600160e01b03198316145b92915050565b6001600160a01b038116600090815260cb602052604090205460609060ff16620006005760405162461bcd60e51b8152600401620005f79062002714565b60405180910390fd5b6001600160a01b038216600090815260c9602052604090208054620006259062002742565b80601f0160208091040260200160405190810160405280929190818152602001828054620006539062002742565b8015620006a45780601f106200067857610100808354040283529160200191620006a4565b820191906000526020600020905b8154815290600101906020018083116200068657829003601f168201915b50505050509050919050565b7fd7098b6e6f71f0e52bfd14f103a5030aaebb02f06ba728cbd568c712c0a2e7e1620006dc81620016e4565b620006e782620016f0565b5050565b6000620006f881620016e4565b5060ce805460ff19169055565b6002620007128162001733565b60ce54604051632a4e4ced60e21b815260009161010090046001600160a01b03169063a93933b4906200074c90879087906004016200277f565b6000604051808303816000875af11580156200076c573d6000803e3d6000fd5b505050506040513d6000823e601f3d908101601f19168201604052620007969190810190620027bd565b90506000620007a982606001516200177a565b905060cb600060ca8360000151604051620007c59190620028ba565b9081526040805160209281900383019020546001600160a01b0316835290820192909252016000205460ff16620008105760405162461bcd60e51b8152600401620005f79062002714565b805160405160ca916200082391620028ba565b90815260408051602092819003830181205491840151928401516340c10f1960e01b82526001600160a01b0393841660048301526001600160801b031660248201529116906340c10f1990604401600060405180830381600087803b1580156200088c57600080fd5b505af1158015620008a1573d6000803e3d6000fd5b50508251604051620008b79350909150620028ba565b60408051918290038220602080850151858401516001600160801b0390911685526001600160a01b031690840152917fa036d8e9c7e5343f77a54f12ec24b0c4479b614f398f583cb116ace9c7925fda91015b60405180910390a25050505050565b6000828152606560205260409020600101546200093681620016e4565b62000942838362001876565b505050565b600080516020620055e68339815191526200096281620016e4565b600060cc858560405162000978929190620028ee565b9081526040519081900360200190205460ff1660038111156200099f576200099f620028d8565b1415620009c05760405162461bcd60e51b8152600401620005f790620028fe565b600160cd858585604051602001620009db9392919062002941565b60408051601f1981840301815290829052620009f791620028ba565b908152604051908190036020019020805491151560ff1990921691909117905550505050565b6001600160a01b038116331462000a8f5760405162461bcd60e51b815260206004820152602f60248201527f416363657373436f6e74726f6c3a2063616e206f6e6c792072656e6f756e636560448201526e103937b632b9903337b91039b2b63360891b6064820152608401620005f7565b620006e7828262001900565b600062000aa881620016e4565b60cb600060ca868660405162000ac0929190620028ee565b9081526040805160209281900383019020546001600160a01b0316835290820192909252016000205460ff1662000b0b5760405162461bcd60e51b8152600401620005f79062002714565b600060ca858560405162000b21929190620028ee565b90815260405190819003602001812054631b2ce7f360e11b82526001600160a01b0385811660048401521691508190633659cfe690602401600060405180830381600087803b15801562000b7457600080fd5b505af115801562000b89573d6000803e3d6000fd5b505050505050505050565b600060cb600060ca858560405162000bae929190620028ee565b9081526040805160209281900383019020546001600160a01b0316835290820192909252016000205460ff161562000c1b5760405162461bcd60e51b815260206004820152600f60248201526e11549497d513d2d15397d1561254d5608a1b6044820152606401620005f7565b600060405162000c2b90620021eb565b604051809103906000f08015801562000c48573d6000803e3d6000fd5b5060408051606060248201526000608482018190526080604483015260a4808301829052606483018290528351808403909101815260c490920183526020820180516001600160e01b0316630b127b6360e11b1790529151929350909183919062000cb390620021f9565b62000cc092919062002967565b604051809103906000f08015801562000cdd573d6000803e3d6000fd5b506001600160a01b038116600090815260cb60209081526040808320805460ff1916600117905560c9909152902090915062000d1b90868662002207565b508060ca868660405162000d31929190620028ee565b90815260405190819003602001902080546001600160a01b03929092166001600160a01b031990921691909117905591505092915050565b600062000d7681620016e4565b5060ce805460ff19166001179055565b7fb5c32c5338a4841f17325e04d19d70ce58ad8cd21338b36459d998d0c6d0bc3e62000db281620016e4565b62000dc9600162000dc260975490565b17620016f0565b50565b7fac0c39a5c83dc0f0439e3faa066bf234104d51dfdc9693b11d7ad30f9652c45462000df881620016e4565b62000dc9600262000dc260975490565b600462000e158162001733565b60ce54604051632a4e4ced60e21b815260009161010090046001600160a01b03169063a93933b49062000e4f90879087906004016200277f565b6000604051808303816000875af115801562000e6f573d6000803e3d6000fd5b505050506040513d6000823e601f3d908101601f1916820160405262000e999190810190620027bd565b9050600062000eac82606001516200196a565b905060cb600060ca836000015160405162000ec89190620028ba565b9081526040805160209281900383019020546001600160a01b0316835290820192909252016000205460ff1662000f135760405162461bcd60e51b8152600401620005f79062002714565b805160405160ca9162000f2691620028ba565b908152604080516020928190038301812054633cee4f5360e01b825291516001600160a01b0390921692633cee4f53926004808401938290030181865afa15801562000f76573d6000803e3d6000fd5b505050506040513d601f19601f8201168201806040525081019062000f9c919062002995565b6001600160401b031681608001516001600160401b0316101562000ff65760405162461bcd60e51b815260206004820152601060248201526f4552525f4f4c445f4d4554414441544160801b6044820152606401620005f7565b805160405160ca916200100991620028ba565b908152604080519182900360209081018320549084015191840151606085015160808601516363d3934160e11b86526001600160a01b039093169463c7a72682946200105c9490939291600401620029b5565b600060405180830381600087803b1580156200107757600080fd5b505af11580156200108c573d6000803e3d6000fd5b5050825160405160ca9350620010a39250620028ba565b90815260408051918290036020908101832054908401519184015160608501516001600160a01b03909216937f51fd1655ea77bd0129444f35a068f69b40c53d2bdf0e6e606a899aa34cdc41bc936200090a9390929162002a02565b60016200110c8162001733565b62001118843362001aa3565b60cb600060ca866040516200112e9190620028ba565b9081526040805160209281900383019020546001600160a01b0316835290820192909252016000205460ff16620011795760405162461bcd60e51b8152600401620005f79062002714565b60ca846040516200118b9190620028ba565b90815260405190819003602001812054632770a7eb60e21b8252336004830152602482018590526001600160a01b031690639dc29fac90604401600060405180830381600087803b158015620011e057600080fd5b505af1158015620011f5573d6000803e3d6000fd5b50506040513392506200120b91508690620028ba565b60405180910390207fbe0071d3ab0eb6dc7f33a38ba50120d775cd62fa123f3b59c193caf48e44bb4c85856040516200124692919062002a3f565b60405180910390a350505050565b7f85f49d3768442d7efa364f2f8ba56db92f2532340c2a999255efb62b980e73ba6200128081620016e4565b62000dc9600462000dc260975490565b60009182526065602090815260408084206001600160a01b0393909316845291905290205460ff1690565b600060cb600060ca8585604051620012d5929190620028ee565b9081526040805160209281900383019020546001600160a01b0316835290820192909252016000205460ff16620013205760405162461bcd60e51b8152600401620005f79062002714565b60ca838360405162001334929190620028ee565b908152604051908190036020019020546001600160a01b0316905092915050565b600080516020620055e68339815191526200137081620016e4565b60cd848484604051602001620013899392919062002941565b60408051601f1981840301815290829052620013a591620028ba565b908152604051908190036020019020805460ff1916905550505050565b600054610100900460ff1615808015620013e35750600054600160ff909116105b80620013ff5750303b158015620013ff575060005460ff166001145b620014645760405162461bcd60e51b815260206004820152602e60248201527f496e697469616c697a61626c653a20636f6e747261637420697320616c72656160448201526d191e481a5b9a5d1a585b1a5e995960921b6064820152608401620005f7565b6000805460ff19166001179055801562001488576000805461ff0019166101001790555b6001600160a01b038216620014f15760405162461bcd60e51b815260206004820152602860248201527f50726f6f6620636f6e73756d65722073686f756c646e2774206265207a65726f604482015267206164647265737360c01b6064820152608401620005f7565b60ce8054610100600160a81b0319166101006001600160a01b038516021790556200151b62001c2c565b6200152562001c58565b6200153260003362001c89565b6200155e7fd7098b6e6f71f0e52bfd14f103a5030aaebb02f06ba728cbd568c712c0a2e7e13362001c89565b6200158a7fac0c39a5c83dc0f0439e3faa066bf234104d51dfdc9693b11d7ad30f9652c4543362001c89565b620015b67fb5c32c5338a4841f17325e04d19d70ce58ad8cd21338b36459d998d0c6d0bc3e3362001c89565b620015e27f85f49d3768442d7efa364f2f8ba56db92f2532340c2a999255efb62b980e73ba3362001c89565b620015fd600080516020620055e68339815191523362001c89565b60ce805460ff191660011790558015620006e7576000805461ff0019169055604051600181527f7f26b83ff96e1f2b6a682f133852f6798a09c465da95921460cefb38474024989060200160405180910390a15050565b600080516020620055e68339815191526200166f81620016e4565b8160cc858560405162001684929190620028ee565b908152604051908190036020019020805460ff19166001836003811115620016b057620016b0620028d8565b021790555050505050565b600082815260656020526040902060010154620016d881620016e4565b62000942838362001900565b62000dc9813362001c95565b6097819055604080513381526020810183905281517fab40a374bc51de372200a8bc981af8c9ecdc08dfdaef0bb6e09f88f3c616ef3d929181900390910190a150565b60975481161562000dc95760405162461bcd60e51b815260206004820152601060248201526f14185d5cd8589b194e881c185d5cd95960821b6044820152606401620005f7565b6040805160608082018352815260006020820181905291810182905290620017a28362001d04565b90506000620017b18262001d36565b90507f0a9eb877458579dbce83ea57d556be50d1c3160bb5f1719fb172bd3300ac86238114620018245760405162461bcd60e51b815260206004820152601760248201527f4552525f494e56414c49445f4c4f434b5f5052454649580000000000000000006044820152606401620005f7565b6200182f8262001d45565b83526200183c8262001d8b565b6001600160801b031660208401526000620018578362001e3b565b606081901c604086015290506200186e8362001e4a565b505050919050565b62001882828262001290565b620006e75760008281526065602090815260408083206001600160a01b03851684529091529020805460ff19166001179055620018bc3390565b6001600160a01b0316816001600160a01b0316837f2f8788117e7eff1d82e926ec794901d17c78024a50270940304540a733656f0d60405160405180910390a45050565b6200190c828262001290565b15620006e75760008281526065602090815260408083206001600160a01b0385168085529252808320805460ff1916905551339285917ff6391f5c32d9c69d2a47ea670b442974b53935d1edc7fd64eb21e047a839171b9190a45050565b620019a96040518060a00160405280606081526020016060815260200160608152602001600060ff16815260200160006001600160401b031681525090565b6000620019b68362001d04565b90506000620019c58262001d36565b90507fb315d4d6e8f235f5fabb0b1a0f118507f6c8542fae8e1a9566abe60762047c16811462001a385760405162461bcd60e51b815260206004820152601b60248201527f4552525f494e56414c49445f4d455441444154415f50524546495800000000006044820152606401620005f7565b62001a438262001d45565b835262001a508262001d45565b602084015262001a608262001d45565b604084015262001a708262001ea0565b60ff16606084015262001a838262001eb8565b6001600160401b0316608084015262001a9c8262001e4a565b5050919050565b60ce5460ff1662001ab2575050565b600060cc8360405162001ac69190620028ba565b9081526040519081900360200190205460ff169050600081600381111562001af25762001af2620028d8565b141562001b135760405162461bcd60e51b8152600401620005f790620028fe565b600381600381111562001b2a5762001b2a620028d8565b141562001bc55760cd838360405160200162001b4892919062002a5a565b60408051601f198184030181529082905262001b6491620028ba565b9081526040519081900360200190205460ff16620009425760405162461bcd60e51b815260206004820152601c60248201527f4552525f4143434f554e545f4e4f545f494e5f57484954454c495354000000006044820152606401620005f7565b600181600381111562001bdc5762001bdc620028d8565b1415620009425760405162461bcd60e51b815260206004820152601b60248201527f4552525f57484954454c4953545f544f4b454e5f424c4f434b454400000000006044820152606401620005f7565b600054610100900460ff1662001c565760405162461bcd60e51b8152600401620005f79062002a93565b565b600054610100900460ff1662001c825760405162461bcd60e51b8152600401620005f79062002a93565b6000609755565b620006e7828262001876565b62001ca1828262001290565b620006e75762001cbc816001600160a01b0316601462001f30565b62001cc983602062001f30565b60405160200162001cdc92919062002ade565b60408051601f198184030181529082905262461bcd60e51b8252620005f7916004016200238f565b60408051808201909152600080825260208201526020820181528162001d28815190565b825101602083015250919050565b6000620005b3826020620020f0565b6060600062001d54836200210b565b63ffffffff16905062001d7181846200214490919063ffffffff16565b825162001d7f90826200219d565b83519091019092525090565b6000620005b362001d9e836010620020f0565b60801c6dff000000ff000000ff000000ff00600882811b9182166cff000000ff000000ff000000ff9390911c92831617601090811b6fff000000ff000000ff000000ff0000009092166eff000000ff000000ff000000ff00009093169290921790911c17602081811b6fffffffff00000000ffffffff00000000166bffffffff00000000ffffffff9290911c9190911617604081811b91901c1790565b6000620005b3826014620020f0565b602081015181511462000dc95760405162461bcd60e51b815260206004820152601960248201527f5061727365206572726f723a20454f49206578706563746564000000000000006044820152606401620005f7565b600062001eaf826001620020f0565b60f81c92915050565b6000620005b362001ecb836008620020f0565b66ff000000ff000060c882901c90811667ff000000ff00000060b89390931c92831617601090811c64ff000000ff9290921665ff000000ff00939093169290921790911b17602081811c63ffffffff1691901b6bffffffffffffffff00000000161790565b6060600062001f4183600262002b6d565b62001f4e90600262002b8f565b6001600160401b0381111562001f685762001f68620023a4565b6040519080825280601f01601f19166020018201604052801562001f93576020820181803683370190505b509050600360fc1b8160008151811062001fb15762001fb162002baa565b60200101906001600160f81b031916908160001a905350600f60fb1b8160018151811062001fe35762001fe362002baa565b60200101906001600160f81b031916908160001a90535060006200200984600262002b6d565b6200201690600162002b8f565b90505b600181111562002098576f181899199a1a9b1b9c1cb0b131b232b360811b85600f16601081106200204e576200204e62002baa565b1a60f81b82828151811062002067576200206762002baa565b60200101906001600160f81b031916908160001a90535060049490941c93620020908162002bc0565b905062002019565b508315620020e95760405162461bcd60e51b815260206004820181905260248201527f537472696e67733a20686578206c656e67746820696e73756666696369656e746044820152606401620005f7565b9392505050565b6000620020fe838362002144565b5081518051910190915290565b6000620005b36200211e836004620020f0565b60e881901c62ff00ff1663ff00ff0060d89290921c9190911617601081811c91901b1790565b6020820151825182011115620006e75760405162461bcd60e51b815260206004820152601b60248201527f5061727365206572726f723a20756e657870656374656420454f4900000000006044820152606401620005f7565b60608115620005b3576040519050601f19603f830116810180604052828252602082015b8451815260200181811415620021d757620021e3565b602085019450620021c1565b505092915050565b6119678062002bdb83390190565b6110a4806200454283390190565b828054620022159062002742565b90600052602060002090601f01602090048101928262002239576000855562002284565b82601f10620022545782800160ff1982351617855562002284565b8280016001018555821562002284579182015b828111156200228457823582559160200191906001019062002267565b506200229292915062002296565b5090565b5b8082111562002292576000815560010162002297565b600060208284031215620022c057600080fd5b5035919050565b600060208284031215620022da57600080fd5b81356001600160e01b031981168114620020e957600080fd5b80356001600160a01b03811681146200230b57600080fd5b919050565b6000602082840312156200232357600080fd5b620020e982620022f3565b60005b838110156200234b57818101518382015260200162002331565b838111156200235b576000848401525b50505050565b600081518084526200237b8160208601602086016200232e565b601f01601f19169290920160200192915050565b602081526000620020e9602083018462002361565b634e487b7160e01b600052604160045260246000fd5b60405160a081016001600160401b0381118282101715620023df57620023df620023a4565b60405290565b604051601f8201601f191681016001600160401b0381118282101715620024105762002410620023a4565b604052919050565b60006001600160401b03821115620024345762002434620023a4565b50601f01601f191660200190565b600062002459620024538462002418565b620023e5565b90508281528383830111156200246e57600080fd5b828260208301376000602084830101529392505050565b6001600160401b038116811462000dc957600080fd5b60008060408385031215620024af57600080fd5b82356001600160401b03811115620024c657600080fd5b8301601f81018513620024d857600080fd5b620024e98582356020840162002442565b9250506020830135620024fc8162002485565b809150509250929050565b600080604083850312156200251b57600080fd5b823591506200252d60208401620022f3565b90509250929050565b60008083601f8401126200254957600080fd5b5081356001600160401b038111156200256157600080fd5b6020830191508360208285010111156200257a57600080fd5b9250929050565b6000806000604084860312156200259757600080fd5b83356001600160401b03811115620025ae57600080fd5b620025bc8682870162002536565b9094509250620025d1905060208501620022f3565b90509250925092565b60008060208385031215620025ee57600080fd5b82356001600160401b038111156200260557600080fd5b620026138582860162002536565b90969095509350505050565b600082601f8301126200263157600080fd5b620020e98383356020850162002442565b6000806000606084860312156200265857600080fd5b83356001600160401b03808211156200267057600080fd5b6200267e878388016200261f565b94506020860135935060408601359150808211156200269c57600080fd5b50620026ab868287016200261f565b9150509250925092565b600080600060408486031215620026cb57600080fd5b83356001600160401b03811115620026e257600080fd5b620026f08682870162002536565b9094509250506020840135600481106200270957600080fd5b809150509250925092565b60208082526014908201527322a9292fa727aa2fa12924a223a2afaa27a5a2a760611b604082015260600190565b600181811c908216806200275757607f821691505b602082108114156200277957634e487b7160e01b600052602260045260246000fd5b50919050565b60408152600062002794604083018562002361565b90506001600160401b03831660208301529392505050565b805180151581146200230b57600080fd5b60006020808385031215620027d157600080fd5b82516001600160401b0380821115620027e957600080fd5b9084019060a08287031215620027fe57600080fd5b62002808620023ba565b825160ff811681146200281a57600080fd5b815262002829838501620027ac565b848201526200283b60408401620027ac565b60408201526060830151828111156200285357600080fd5b83019150601f820187136200286757600080fd5b815162002878620024538262002418565b81815288868386010111156200288d57600080fd5b6200289e828783018887016200232e565b6060830152506080928301519281019290925250949350505050565b60008251620028ce8184602087016200232e565b9190910192915050565b634e487b7160e01b600052602160045260246000fd5b8183823760009101908152919050565b60208082526023908201527f4552525f4e4f545f494e495449414c495a45445f57484954454c4953545f544f60408201526225a2a760e91b606082015260800190565b8284823760609190911b6bffffffffffffffffffffffff19169101908152601401919050565b6001600160a01b03831681526040602082018190526000906200298d9083018462002361565b949350505050565b600060208284031215620029a857600080fd5b8151620020e98162002485565b608081526000620029ca608083018762002361565b8281036020840152620029de818762002361565b91505060ff841660408301526001600160401b038316606083015295945050505050565b60608152600062002a17606083018662002361565b828103602084015262002a2b818662002361565b91505060ff83166040830152949350505050565b8281526040602082015260006200298d604083018462002361565b6000835162002a6e8184602088016200232e565b60609390931b6bffffffffffffffffffffffff19169190920190815260140192915050565b6020808252602b908201527f496e697469616c697a61626c653a20636f6e7472616374206973206e6f74206960408201526a6e697469616c697a696e6760a81b606082015260800190565b7f416363657373436f6e74726f6c3a206163636f756e742000000000000000000081526000835162002b188160178501602088016200232e565b7001034b99036b4b9b9b4b733903937b6329607d1b601791840191820152835162002b4b8160288401602088016200232e565b01602801949350505050565b634e487b7160e01b600052601160045260246000fd5b600081600019048311821515161562002b8a5762002b8a62002b57565b500290565b6000821982111562002ba55762002ba562002b57565b500190565b634e487b7160e01b600052603260045260246000fd5b60008162002bd25762002bd262002b57565b50600019019056fe608060405234801561001057600080fd5b50611947806100206000396000f3fe608060405234801561001057600080fd5b50600436106101a95760003560e01c80633f4ba83a116100f95780639dc29fac11610097578063a9059cbb11610071578063a9059cbb14610389578063c7a726821461039c578063d547741f146103af578063dd62ed3e146103c257600080fd5b80639dc29fac1461035b578063a217fddf1461036e578063a457c2d71461037657600080fd5b806370a08231116100d357806370a082311461030f5780638456cb591461033857806391d148541461034057806395d89b411461035357600080fd5b80633f4ba83a146102e957806340c10f19146102f15780635c975abb1461030457600080fd5b8063248a9ca31161016657806336568abe1161014057806336568abe14610283578063389ed2671461029657806339509351146102ab5780633cee4f53146102be57600080fd5b8063248a9ca3146102385780632f2ff15d1461025b578063313ce5671461026e57600080fd5b806301ffc9a7146101ae57806306fdde03146101d6578063095ea7b3146101eb5780631624f6c6146101fe57806318160ddd1461021357806323b872dd14610225575b600080fd5b6101c16101bc36600461141b565b6103d5565b60405190151581526020015b60405180910390f35b6101de61040c565b6040516101cd9190611471565b6101c16101f93660046114c0565b61049e565b61021161020c36600461159e565b6104b6565b005b6035545b6040519081526020016101cd565b6101c1610233366004611612565b610633565b61021761024636600461164e565b60009081526097602052604090206001015490565b610211610269366004611667565b610657565b60fd5460405160ff90911681526020016101cd565b610211610291366004611667565b610681565b6102176000805160206118f283398151915281565b6101c16102b93660046114c0565b6106ff565b60fd54610100900467ffffffffffffffff1660405167ffffffffffffffff90911681526020016101cd565b610211610721565b6102116102ff3660046114c0565b610744565b60c95460ff166101c1565b61021761031d366004611693565b6001600160a01b031660009081526033602052604090205490565b610211610761565b6101c161034e366004611667565b610781565b6101de6107ac565b6102116103693660046114c0565b6107bb565b610217600081565b6101c16103843660046114c0565b6107d8565b6101c16103973660046114c0565b610853565b6102116103aa3660046116ae565b610861565b6102116103bd366004611667565b6108d1565b6102176103d036600461173b565b6108f6565b60006001600160e01b03198216637965db0b60e01b148061040657506301ffc9a760e01b6001600160e01b03198316145b92915050565b606060fb805461041b90611765565b80601f016020809104026020016040519081016040528092919081815260200182805461044790611765565b80156104945780601f1061046957610100808354040283529160200191610494565b820191906000526020600020905b81548152906001019060200180831161047757829003601f168201915b5050505050905090565b6000336104ac818585610921565b5060019392505050565b600054610100900460ff16158080156104d65750600054600160ff909116105b806104f05750303b1580156104f0575060005460ff166001145b6105585760405162461bcd60e51b815260206004820152602e60248201527f496e697469616c697a61626c653a20636f6e747261637420697320616c72656160448201526d191e481a5b9a5d1a585b1a5e995960921b60648201526084015b60405180910390fd5b6000805460ff19166001179055801561057b576000805461ff0019166101001790555b6105858484610a45565b61058d610a76565b610598600033610a9f565b6105b06000805160206118f283398151915233610a9f565b83516105c39060fb906020870190611382565b5082516105d79060fc906020860190611382565b5060fd805460ff191660ff8416179055801561062d576000805461ff0019169055604051600181527f7f26b83ff96e1f2b6a682f133852f6798a09c465da95921460cefb38474024989060200160405180910390a15b50505050565b600033610641858285610aa9565b61064c858585610b1d565b506001949350505050565b60008281526097602052604090206001015461067281610ceb565b61067c8383610cf5565b505050565b6001600160a01b03811633146106f15760405162461bcd60e51b815260206004820152602f60248201527f416363657373436f6e74726f6c3a2063616e206f6e6c792072656e6f756e636560448201526e103937b632b9903337b91039b2b63360891b606482015260840161054f565b6106fb8282610d7b565b5050565b6000336104ac81858561071283836108f6565b61071c91906117b6565b610921565b6000805160206118f283398151915261073981610ceb565b610741610de2565b50565b600061074f81610ceb565b610757610e34565b61067c8383610e7a565b6000805160206118f283398151915261077981610ceb565b610741610f59565b60009182526097602090815260408084206001600160a01b0393909316845291905290205460ff1690565b606060fc805461041b90611765565b60006107c681610ceb565b6107ce610e34565b61067c8383610f96565b600033816107e682866108f6565b9050838110156108465760405162461bcd60e51b815260206004820152602560248201527f45524332303a2064656372656173656420616c6c6f77616e63652062656c6f77604482015264207a65726f60d81b606482015260840161054f565b61064c8286868403610921565b6000336104ac818585610b1d565b600061086c81610ceb565b60fd805468ffffffffffffffff00191661010067ffffffffffffffff85160217905584516108a19060fb906020880190611382565b5083516108b59060fc906020870190611382565b505060fd805460ff191660ff9390931692909217909155505050565b6000828152609760205260409020600101546108ec81610ceb565b61067c8383610d7b565b6001600160a01b03918216600090815260346020908152604080832093909416825291909152205490565b6001600160a01b0383166109835760405162461bcd60e51b8152602060048201526024808201527f45524332303a20617070726f76652066726f6d20746865207a65726f206164646044820152637265737360e01b606482015260840161054f565b6001600160a01b0382166109e45760405162461bcd60e51b815260206004820152602260248201527f45524332303a20617070726f766520746f20746865207a65726f206164647265604482015261737360f01b606482015260840161054f565b6001600160a01b0383811660008181526034602090815260408083209487168084529482529182902085905590518481527f8c5be1e5ebec7d5bd14f71427d1e84f3dd0314c0f7b2291e5b200ac8c7c3b925910160405180910390a3505050565b600054610100900460ff16610a6c5760405162461bcd60e51b815260040161054f906117ce565b6106fb82826110e4565b600054610100900460ff16610a9d5760405162461bcd60e51b815260040161054f906117ce565b565b6106fb8282610cf5565b6000610ab584846108f6565b9050600019811461062d5781811015610b105760405162461bcd60e51b815260206004820152601d60248201527f45524332303a20696e73756666696369656e7420616c6c6f77616e6365000000604482015260640161054f565b61062d8484848403610921565b6001600160a01b038316610b815760405162461bcd60e51b815260206004820152602560248201527f45524332303a207472616e736665722066726f6d20746865207a65726f206164604482015264647265737360d81b606482015260840161054f565b6001600160a01b038216610be35760405162461bcd60e51b815260206004820152602360248201527f45524332303a207472616e7366657220746f20746865207a65726f206164647260448201526265737360e81b606482015260840161054f565b6001600160a01b03831660009081526033602052604090205481811015610c5b5760405162461bcd60e51b815260206004820152602660248201527f45524332303a207472616e7366657220616d6f756e7420657863656564732062604482015265616c616e636560d01b606482015260840161054f565b6001600160a01b03808516600090815260336020526040808220858503905591851681529081208054849290610c929084906117b6565b92505081905550826001600160a01b0316846001600160a01b03167fddf252ad1be2c89b69c2b068fc378daa952ba7f163c4a11628f55a4df523b3ef84604051610cde91815260200190565b60405180910390a361062d565b6107418133611132565b610cff8282610781565b6106fb5760008281526097602090815260408083206001600160a01b03851684529091529020805460ff19166001179055610d373390565b6001600160a01b0316816001600160a01b0316837f2f8788117e7eff1d82e926ec794901d17c78024a50270940304540a733656f0d60405160405180910390a45050565b610d858282610781565b156106fb5760008281526097602090815260408083206001600160a01b0385168085529252808320805460ff1916905551339285917ff6391f5c32d9c69d2a47ea670b442974b53935d1edc7fd64eb21e047a839171b9190a45050565b610dea611196565b60c9805460ff191690557f5db9ee0a495bf2e6ff9c91a7834c1ba4fdd244a5e8aa4e537bd38aeae4b073aa335b6040516001600160a01b03909116815260200160405180910390a1565b60c95460ff1615610a9d5760405162461bcd60e51b815260206004820152601060248201526f14185d5cd8589b194e881c185d5cd95960821b604482015260640161054f565b6001600160a01b038216610ed05760405162461bcd60e51b815260206004820152601f60248201527f45524332303a206d696e7420746f20746865207a65726f206164647265737300604482015260640161054f565b8060356000828254610ee291906117b6565b90915550506001600160a01b03821660009081526033602052604081208054839290610f0f9084906117b6565b90915550506040518181526001600160a01b038316906000907fddf252ad1be2c89b69c2b068fc378daa952ba7f163c4a11628f55a4df523b3ef9060200160405180910390a35050565b610f61610e34565b60c9805460ff191660011790557f62e78cea01bee320cd4e420270b5ea74000d11b0c9f74754ebdbfc544b05a258610e173390565b6001600160a01b038216610ff65760405162461bcd60e51b815260206004820152602160248201527f45524332303a206275726e2066726f6d20746865207a65726f206164647265736044820152607360f81b606482015260840161054f565b6001600160a01b0382166000908152603360205260409020548181101561106a5760405162461bcd60e51b815260206004820152602260248201527f45524332303a206275726e20616d6f756e7420657863656564732062616c616e604482015261636560f01b606482015260840161054f565b6001600160a01b0383166000908152603360205260408120838303905560358054849290611099908490611819565b90915550506040518281526000906001600160a01b038516907fddf252ad1be2c89b69c2b068fc378daa952ba7f163c4a11628f55a4df523b3ef9060200160405180910390a3505050565b600054610100900460ff1661110b5760405162461bcd60e51b815260040161054f906117ce565b815161111e906036906020850190611382565b50805161067c906037906020840190611382565b61113c8282610781565b6106fb57611154816001600160a01b031660146111df565b61115f8360206111df565b604051602001611170929190611830565b60408051601f198184030181529082905262461bcd60e51b825261054f91600401611471565b60c95460ff16610a9d5760405162461bcd60e51b815260206004820152601460248201527314185d5cd8589b194e881b9bdd081c185d5cd95960621b604482015260640161054f565b606060006111ee8360026118a5565b6111f99060026117b6565b67ffffffffffffffff811115611211576112116114ea565b6040519080825280601f01601f19166020018201604052801561123b576020820181803683370190505b509050600360fc1b81600081518110611256576112566118c4565b60200101906001600160f81b031916908160001a905350600f60fb1b81600181518110611285576112856118c4565b60200101906001600160f81b031916908160001a90535060006112a98460026118a5565b6112b49060016117b6565b90505b600181111561132c576f181899199a1a9b1b9c1cb0b131b232b360811b85600f16601081106112e8576112e86118c4565b1a60f81b8282815181106112fe576112fe6118c4565b60200101906001600160f81b031916908160001a90535060049490941c93611325816118da565b90506112b7565b50831561137b5760405162461bcd60e51b815260206004820181905260248201527f537472696e67733a20686578206c656e67746820696e73756666696369656e74604482015260640161054f565b9392505050565b82805461138e90611765565b90600052602060002090601f0160209004810192826113b057600085556113f6565b82601f106113c957805160ff19168380011785556113f6565b828001600101855582156113f6579182015b828111156113f65782518255916020019190600101906113db565b50611402929150611406565b5090565b5b808211156114025760008155600101611407565b60006020828403121561142d57600080fd5b81356001600160e01b03198116811461137b57600080fd5b60005b83811015611460578181015183820152602001611448565b8381111561062d5750506000910152565b6020815260008251806020840152611490816040850160208701611445565b601f01601f19169190910160400192915050565b80356001600160a01b03811681146114bb57600080fd5b919050565b600080604083850312156114d357600080fd5b6114dc836114a4565b946020939093013593505050565b634e487b7160e01b600052604160045260246000fd5b600082601f83011261151157600080fd5b813567ffffffffffffffff8082111561152c5761152c6114ea565b604051601f8301601f19908116603f01168101908282118183101715611554576115546114ea565b8160405283815286602085880101111561156d57600080fd5b836020870160208301376000602085830101528094505050505092915050565b803560ff811681146114bb57600080fd5b6000806000606084860312156115b357600080fd5b833567ffffffffffffffff808211156115cb57600080fd5b6115d787838801611500565b945060208601359150808211156115ed57600080fd5b506115fa86828701611500565b9250506116096040850161158d565b90509250925092565b60008060006060848603121561162757600080fd5b611630846114a4565b925061163e602085016114a4565b9150604084013590509250925092565b60006020828403121561166057600080fd5b5035919050565b6000806040838503121561167a57600080fd5b8235915061168a602084016114a4565b90509250929050565b6000602082840312156116a557600080fd5b61137b826114a4565b600080600080608085870312156116c457600080fd5b843567ffffffffffffffff808211156116dc57600080fd5b6116e888838901611500565b955060208701359150808211156116fe57600080fd5b61170a88838901611500565b94506117186040880161158d565b935060608701359150808216821461172f57600080fd5b50939692955090935050565b6000806040838503121561174e57600080fd5b611757836114a4565b915061168a602084016114a4565b600181811c9082168061177957607f821691505b6020821081141561179a57634e487b7160e01b600052602260045260246000fd5b50919050565b634e487b7160e01b600052601160045260246000fd5b600082198211156117c9576117c96117a0565b500190565b6020808252602b908201527f496e697469616c697a61626c653a20636f6e7472616374206973206e6f74206960408201526a6e697469616c697a696e6760a81b606082015260800190565b60008282101561182b5761182b6117a0565b500390565b7f416363657373436f6e74726f6c3a206163636f756e7420000000000000000000815260008351611868816017850160208801611445565b7001034b99036b4b9b9b4b733903937b6329607d1b6017918401918201528351611899816028840160208801611445565b01602801949350505050565b60008160001904831182151516156118bf576118bf6117a0565b500290565b634e487b7160e01b600052603260045260246000fd5b6000816118e9576118e96117a0565b50600019019056fe139c2898040ef16910dc9f44dc697df79363da767d8bc92f2e310312b816e46da2646970667358221220721745b7c37080224a73bb2ef364641944eb9d3aab4a13ffb81d16116ac9f0e064736f6c634300080b003360806040523480156200001157600080fd5b50604051620010a4380380620010a483398101604081905262000034916200040e565b818162000044828260006200005c565b5062000054905060003362000099565b50506200053c565b6200006783620000a9565b600082511180620000755750805b156200009457620000928383620000eb60201b620003161760201c565b505b505050565b620000a582826200011a565b5050565b620000b481620001ba565b6040516001600160a01b038216907fbc7cd75a20ee27fd9adebab32041f755214dbc6bffa90cc0225b39da2e5c2d3b90600090a250565b60606200011383836040518060600160405280602781526020016200107d6027913962000293565b9392505050565b6000828152602081815260408083206001600160a01b038516845290915290205460ff16620000a5576000828152602081815260408083206001600160a01b03851684529091529020805460ff19166001179055620001763390565b6001600160a01b0316816001600160a01b0316837f2f8788117e7eff1d82e926ec794901d17c78024a50270940304540a733656f0d60405160405180910390a45050565b620001d0816200037960201b620003421760201c565b620002385760405162461bcd60e51b815260206004820152602d60248201527f455243313936373a206e657720696d706c656d656e746174696f6e206973206e60448201526c1bdd08184818dbdb9d1c9858dd609a1b60648201526084015b60405180910390fd5b80620002727f360894a13ba1a3210667c828492db98dca3e2076cc3735a920a3ca505d382bbc60001b6200038860201b620003511760201c565b80546001600160a01b0319166001600160a01b039290921691909117905550565b60606001600160a01b0384163b620002fd5760405162461bcd60e51b815260206004820152602660248201527f416464726573733a2064656c65676174652063616c6c20746f206e6f6e2d636f6044820152651b9d1c9858dd60d21b60648201526084016200022f565b600080856001600160a01b0316856040516200031a9190620004e9565b600060405180830381855af49150503d806000811462000357576040519150601f19603f3d011682016040523d82523d6000602084013e6200035c565b606091505b5090925090506200036f8282866200038b565b9695505050505050565b6001600160a01b03163b151590565b90565b606083156200039c57508162000113565b825115620003ad5782518084602001fd5b8160405162461bcd60e51b81526004016200022f919062000507565b634e487b7160e01b600052604160045260246000fd5b60005b83811015620003fc578181015183820152602001620003e2565b83811115620000925750506000910152565b600080604083850312156200042257600080fd5b82516001600160a01b03811681146200043a57600080fd5b60208401519092506001600160401b03808211156200045857600080fd5b818501915085601f8301126200046d57600080fd5b815181811115620004825762000482620003c9565b604051601f8201601f19908116603f01168101908382118183101715620004ad57620004ad620003c9565b81604052828152886020848701011115620004c757600080fd5b620004da836020830160208801620003df565b80955050505050509250929050565b60008251620004fd818460208701620003df565b9190910192915050565b602081526000825180602084015262000528816040850160208701620003df565b601f01601f19169190910160400192915050565b610b31806200054c6000396000f3fe60806040526004361061007f5760003560e01c80633659cfe61161004e5780633659cfe61461014957806391d1485414610169578063a217fddf14610189578063d547741f1461019e5761008e565b806301ffc9a714610096578063248a9ca3146100cb5780632f2ff15d1461010957806336568abe146101295761008e565b3661008e5761008c6101be565b005b61008c6101be565b3480156100a257600080fd5b506100b66100b13660046108aa565b6101d0565b60405190151581526020015b60405180910390f35b3480156100d757600080fd5b506100fb6100e63660046108d4565b60009081526020819052604090206001015490565b6040519081526020016100c2565b34801561011557600080fd5b5061008c610124366004610909565b610207565b34801561013557600080fd5b5061008c610144366004610909565b610231565b34801561015557600080fd5b5061008c610164366004610935565b6102b4565b34801561017557600080fd5b506100b6610184366004610909565b6102c8565b34801561019557600080fd5b506100fb600081565b3480156101aa57600080fd5b5061008c6101b9366004610909565b6102f1565b6101ce6101c9610354565b61038c565b565b60006001600160e01b03198216637965db0b60e01b148061020157506301ffc9a760e01b6001600160e01b03198316145b92915050565b600082815260208190526040902060010154610222816103b0565b61022c83836103bd565b505050565b6001600160a01b03811633146102a65760405162461bcd60e51b815260206004820152602f60248201527f416363657373436f6e74726f6c3a2063616e206f6e6c792072656e6f756e636560448201526e103937b632b9903337b91039b2b63360891b60648201526084015b60405180910390fd5b6102b08282610441565b5050565b60006102bf816103b0565b6102b0826104a6565b6000918252602082815260408084206001600160a01b0393909316845291905290205460ff1690565b60008281526020819052604090206001015461030c816103b0565b61022c8383610441565b606061033b8383604051806060016040528060278152602001610ad5602791396104e6565b9392505050565b6001600160a01b03163b151590565b90565b60006103877f360894a13ba1a3210667c828492db98dca3e2076cc3735a920a3ca505d382bbc546001600160a01b031690565b905090565b3660008037600080366000845af43d6000803e8080156103ab573d6000f35b3d6000fd5b6103ba81336105c3565b50565b6103c782826102c8565b6102b0576000828152602081815260408083206001600160a01b03851684529091529020805460ff191660011790556103fd3390565b6001600160a01b0316816001600160a01b0316837f2f8788117e7eff1d82e926ec794901d17c78024a50270940304540a733656f0d60405160405180910390a45050565b61044b82826102c8565b156102b0576000828152602081815260408083206001600160a01b0385168085529252808320805460ff1916905551339285917ff6391f5c32d9c69d2a47ea670b442974b53935d1edc7fd64eb21e047a839171b9190a45050565b6104af81610627565b6040516001600160a01b038216907fbc7cd75a20ee27fd9adebab32041f755214dbc6bffa90cc0225b39da2e5c2d3b90600090a250565b60606001600160a01b0384163b61054e5760405162461bcd60e51b815260206004820152602660248201527f416464726573733a2064656c65676174652063616c6c20746f206e6f6e2d636f6044820152651b9d1c9858dd60d21b606482015260840161029d565b600080856001600160a01b0316856040516105699190610980565b600060405180830381855af49150503d80600081146105a4576040519150601f19603f3d011682016040523d82523d6000602084013e6105a9565b606091505b50915091506105b98282866106d5565b9695505050505050565b6105cd82826102c8565b6102b0576105e5816001600160a01b0316601461070e565b6105f083602061070e565b60405160200161060192919061099c565b60408051601f198184030181529082905262461bcd60e51b825261029d91600401610a11565b6001600160a01b0381163b6106945760405162461bcd60e51b815260206004820152602d60248201527f455243313936373a206e657720696d706c656d656e746174696f6e206973206e60448201526c1bdd08184818dbdb9d1c9858dd609a1b606482015260840161029d565b7f360894a13ba1a3210667c828492db98dca3e2076cc3735a920a3ca505d382bbc80546001600160a01b0319166001600160a01b0392909216919091179055565b606083156106e457508161033b565b8251156106f45782518084602001fd5b8160405162461bcd60e51b815260040161029d9190610a11565b6060600061071d836002610a5a565b610728906002610a79565b67ffffffffffffffff81111561074057610740610a91565b6040519080825280601f01601f19166020018201604052801561076a576020820181803683370190505b509050600360fc1b8160008151811061078557610785610aa7565b60200101906001600160f81b031916908160001a905350600f60fb1b816001815181106107b4576107b4610aa7565b60200101906001600160f81b031916908160001a90535060006107d8846002610a5a565b6107e3906001610a79565b90505b600181111561085b576f181899199a1a9b1b9c1cb0b131b232b360811b85600f166010811061081757610817610aa7565b1a60f81b82828151811061082d5761082d610aa7565b60200101906001600160f81b031916908160001a90535060049490941c9361085481610abd565b90506107e6565b50831561033b5760405162461bcd60e51b815260206004820181905260248201527f537472696e67733a20686578206c656e67746820696e73756666696369656e74604482015260640161029d565b6000602082840312156108bc57600080fd5b81356001600160e01b03198116811461033b57600080fd5b6000602082840312156108e657600080fd5b5035919050565b80356001600160a01b038116811461090457600080fd5b919050565b6000806040838503121561091c57600080fd5b8235915061092c602084016108ed565b90509250929050565b60006020828403121561094757600080fd5b61033b826108ed565b60005b8381101561096b578181015183820152602001610953565b8381111561097a576000848401525b50505050565b60008251610992818460208701610950565b9190910192915050565b7f416363657373436f6e74726f6c3a206163636f756e74200000000000000000008152600083516109d4816017850160208801610950565b7001034b99036b4b9b9b4b733903937b6329607d1b6017918401918201528351610a05816028840160208801610950565b01602801949350505050565b6020815260008251806020840152610a30816040850160208701610950565b601f01601f19169190910160400192915050565b634e487b7160e01b600052601160045260246000fd5b6000816000190483118215151615610a7457610a74610a44565b500290565b60008219821115610a8c57610a8c610a44565b500190565b634e487b7160e01b600052604160045260246000fd5b634e487b7160e01b600052603260045260246000fd5b600081610acc57610acc610a44565b50600019019056fe416464726573733a206c6f772d6c6576656c2064656c65676174652063616c6c206661696c6564a26469706673582212202f8f6e96477d406096b07826c7f2ce07fd9b864631e5ce3cd188dcbba8b9664764736f6c634300080b0033416464726573733a206c6f772d6c6576656c2064656c65676174652063616c6c206661696c656428f5a99355973cc89255b8c4ac88405f27c78ded7608b040ee77a8bdf44d15e2a264697066735822122043ee769a648f70266a173fa05ff471603a478d7ea0f56496805a1823f0c7585864736f6c634300080b0033",
  "linkReferences": {},
  "deployedLinkReferences": {}
}