{
  "_format": "hh-sol-artifact-1",
  "contractName": "BridgeTokenFactory",
  "sourceName": "contracts/BridgeTokenFactory.sol",
  "abi": [
    {
      "anonymous": false,
      "inputs": [
        {
          "indexed": true,
          "internalType": "string",
          "name": "token",
          "type": "string"
        },
        {
          "indexed": false,
          "internalType": "uint256",
          "name": "amount",
          "type": "uint256"
        },
        {
          "indexed": false,
          "internalType": "address",
          "name": "recipient",
          "type": "address"
        }
      ],
      "name": "Deposit",
      "type": "event"
    },
    {
      "anonymous": false,
      "inputs": [
        {
          "indexed": false,
          "internalType": "uint8",
          "name": "version",
          "type": "uint8"
        }
      ],
      "name": "Initialized",
      "type": "event"
    },
    {
      "anonymous": false,
      "inputs": [
        {
          "indexed": false,
          "internalType": "address",
          "name": "account",
          "type": "address"
        }
      ],
      "name": "Paused",
      "type": "event"
    },
    {
      "anonymous": false,
      "inputs": [
        {
          "indexed": true,
          "internalType": "bytes32",
          "name": "role",
          "type": "bytes32"
        },
        {
          "indexed": true,
          "internalType": "bytes32",
          "name": "previousAdminRole",
          "type": "bytes32"
        },
        {
          "indexed": true,
          "internalType": "bytes32",
          "name": "newAdminRole",
          "type": "bytes32"
        }
      ],
      "name": "RoleAdminChanged",
      "type": "event"
    },
    {
      "anonymous": false,
      "inputs": [
        {
          "indexed": true,
          "internalType": "bytes32",
          "name": "role",
          "type": "bytes32"
        },
        {
          "indexed": true,
          "internalType": "address",
          "name": "account",
          "type": "address"
        },
        {
          "indexed": true,
          "internalType": "address",
          "name": "sender",
          "type": "address"
        }
      ],
      "name": "RoleGranted",
      "type": "event"
    },
    {
      "anonymous": false,
      "inputs": [
        {
          "indexed": true,
          "internalType": "bytes32",
          "name": "role",
          "type": "bytes32"
        },
        {
          "indexed": true,
          "internalType": "address",
          "name": "account",
          "type": "address"
        },
        {
          "indexed": true,
          "internalType": "address",
          "name": "sender",
          "type": "address"
        }
      ],
      "name": "RoleRevoked",
      "type": "event"
    },
    {
      "anonymous": false,
      "inputs": [
        {
          "indexed": true,
          "internalType": "address",
          "name": "token",
          "type": "address"
        },
        {
          "indexed": false,
          "internalType": "string",
          "name": "name",
          "type": "string"
        },
        {
          "indexed": false,
          "internalType": "string",
          "name": "symbol",
          "type": "string"
        },
        {
          "indexed": false,
          "internalType": "uint8",
          "name": "decimals",
          "type": "uint8"
        }
      ],
      "name": "SetMetadata",
      "type": "event"
    },
    {
      "anonymous": false,
      "inputs": [
        {
          "indexed": false,
          "internalType": "address",
          "name": "account",
          "type": "address"
        }
      ],
      "name": "Unpaused",
      "type": "event"
    },
    {
      "anonymous": false,
      "inputs": [
        {
          "indexed": true,
          "internalType": "string",
          "name": "token",
          "type": "string"
        },
        {
          "indexed": true,
          "internalType": "address",
          "name": "sender",
          "type": "address"
        },
        {
          "indexed": false,
          "internalType": "uint256",
          "name": "amount",
          "type": "uint256"
        },
        {
          "indexed": false,
          "internalType": "string",
          "name": "recipient",
          "type": "string"
        }
      ],
      "name": "Withdraw",
      "type": "event"
    },
    {
      "inputs": [],
      "name": "DEFAULT_ADMIN_ROLE",
      "outputs": [
        {
          "internalType": "bytes32",
          "name": "",
          "type": "bytes32"
        }
      ],
      "stateMutability": "view",
      "type": "function"
    },
    {
      "inputs": [],
      "name": "PAUSE_ROLE",
      "outputs": [
        {
          "internalType": "bytes32",
          "name": "",
          "type": "bytes32"
        }
      ],
      "stateMutability": "view",
      "type": "function"
    },
    {
      "inputs": [],
      "name": "WHITELIST_ADMIN_ROLE",
      "outputs": [
        {
          "internalType": "bytes32",
          "name": "",
          "type": "bytes32"
        }
      ],
      "stateMutability": "view",
      "type": "function"
    },
    {
      "inputs": [
        {
          "internalType": "string",
          "name": "token",
          "type": "string"
        },
        {
          "internalType": "address",
          "name": "account",
          "type": "address"
        }
      ],
      "name": "addAccountToWhitelist",
      "outputs": [],
      "stateMutability": "nonpayable",
      "type": "function"
    },
    {
      "inputs": [
        {
          "internalType": "bytes",
          "name": "proofData",
          "type": "bytes"
        },
        {
          "internalType": "uint64",
          "name": "proofBlockHeight",
          "type": "uint64"
        }
      ],
      "name": "deposit",
      "outputs": [],
      "stateMutability": "nonpayable",
      "type": "function"
    },
    {
      "inputs": [],
      "name": "disableWhitelistMode",
      "outputs": [],
      "stateMutability": "nonpayable",
      "type": "function"
    },
    {
      "inputs": [],
      "name": "enableWhitelistMode",
      "outputs": [],
      "stateMutability": "nonpayable",
      "type": "function"
    },
    {
      "inputs": [
        {
          "internalType": "address",
          "name": "token",
          "type": "address"
        }
      ],
      "name": "ethToNearToken",
      "outputs": [
        {
          "internalType": "string",
          "name": "",
          "type": "string"
        }
      ],
      "stateMutability": "view",
      "type": "function"
    },
    {
      "inputs": [
        {
          "internalType": "bytes32",
          "name": "role",
          "type": "bytes32"
        }
      ],
      "name": "getRoleAdmin",
      "outputs": [
        {
          "internalType": "bytes32",
          "name": "",
          "type": "bytes32"
        }
      ],
      "stateMutability": "view",
      "type": "function"
    },
    {
      "inputs": [
        {
          "internalType": "bytes32",
          "name": "role",
          "type": "bytes32"
        },
        {
          "internalType": "address",
          "name": "account",
          "type": "address"
        }
      ],
      "name": "grantRole",
      "outputs": [],
      "stateMutability": "nonpayable",
      "type": "function"
    },
    {
      "inputs": [
        {
          "internalType": "bytes32",
          "name": "role",
          "type": "bytes32"
        },
        {
          "internalType": "address",
          "name": "account",
          "type": "address"
        }
      ],
      "name": "hasRole",
      "outputs": [
        {
          "internalType": "bool",
          "name": "",
          "type": "bool"
        }
      ],
      "stateMutability": "view",
      "type": "function"
    },
    {
      "inputs": [
        {
          "internalType": "address",
          "name": "_proofConsumerAddress",
          "type": "address"
        }
      ],
      "name": "initialize",
      "outputs": [],
      "stateMutability": "nonpayable",
      "type": "function"
    },
    {
      "inputs": [
        {
          "internalType": "address",
          "name": "token",
          "type": "address"
        }
      ],
      "name": "isBridgeToken",
      "outputs": [
        {
          "internalType": "bool",
          "name": "",
          "type": "bool"
        }
      ],
      "stateMutability": "view",
      "type": "function"
    },
    {
      "inputs": [
        {
          "internalType": "string",
          "name": "nearTokenId",
          "type": "string"
        }
      ],
      "name": "nearToEthToken",
      "outputs": [
        {
          "internalType": "address",
          "name": "",
          "type": "address"
        }
      ],
      "stateMutability": "view",
      "type": "function"
    },
    {
      "inputs": [
        {
          "internalType": "string",
          "name": "nearTokenId",
          "type": "string"
        }
      ],
      "name": "newBridgeToken",
      "outputs": [
        {
          "internalType": "contract BridgeTokenProxy",
          "name": "",
          "type": "address"
        }
      ],
      "stateMutability": "nonpayable",
      "type": "function"
    },
    {
      "inputs": [],
      "name": "pause",
      "outputs": [],
      "stateMutability": "nonpayable",
      "type": "function"
    },
    {
      "inputs": [],
      "name": "paused",
      "outputs": [
        {
          "internalType": "bool",
          "name": "",
          "type": "bool"
        }
      ],
      "stateMutability": "view",
      "type": "function"
    },
    {
      "inputs": [],
      "name": "proofConsumerAddress",
      "outputs": [
        {
          "internalType": "address",
          "name": "",
          "type": "address"
        }
      ],
      "stateMutability": "view",
      "type": "function"
    },
    {
      "inputs": [
        {
          "internalType": "string",
          "name": "token",
          "type": "string"
        },
        {
          "internalType": "address",
          "name": "account",
          "type": "address"
        }
      ],
      "name": "removeAccountFromWhitelist",
      "outputs": [],
      "stateMutability": "nonpayable",
      "type": "function"
    },
    {
      "inputs": [
        {
          "internalType": "bytes32",
          "name": "role",
          "type": "bytes32"
        },
        {
          "internalType": "address",
          "name": "account",
          "type": "address"
        }
      ],
      "name": "renounceRole",
      "outputs": [],
      "stateMutability": "nonpayable",
      "type": "function"
    },
    {
      "inputs": [
        {
          "internalType": "bytes32",
          "name": "role",
          "type": "bytes32"
        },
        {
          "internalType": "address",
          "name": "account",
          "type": "address"
        }
      ],
      "name": "revokeRole",
      "outputs": [],
      "stateMutability": "nonpayable",
      "type": "function"
    },
    {
      "inputs": [
        {
          "internalType": "bytes",
          "name": "proofData",
          "type": "bytes"
        },
        {
          "internalType": "uint64",
          "name": "proofBlockHeight",
          "type": "uint64"
        }
      ],
      "name": "setMetadata",
      "outputs": [],
      "stateMutability": "nonpayable",
      "type": "function"
    },
    {
      "inputs": [
        {
          "internalType": "string",
          "name": "token",
          "type": "string"
        },
        {
          "internalType": "enum BridgeTokenFactory.WhitelistMode",
          "name": "mode",
          "type": "uint8"
        }
      ],
      "name": "setTokenWhitelistMode",
      "outputs": [],
      "stateMutability": "nonpayable",
      "type": "function"
    },
    {
      "inputs": [
        {
          "internalType": "bytes4",
          "name": "interfaceId",
          "type": "bytes4"
        }
      ],
      "name": "supportsInterface",
      "outputs": [
        {
          "internalType": "bool",
          "name": "",
          "type": "bool"
        }
      ],
      "stateMutability": "view",
      "type": "function"
    },
    {
      "inputs": [],
      "name": "unpause",
      "outputs": [],
      "stateMutability": "nonpayable",
      "type": "function"
    },
    {
      "inputs": [
        {
          "internalType": "string",
          "name": "nearTokenId",
          "type": "string"
        },
        {
          "internalType": "address",
          "name": "implementation",
          "type": "address"
        }
      ],
      "name": "upgradeToken",
      "outputs": [],
      "stateMutability": "nonpayable",
      "type": "function"
    },
    {
      "inputs": [
        {
          "internalType": "string",
          "name": "token",
          "type": "string"
        },
        {
          "internalType": "uint256",
          "name": "amount",
          "type": "uint256"
        },
        {
          "internalType": "string",
          "name": "recipient",
          "type": "string"
        }
      ],
      "name": "withdraw",
      "outputs": [],
      "stateMutability": "nonpayable",
      "type": "function"
    }
  ],
  "bytecode": "0x608060405234801561001057600080fd5b5061549c806100206000396000f3fe60806040523480156200001157600080fd5b5060043610620001cc5760003560e01c80635c975abb116200010d578063a217fddf11620000a3578063c82863b6116200007a578063c82863b614620003f2578063c9a5e1b41462000409578063d547741f1462000422578063e9008d5b146200043957600080fd5b8063a217fddf14620003bb578063c04ab89814620003c4578063c4d66de814620003db57600080fd5b806387395c3111620000e457806387395c31146200035f578063889d76d8146200037657806391d14854146200038d578063a040f35314620003a457600080fd5b80635c975abb146200033f57806360496348146200034b5780638456cb59146200035557600080fd5b80632f79d79111620001835780633f4ba83a116200015a5780633f4ba83a14620002d757806354202c4e14620002e157806354e5f22f14620002f85780635c882f36146200030f57600080fd5b80632f79d791146200029257806336568abe14620002a9578063389ed26714620002c057600080fd5b806301ffc9a714620001d157806311d1575014620001fd5780631eabc88214620002235780632414da0c146200022f578063248a9ca314620002465780632f2ff15d146200027b575b600080fd5b620001e8620001e2366004620020ee565b62000468565b60405190151581526020015b60405180910390f35b620002146200020e36600462002137565b620004a0565b604051620001f49190620021b6565b6200022d62000597565b005b6200022d62000240366004620022c2565b620005b1565b6200026c620002573660046200232e565b60009081526065602052604090206001015490565b604051908152602001620001f4565b6200022d6200028c36600462002348565b620007c1565b6200022d620002a3366004620023c2565b620007ef565b6200022d620002ba36600462002348565b620008c5565b6200026c6000805160206200542783398151915281565b6200022d62000947565b6200026c6000805160206200544783398151915281565b6200022d62000309366004620023c2565b6200096f565b62000326620003203660046200241b565b62000a68565b6040516001600160a01b039091168152602001620001f4565b60975460ff16620001e8565b6200022d62000c3d565b6200022d62000c5a565b6200022d62000370366004620022c2565b62000c7f565b6200022d6200038736600462002483565b62000f73565b620001e86200039e36600462002348565b620010c4565b62000326620003b53660046200241b565b620010ef565b6200026c600081565b6200022d620003d5366004620023c2565b62001189565b6200022d620003ec36600462002137565b620011f6565b6200022d62000403366004620024f6565b620013f3565b60ce54620003269061010090046001600160a01b031681565b6200022d6200043336600462002348565b6200145a565b620001e86200044a36600462002137565b6001600160a01b0316600090815260cb602052604090205460ff1690565b60006001600160e01b03198216637965db0b60e01b14806200049a57506301ffc9a760e01b6001600160e01b03198316145b92915050565b6001600160a01b038116600090815260cb602052604090205460609060ff16620004e75760405162461bcd60e51b8152600401620004de9062002555565b60405180910390fd5b6001600160a01b038216600090815260c96020526040902080546200050c9062002583565b80601f01602080910402602001604051908101604052809291908181526020018280546200053a9062002583565b80156200058b5780601f106200055f576101008083540402835291602001916200058b565b820191906000526020600020905b8154815290600101906020018083116200056d57829003601f168201915b50505050509050919050565b6000620005a48162001483565b5060ce805460ff19169055565b620005bb6200148f565b60ce54604051632a4e4ced60e21b815260009161010090046001600160a01b03169063a93933b490620005f59086908690600401620025c0565b6000604051808303816000875af115801562000615573d6000803e3d6000fd5b505050506040513d6000823e601f3d908101601f191682016040526200063f9190810190620025fe565b90506000620006528260600151620014d9565b905060cb600060ca83600001516040516200066e9190620026fb565b9081526040805160209281900383019020546001600160a01b0316835290820192909252016000205460ff16620006b95760405162461bcd60e51b8152600401620004de9062002555565b805160405160ca91620006cc91620026fb565b90815260408051602092819003830181205491840151928401516340c10f1960e01b82526001600160a01b0393841660048301526001600160801b031660248201529116906340c10f1990604401600060405180830381600087803b1580156200073557600080fd5b505af11580156200074a573d6000803e3d6000fd5b50508251604051620007609350909150620026fb565b60408051918290038220602080850151858401516001600160801b0390911685526001600160a01b031690840152917fa036d8e9c7e5343f77a54f12ec24b0c4479b614f398f583cb116ace9c7925fda91015b60405180910390a250505050565b600082815260656020526040902060010154620007de8162001483565b620007ea8383620015d5565b505050565b600080516020620054478339815191526200080a8162001483565b600060cc8585604051620008209291906200272f565b9081526040519081900360200190205460ff16600381111562000847576200084762002719565b1415620008685760405162461bcd60e51b8152600401620004de906200273f565b600160cd858585604051602001620008839392919062002782565b60408051601f19818403018152908290526200089f91620026fb565b908152604051908190036020019020805491151560ff1990921691909117905550505050565b6001600160a01b0381163314620009375760405162461bcd60e51b815260206004820152602f60248201527f416363657373436f6e74726f6c3a2063616e206f6e6c792072656e6f756e636560448201526e103937b632b9903337b91039b2b63360891b6064820152608401620004de565b6200094382826200165f565b5050565b60008051602062005427833981519152620009628162001483565b6200096c620016c9565b50565b60006200097c8162001483565b60cb600060ca8686604051620009949291906200272f565b9081526040805160209281900383019020546001600160a01b0316835290820192909252016000205460ff16620009df5760405162461bcd60e51b8152600401620004de9062002555565b600060ca8585604051620009f59291906200272f565b90815260405190819003602001812054631b2ce7f360e11b82526001600160a01b0385811660048401521691508190633659cfe690602401600060405180830381600087803b15801562000a4857600080fd5b505af115801562000a5d573d6000803e3d6000fd5b505050505050505050565b600060cb600060ca858560405162000a829291906200272f565b9081526040805160209281900383019020546001600160a01b0316835290820192909252016000205460ff161562000aef5760405162461bcd60e51b815260206004820152600f60248201526e11549497d513d2d15397d1561254d5608a1b6044820152606401620004de565b600060405162000aff906200202c565b604051809103906000f08015801562000b1c573d6000803e3d6000fd5b5060408051606060248201526000608482018190526080604483015260a4808301829052606483018290528351808403909101815260c490920183526020820180516001600160e01b0316630b127b6360e11b1790529151929350909183919062000b87906200203a565b62000b94929190620027a8565b604051809103906000f08015801562000bb1573d6000803e3d6000fd5b506001600160a01b038116600090815260cb60209081526040808320805460ff1916600117905560c9909152902090915062000bef90868662002048565b508060ca868660405162000c059291906200272f565b90815260405190819003602001902080546001600160a01b03929092166001600160a01b031990921691909117905591505092915050565b600062000c4a8162001483565b5060ce805460ff19166001179055565b6000805160206200542783398151915262000c758162001483565b6200096c6200171d565b62000c896200148f565b60ce54604051632a4e4ced60e21b815260009161010090046001600160a01b03169063a93933b49062000cc39086908690600401620025c0565b6000604051808303816000875af115801562000ce3573d6000803e3d6000fd5b505050506040513d6000823e601f3d908101601f1916820160405262000d0d9190810190620025fe565b9050600062000d2082606001516200175d565b905060cb600060ca836000015160405162000d3c9190620026fb565b9081526040805160209281900383019020546001600160a01b0316835290820192909252016000205460ff1662000d875760405162461bcd60e51b8152600401620004de9062002555565b805160405160ca9162000d9a91620026fb565b908152604080516020928190038301812054633cee4f5360e01b825291516001600160a01b0390921692633cee4f53926004808401938290030181865afa15801562000dea573d6000803e3d6000fd5b505050506040513d601f19601f8201168201806040525081019062000e109190620027d6565b6001600160401b031681608001516001600160401b0316101562000e6a5760405162461bcd60e51b815260206004820152601060248201526f4552525f4f4c445f4d4554414441544160801b6044820152606401620004de565b805160405160ca9162000e7d91620026fb565b908152604080519182900360209081018320549084015191840151606085015160808601516363d3934160e11b86526001600160a01b039093169463c7a726829462000ed09490939291600401620027f6565b600060405180830381600087803b15801562000eeb57600080fd5b505af115801562000f00573d6000803e3d6000fd5b5050825160405160ca935062000f179250620026fb565b90815260408051918290036020908101832054908401519184015160608501516001600160a01b03909216937f51fd1655ea77bd0129444f35a068f69b40c53d2bdf0e6e606a899aa34cdc41bc93620007b39390929162002843565b62000f7d6200148f565b62000f89833362001896565b60cb600060ca8560405162000f9f9190620026fb565b9081526040805160209281900383019020546001600160a01b0316835290820192909252016000205460ff1662000fea5760405162461bcd60e51b8152600401620004de9062002555565b60ca8360405162000ffc9190620026fb565b90815260405190819003602001812054632770a7eb60e21b8252336004830152602482018490526001600160a01b031690639dc29fac90604401600060405180830381600087803b1580156200105157600080fd5b505af115801562001066573d6000803e3d6000fd5b50506040513392506200107c91508590620026fb565b60405180910390207fbe0071d3ab0eb6dc7f33a38ba50120d775cd62fa123f3b59c193caf48e44bb4c8484604051620010b792919062002880565b60405180910390a3505050565b60009182526065602090815260408084206001600160a01b0393909316845291905290205460ff1690565b600060cb600060ca8585604051620011099291906200272f565b9081526040805160209281900383019020546001600160a01b0316835290820192909252016000205460ff16620011545760405162461bcd60e51b8152600401620004de9062002555565b60ca8383604051620011689291906200272f565b908152604051908190036020019020546001600160a01b0316905092915050565b60008051602062005447833981519152620011a48162001483565b60cd848484604051602001620011bd9392919062002782565b60408051601f1981840301815290829052620011d991620026fb565b908152604051908190036020019020805460ff1916905550505050565b600054610100900460ff1615808015620012175750600054600160ff909116105b80620012335750303b15801562001233575060005460ff166001145b620012985760405162461bcd60e51b815260206004820152602e60248201527f496e697469616c697a61626c653a20636f6e747261637420697320616c72656160448201526d191e481a5b9a5d1a585b1a5e995960921b6064820152608401620004de565b6000805460ff191660011790558015620012bc576000805461ff0019166101001790555b6001600160a01b038216620013255760405162461bcd60e51b815260206004820152602860248201527f50726f6f6620636f6e73756d65722073686f756c646e2774206265207a65726f604482015267206164647265737360c01b6064820152608401620004de565b60ce8054610100600160a81b0319166101006001600160a01b038516021790556200134f62001a1f565b6200135962001a49565b6200136660003362001a7f565b62001381600080516020620054278339815191523362001a7f565b6200139c600080516020620054478339815191523362001a7f565b60ce805460ff19166001179055801562000943576000805461ff0019169055604051600181527f7f26b83ff96e1f2b6a682f133852f6798a09c465da95921460cefb38474024989060200160405180910390a15050565b600080516020620054478339815191526200140e8162001483565b8160cc8585604051620014239291906200272f565b908152604051908190036020019020805460ff191660018360038111156200144f576200144f62002719565b021790555050505050565b600082815260656020526040902060010154620014778162001483565b620007ea83836200165f565b6200096c813362001a8b565b60975460ff1615620014d75760405162461bcd60e51b815260206004820152601060248201526f14185d5cd8589b194e881c185d5cd95960821b6044820152606401620004de565b565b6040805160608082018352815260006020820181905291810182905290620015018362001afa565b90506000620015108262001b2c565b90507f0a9eb877458579dbce83ea57d556be50d1c3160bb5f1719fb172bd3300ac86238114620015835760405162461bcd60e51b815260206004820152601760248201527f4552525f494e56414c49445f4c4f434b5f5052454649580000000000000000006044820152606401620004de565b6200158e8262001b3b565b83526200159b8262001b81565b6001600160801b031660208401526000620015b68362001c31565b606081901c60408601529050620015cd8362001c40565b505050919050565b620015e18282620010c4565b620009435760008281526065602090815260408083206001600160a01b03851684529091529020805460ff191660011790556200161b3390565b6001600160a01b0316816001600160a01b0316837f2f8788117e7eff1d82e926ec794901d17c78024a50270940304540a733656f0d60405160405180910390a45050565b6200166b8282620010c4565b15620009435760008281526065602090815260408083206001600160a01b0385168085529252808320805460ff1916905551339285917ff6391f5c32d9c69d2a47ea670b442974b53935d1edc7fd64eb21e047a839171b9190a45050565b620016d362001c96565b6097805460ff191690557f5db9ee0a495bf2e6ff9c91a7834c1ba4fdd244a5e8aa4e537bd38aeae4b073aa335b6040516001600160a01b03909116815260200160405180910390a1565b620017276200148f565b6097805460ff191660011790557f62e78cea01bee320cd4e420270b5ea74000d11b0c9f74754ebdbfc544b05a258620017003390565b6200179c6040518060a00160405280606081526020016060815260200160608152602001600060ff16815260200160006001600160401b031681525090565b6000620017a98362001afa565b90506000620017b88262001b2c565b90507fb315d4d6e8f235f5fabb0b1a0f118507f6c8542fae8e1a9566abe60762047c1681146200182b5760405162461bcd60e51b815260206004820152601b60248201527f4552525f494e56414c49445f4d455441444154415f50524546495800000000006044820152606401620004de565b620018368262001b3b565b8352620018438262001b3b565b6020840152620018538262001b3b565b6040840152620018638262001ce1565b60ff166060840152620018768262001cf9565b6001600160401b031660808401526200188f8262001c40565b5050919050565b60ce5460ff16620018a5575050565b600060cc83604051620018b99190620026fb565b9081526040519081900360200190205460ff1690506000816003811115620018e557620018e562002719565b1415620019065760405162461bcd60e51b8152600401620004de906200273f565b60038160038111156200191d576200191d62002719565b1415620019b85760cd83836040516020016200193b9291906200289b565b60408051601f19818403018152908290526200195791620026fb565b9081526040519081900360200190205460ff16620007ea5760405162461bcd60e51b815260206004820152601c60248201527f4552525f4143434f554e545f4e4f545f494e5f57484954454c495354000000006044820152606401620004de565b6001816003811115620019cf57620019cf62002719565b1415620007ea5760405162461bcd60e51b815260206004820152601b60248201527f4552525f57484954454c4953545f544f4b454e5f424c4f434b454400000000006044820152606401620004de565b600054610100900460ff16620014d75760405162461bcd60e51b8152600401620004de90620028d4565b600054610100900460ff1662001a735760405162461bcd60e51b8152600401620004de90620028d4565b6097805460ff19169055565b620009438282620015d5565b62001a978282620010c4565b620009435762001ab2816001600160a01b0316601462001d71565b62001abf83602062001d71565b60405160200162001ad29291906200291f565b60408051601f198184030181529082905262461bcd60e51b8252620004de91600401620021b6565b60408051808201909152600080825260208201526020820181528162001b1e815190565b825101602083015250919050565b60006200049a82602062001f31565b6060600062001b4a8362001f4c565b63ffffffff16905062001b67818462001f8590919063ffffffff16565b825162001b75908262001fde565b83519091019092525090565b60006200049a62001b9483601062001f31565b60801c6dff000000ff000000ff000000ff00600882811b9182166cff000000ff000000ff000000ff9390911c92831617601090811b6fff000000ff000000ff000000ff0000009092166eff000000ff000000ff000000ff00009093169290921790911c17602081811b6fffffffff00000000ffffffff00000000166bffffffff00000000ffffffff9290911c9190911617604081811b91901c1790565b60006200049a82601462001f31565b60208101518151146200096c5760405162461bcd60e51b815260206004820152601960248201527f5061727365206572726f723a20454f49206578706563746564000000000000006044820152606401620004de565b60975460ff16620014d75760405162461bcd60e51b815260206004820152601460248201527314185d5cd8589b194e881b9bdd081c185d5cd95960621b6044820152606401620004de565b600062001cf082600162001f31565b60f81c92915050565b60006200049a62001d0c83600862001f31565b66ff000000ff000060c882901c90811667ff000000ff00000060b89390931c92831617601090811c64ff000000ff9290921665ff000000ff00939093169290921790911b17602081811c63ffffffff1691901b6bffffffffffffffff00000000161790565b6060600062001d82836002620029ae565b62001d8f906002620029d0565b6001600160401b0381111562001da95762001da9620021cb565b6040519080825280601f01601f19166020018201604052801562001dd4576020820181803683370190505b509050600360fc1b8160008151811062001df25762001df2620029eb565b60200101906001600160f81b031916908160001a905350600f60fb1b8160018151811062001e245762001e24620029eb565b60200101906001600160f81b031916908160001a905350600062001e4a846002620029ae565b62001e57906001620029d0565b90505b600181111562001ed9576f181899199a1a9b1b9c1cb0b131b232b360811b85600f166010811062001e8f5762001e8f620029eb565b1a60f81b82828151811062001ea85762001ea8620029eb565b60200101906001600160f81b031916908160001a90535060049490941c9362001ed18162002a01565b905062001e5a565b50831562001f2a5760405162461bcd60e51b815260206004820181905260248201527f537472696e67733a20686578206c656e67746820696e73756666696369656e746044820152606401620004de565b9392505050565b600062001f3f838362001f85565b5081518051910190915290565b60006200049a62001f5f83600462001f31565b60e881901c62ff00ff1663ff00ff0060d89290921c9190911617601081811c91901b1790565b6020820151825182011115620009435760405162461bcd60e51b815260206004820152601b60248201527f5061727365206572726f723a20756e657870656374656420454f4900000000006044820152606401620004de565b606081156200049a576040519050601f19603f830116810180604052828252602082015b8451815260200181811415620020185762002024565b60208501945062002002565b505092915050565b6119678062002a1c83390190565b6110a4806200438383390190565b828054620020569062002583565b90600052602060002090601f0160209004810192826200207a5760008555620020c5565b82601f10620020955782800160ff19823516178555620020c5565b82800160010185558215620020c5579182015b82811115620020c5578235825591602001919060010190620020a8565b50620020d3929150620020d7565b5090565b5b80821115620020d35760008155600101620020d8565b6000602082840312156200210157600080fd5b81356001600160e01b03198116811462001f2a57600080fd5b80356001600160a01b03811681146200213257600080fd5b919050565b6000602082840312156200214a57600080fd5b62001f2a826200211a565b60005b838110156200217257818101518382015260200162002158565b8381111562002182576000848401525b50505050565b60008151808452620021a281602086016020860162002155565b601f01601f19169290920160200192915050565b60208152600062001f2a602083018462002188565b634e487b7160e01b600052604160045260246000fd5b60405160a081016001600160401b0381118282101715620022065762002206620021cb565b60405290565b604051601f8201601f191681016001600160401b0381118282101715620022375762002237620021cb565b604052919050565b60006001600160401b038211156200225b576200225b620021cb565b50601f01601f191660200190565b6000620022806200227a846200223f565b6200220c565b90508281528383830111156200229557600080fd5b828260208301376000602084830101529392505050565b6001600160401b03811681146200096c57600080fd5b60008060408385031215620022d657600080fd5b82356001600160401b03811115620022ed57600080fd5b8301601f81018513620022ff57600080fd5b620023108582356020840162002269565b92505060208301356200232381620022ac565b809150509250929050565b6000602082840312156200234157600080fd5b5035919050565b600080604083850312156200235c57600080fd5b823591506200236e602084016200211a565b90509250929050565b60008083601f8401126200238a57600080fd5b5081356001600160401b03811115620023a257600080fd5b602083019150836020828501011115620023bb57600080fd5b9250929050565b600080600060408486031215620023d857600080fd5b83356001600160401b03811115620023ef57600080fd5b620023fd8682870162002377565b9094509250620024129050602085016200211a565b90509250925092565b600080602083850312156200242f57600080fd5b82356001600160401b038111156200244657600080fd5b620024548582860162002377565b90969095509350505050565b600082601f8301126200247257600080fd5b62001f2a8383356020850162002269565b6000806000606084860312156200249957600080fd5b83356001600160401b0380821115620024b157600080fd5b620024bf8783880162002460565b9450602086013593506040860135915080821115620024dd57600080fd5b50620024ec8682870162002460565b9150509250925092565b6000806000604084860312156200250c57600080fd5b83356001600160401b038111156200252357600080fd5b620025318682870162002377565b9094509250506020840135600481106200254a57600080fd5b809150509250925092565b60208082526014908201527322a9292fa727aa2fa12924a223a2afaa27a5a2a760611b604082015260600190565b600181811c908216806200259857607f821691505b60208210811415620025ba57634e487b7160e01b600052602260045260246000fd5b50919050565b604081526000620025d5604083018562002188565b90506001600160401b03831660208301529392505050565b805180151581146200213257600080fd5b600060208083850312156200261257600080fd5b82516001600160401b03808211156200262a57600080fd5b9084019060a082870312156200263f57600080fd5b62002649620021e1565b825160ff811681146200265b57600080fd5b81526200266a838501620025ed565b848201526200267c60408401620025ed565b60408201526060830151828111156200269457600080fd5b83019150601f82018713620026a857600080fd5b8151620026b96200227a826200223f565b8181528886838601011115620026ce57600080fd5b620026df8287830188870162002155565b6060830152506080928301519281019290925250949350505050565b600082516200270f81846020870162002155565b9190910192915050565b634e487b7160e01b600052602160045260246000fd5b8183823760009101908152919050565b60208082526023908201527f4552525f4e4f545f494e495449414c495a45445f57484954454c4953545f544f60408201526225a2a760e91b606082015260800190565b8284823760609190911b6bffffffffffffffffffffffff19169101908152601401919050565b6001600160a01b0383168152604060208201819052600090620027ce9083018462002188565b949350505050565b600060208284031215620027e957600080fd5b815162001f2a81620022ac565b6080815260006200280b608083018762002188565b82810360208401526200281f818762002188565b91505060ff841660408301526001600160401b038316606083015295945050505050565b60608152600062002858606083018662002188565b82810360208401526200286c818662002188565b91505060ff83166040830152949350505050565b828152604060208201526000620027ce604083018462002188565b60008351620028af81846020880162002155565b60609390931b6bffffffffffffffffffffffff19169190920190815260140192915050565b6020808252602b908201527f496e697469616c697a61626c653a20636f6e7472616374206973206e6f74206960408201526a6e697469616c697a696e6760a81b606082015260800190565b7f416363657373436f6e74726f6c3a206163636f756e74200000000000000000008152600083516200295981601785016020880162002155565b7001034b99036b4b9b9b4b733903937b6329607d1b60179184019182015283516200298c81602884016020880162002155565b01602801949350505050565b634e487b7160e01b600052601160045260246000fd5b6000816000190483118215151615620029cb57620029cb62002998565b500290565b60008219821115620029e657620029e662002998565b500190565b634e487b7160e01b600052603260045260246000fd5b60008162002a135762002a1362002998565b50600019019056fe608060405234801561001057600080fd5b50611947806100206000396000f3fe608060405234801561001057600080fd5b50600436106101a95760003560e01c80633f4ba83a116100f95780639dc29fac11610097578063a9059cbb11610071578063a9059cbb14610389578063c7a726821461039c578063d547741f146103af578063dd62ed3e146103c257600080fd5b80639dc29fac1461035b578063a217fddf1461036e578063a457c2d71461037657600080fd5b806370a08231116100d357806370a082311461030f5780638456cb591461033857806391d148541461034057806395d89b411461035357600080fd5b80633f4ba83a146102e957806340c10f19146102f15780635c975abb1461030457600080fd5b8063248a9ca31161016657806336568abe1161014057806336568abe14610283578063389ed2671461029657806339509351146102ab5780633cee4f53146102be57600080fd5b8063248a9ca3146102385780632f2ff15d1461025b578063313ce5671461026e57600080fd5b806301ffc9a7146101ae57806306fdde03146101d6578063095ea7b3146101eb5780631624f6c6146101fe57806318160ddd1461021357806323b872dd14610225575b600080fd5b6101c16101bc36600461141b565b6103d5565b60405190151581526020015b60405180910390f35b6101de61040c565b6040516101cd9190611471565b6101c16101f93660046114c0565b61049e565b61021161020c36600461159e565b6104b6565b005b6035545b6040519081526020016101cd565b6101c1610233366004611612565b610633565b61021761024636600461164e565b60009081526097602052604090206001015490565b610211610269366004611667565b610657565b60fd5460405160ff90911681526020016101cd565b610211610291366004611667565b610681565b6102176000805160206118f283398151915281565b6101c16102b93660046114c0565b6106ff565b60fd54610100900467ffffffffffffffff1660405167ffffffffffffffff90911681526020016101cd565b610211610721565b6102116102ff3660046114c0565b610744565b60c95460ff166101c1565b61021761031d366004611693565b6001600160a01b031660009081526033602052604090205490565b610211610761565b6101c161034e366004611667565b610781565b6101de6107ac565b6102116103693660046114c0565b6107bb565b610217600081565b6101c16103843660046114c0565b6107d8565b6101c16103973660046114c0565b610853565b6102116103aa3660046116ae565b610861565b6102116103bd366004611667565b6108d1565b6102176103d036600461173b565b6108f6565b60006001600160e01b03198216637965db0b60e01b148061040657506301ffc9a760e01b6001600160e01b03198316145b92915050565b606060fb805461041b90611765565b80601f016020809104026020016040519081016040528092919081815260200182805461044790611765565b80156104945780601f1061046957610100808354040283529160200191610494565b820191906000526020600020905b81548152906001019060200180831161047757829003601f168201915b5050505050905090565b6000336104ac818585610921565b5060019392505050565b600054610100900460ff16158080156104d65750600054600160ff909116105b806104f05750303b1580156104f0575060005460ff166001145b6105585760405162461bcd60e51b815260206004820152602e60248201527f496e697469616c697a61626c653a20636f6e747261637420697320616c72656160448201526d191e481a5b9a5d1a585b1a5e995960921b60648201526084015b60405180910390fd5b6000805460ff19166001179055801561057b576000805461ff0019166101001790555b6105858484610a45565b61058d610a76565b610598600033610a9f565b6105b06000805160206118f283398151915233610a9f565b83516105c39060fb906020870190611382565b5082516105d79060fc906020860190611382565b5060fd805460ff191660ff8416179055801561062d576000805461ff0019169055604051600181527f7f26b83ff96e1f2b6a682f133852f6798a09c465da95921460cefb38474024989060200160405180910390a15b50505050565b600033610641858285610aa9565b61064c858585610b1d565b506001949350505050565b60008281526097602052604090206001015461067281610ceb565b61067c8383610cf5565b505050565b6001600160a01b03811633146106f15760405162461bcd60e51b815260206004820152602f60248201527f416363657373436f6e74726f6c3a2063616e206f6e6c792072656e6f756e636560448201526e103937b632b9903337b91039b2b63360891b606482015260840161054f565b6106fb8282610d7b565b5050565b6000336104ac81858561071283836108f6565b61071c91906117b6565b610921565b6000805160206118f283398151915261073981610ceb565b610741610de2565b50565b600061074f81610ceb565b610757610e34565b61067c8383610e7a565b6000805160206118f283398151915261077981610ceb565b610741610f59565b60009182526097602090815260408084206001600160a01b0393909316845291905290205460ff1690565b606060fc805461041b90611765565b60006107c681610ceb565b6107ce610e34565b61067c8383610f96565b600033816107e682866108f6565b9050838110156108465760405162461bcd60e51b815260206004820152602560248201527f45524332303a2064656372656173656420616c6c6f77616e63652062656c6f77604482015264207a65726f60d81b606482015260840161054f565b61064c8286868403610921565b6000336104ac818585610b1d565b600061086c81610ceb565b60fd805468ffffffffffffffff00191661010067ffffffffffffffff85160217905584516108a19060fb906020880190611382565b5083516108b59060fc906020870190611382565b505060fd805460ff191660ff9390931692909217909155505050565b6000828152609760205260409020600101546108ec81610ceb565b61067c8383610d7b565b6001600160a01b03918216600090815260346020908152604080832093909416825291909152205490565b6001600160a01b0383166109835760405162461bcd60e51b8152602060048201526024808201527f45524332303a20617070726f76652066726f6d20746865207a65726f206164646044820152637265737360e01b606482015260840161054f565b6001600160a01b0382166109e45760405162461bcd60e51b815260206004820152602260248201527f45524332303a20617070726f766520746f20746865207a65726f206164647265604482015261737360f01b606482015260840161054f565b6001600160a01b0383811660008181526034602090815260408083209487168084529482529182902085905590518481527f8c5be1e5ebec7d5bd14f71427d1e84f3dd0314c0f7b2291e5b200ac8c7c3b925910160405180910390a3505050565b600054610100900460ff16610a6c5760405162461bcd60e51b815260040161054f906117ce565b6106fb82826110e4565b600054610100900460ff16610a9d5760405162461bcd60e51b815260040161054f906117ce565b565b6106fb8282610cf5565b6000610ab584846108f6565b9050600019811461062d5781811015610b105760405162461bcd60e51b815260206004820152601d60248201527f45524332303a20696e73756666696369656e7420616c6c6f77616e6365000000604482015260640161054f565b61062d8484848403610921565b6001600160a01b038316610b815760405162461bcd60e51b815260206004820152602560248201527f45524332303a207472616e736665722066726f6d20746865207a65726f206164604482015264647265737360d81b606482015260840161054f565b6001600160a01b038216610be35760405162461bcd60e51b815260206004820152602360248201527f45524332303a207472616e7366657220746f20746865207a65726f206164647260448201526265737360e81b606482015260840161054f565b6001600160a01b03831660009081526033602052604090205481811015610c5b5760405162461bcd60e51b815260206004820152602660248201527f45524332303a207472616e7366657220616d6f756e7420657863656564732062604482015265616c616e636560d01b606482015260840161054f565b6001600160a01b03808516600090815260336020526040808220858503905591851681529081208054849290610c929084906117b6565b92505081905550826001600160a01b0316846001600160a01b03167fddf252ad1be2c89b69c2b068fc378daa952ba7f163c4a11628f55a4df523b3ef84604051610cde91815260200190565b60405180910390a361062d565b6107418133611132565b610cff8282610781565b6106fb5760008281526097602090815260408083206001600160a01b03851684529091529020805460ff19166001179055610d373390565b6001600160a01b0316816001600160a01b0316837f2f8788117e7eff1d82e926ec794901d17c78024a50270940304540a733656f0d60405160405180910390a45050565b610d858282610781565b156106fb5760008281526097602090815260408083206001600160a01b0385168085529252808320805460ff1916905551339285917ff6391f5c32d9c69d2a47ea670b442974b53935d1edc7fd64eb21e047a839171b9190a45050565b610dea611196565b60c9805460ff191690557f5db9ee0a495bf2e6ff9c91a7834c1ba4fdd244a5e8aa4e537bd38aeae4b073aa335b6040516001600160a01b03909116815260200160405180910390a1565b60c95460ff1615610a9d5760405162461bcd60e51b815260206004820152601060248201526f14185d5cd8589b194e881c185d5cd95960821b604482015260640161054f565b6001600160a01b038216610ed05760405162461bcd60e51b815260206004820152601f60248201527f45524332303a206d696e7420746f20746865207a65726f206164647265737300604482015260640161054f565b8060356000828254610ee291906117b6565b90915550506001600160a01b03821660009081526033602052604081208054839290610f0f9084906117b6565b90915550506040518181526001600160a01b038316906000907fddf252ad1be2c89b69c2b068fc378daa952ba7f163c4a11628f55a4df523b3ef9060200160405180910390a35050565b610f61610e34565b60c9805460ff191660011790557f62e78cea01bee320cd4e420270b5ea74000d11b0c9f74754ebdbfc544b05a258610e173390565b6001600160a01b038216610ff65760405162461bcd60e51b815260206004820152602160248201527f45524332303a206275726e2066726f6d20746865207a65726f206164647265736044820152607360f81b606482015260840161054f565b6001600160a01b0382166000908152603360205260409020548181101561106a5760405162461bcd60e51b815260206004820152602260248201527f45524332303a206275726e20616d6f756e7420657863656564732062616c616e604482015261636560f01b606482015260840161054f565b6001600160a01b0383166000908152603360205260408120838303905560358054849290611099908490611819565b90915550506040518281526000906001600160a01b038516907fddf252ad1be2c89b69c2b068fc378daa952ba7f163c4a11628f55a4df523b3ef9060200160405180910390a3505050565b600054610100900460ff1661110b5760405162461bcd60e51b815260040161054f906117ce565b815161111e906036906020850190611382565b50805161067c906037906020840190611382565b61113c8282610781565b6106fb57611154816001600160a01b031660146111df565b61115f8360206111df565b604051602001611170929190611830565b60408051601f198184030181529082905262461bcd60e51b825261054f91600401611471565b60c95460ff16610a9d5760405162461bcd60e51b815260206004820152601460248201527314185d5cd8589b194e881b9bdd081c185d5cd95960621b604482015260640161054f565b606060006111ee8360026118a5565b6111f99060026117b6565b67ffffffffffffffff811115611211576112116114ea565b6040519080825280601f01601f19166020018201604052801561123b576020820181803683370190505b509050600360fc1b81600081518110611256576112566118c4565b60200101906001600160f81b031916908160001a905350600f60fb1b81600181518110611285576112856118c4565b60200101906001600160f81b031916908160001a90535060006112a98460026118a5565b6112b49060016117b6565b90505b600181111561132c576f181899199a1a9b1b9c1cb0b131b232b360811b85600f16601081106112e8576112e86118c4565b1a60f81b8282815181106112fe576112fe6118c4565b60200101906001600160f81b031916908160001a90535060049490941c93611325816118da565b90506112b7565b50831561137b5760405162461bcd60e51b815260206004820181905260248201527f537472696e67733a20686578206c656e67746820696e73756666696369656e74604482015260640161054f565b9392505050565b82805461138e90611765565b90600052602060002090601f0160209004810192826113b057600085556113f6565b82601f106113c957805160ff19168380011785556113f6565b828001600101855582156113f6579182015b828111156113f65782518255916020019190600101906113db565b50611402929150611406565b5090565b5b808211156114025760008155600101611407565b60006020828403121561142d57600080fd5b81356001600160e01b03198116811461137b57600080fd5b60005b83811015611460578181015183820152602001611448565b8381111561062d5750506000910152565b6020815260008251806020840152611490816040850160208701611445565b601f01601f19169190910160400192915050565b80356001600160a01b03811681146114bb57600080fd5b919050565b600080604083850312156114d357600080fd5b6114dc836114a4565b946020939093013593505050565b634e487b7160e01b600052604160045260246000fd5b600082601f83011261151157600080fd5b813567ffffffffffffffff8082111561152c5761152c6114ea565b604051601f8301601f19908116603f01168101908282118183101715611554576115546114ea565b8160405283815286602085880101111561156d57600080fd5b836020870160208301376000602085830101528094505050505092915050565b803560ff811681146114bb57600080fd5b6000806000606084860312156115b357600080fd5b833567ffffffffffffffff808211156115cb57600080fd5b6115d787838801611500565b945060208601359150808211156115ed57600080fd5b506115fa86828701611500565b9250506116096040850161158d565b90509250925092565b60008060006060848603121561162757600080fd5b611630846114a4565b925061163e602085016114a4565b9150604084013590509250925092565b60006020828403121561166057600080fd5b5035919050565b6000806040838503121561167a57600080fd5b8235915061168a602084016114a4565b90509250929050565b6000602082840312156116a557600080fd5b61137b826114a4565b600080600080608085870312156116c457600080fd5b843567ffffffffffffffff808211156116dc57600080fd5b6116e888838901611500565b955060208701359150808211156116fe57600080fd5b61170a88838901611500565b94506117186040880161158d565b935060608701359150808216821461172f57600080fd5b50939692955090935050565b6000806040838503121561174e57600080fd5b611757836114a4565b915061168a602084016114a4565b600181811c9082168061177957607f821691505b6020821081141561179a57634e487b7160e01b600052602260045260246000fd5b50919050565b634e487b7160e01b600052601160045260246000fd5b600082198211156117c9576117c96117a0565b500190565b6020808252602b908201527f496e697469616c697a61626c653a20636f6e7472616374206973206e6f74206960408201526a6e697469616c697a696e6760a81b606082015260800190565b60008282101561182b5761182b6117a0565b500390565b7f416363657373436f6e74726f6c3a206163636f756e7420000000000000000000815260008351611868816017850160208801611445565b7001034b99036b4b9b9b4b733903937b6329607d1b6017918401918201528351611899816028840160208801611445565b01602801949350505050565b60008160001904831182151516156118bf576118bf6117a0565b500290565b634e487b7160e01b600052603260045260246000fd5b6000816118e9576118e96117a0565b50600019019056fe139c2898040ef16910dc9f44dc697df79363da767d8bc92f2e310312b816e46da2646970667358221220721745b7c37080224a73bb2ef364641944eb9d3aab4a13ffb81d16116ac9f0e064736f6c634300080b003360806040523480156200001157600080fd5b50604051620010a4380380620010a483398101604081905262000034916200040e565b818162000044828260006200005c565b5062000054905060003362000099565b50506200053c565b6200006783620000a9565b600082511180620000755750805b156200009457620000928383620000eb60201b620003161760201c565b505b505050565b620000a582826200011a565b5050565b620000b481620001ba565b6040516001600160a01b038216907fbc7cd75a20ee27fd9adebab32041f755214dbc6bffa90cc0225b39da2e5c2d3b90600090a250565b60606200011383836040518060600160405280602781526020016200107d6027913962000293565b9392505050565b6000828152602081815260408083206001600160a01b038516845290915290205460ff16620000a5576000828152602081815260408083206001600160a01b03851684529091529020805460ff19166001179055620001763390565b6001600160a01b0316816001600160a01b0316837f2f8788117e7eff1d82e926ec794901d17c78024a50270940304540a733656f0d60405160405180910390a45050565b620001d0816200037960201b620003421760201c565b620002385760405162461bcd60e51b815260206004820152602d60248201527f455243313936373a206e657720696d706c656d656e746174696f6e206973206e60448201526c1bdd08184818dbdb9d1c9858dd609a1b60648201526084015b60405180910390fd5b80620002727f360894a13ba1a3210667c828492db98dca3e2076cc3735a920a3ca505d382bbc60001b6200038860201b620003511760201c565b80546001600160a01b0319166001600160a01b039290921691909117905550565b60606001600160a01b0384163b620002fd5760405162461bcd60e51b815260206004820152602660248201527f416464726573733a2064656c65676174652063616c6c20746f206e6f6e2d636f6044820152651b9d1c9858dd60d21b60648201526084016200022f565b600080856001600160a01b0316856040516200031a9190620004e9565b600060405180830381855af49150503d806000811462000357576040519150601f19603f3d011682016040523d82523d6000602084013e6200035c565b606091505b5090925090506200036f8282866200038b565b9695505050505050565b6001600160a01b03163b151590565b90565b606083156200039c57508162000113565b825115620003ad5782518084602001fd5b8160405162461bcd60e51b81526004016200022f919062000507565b634e487b7160e01b600052604160045260246000fd5b60005b83811015620003fc578181015183820152602001620003e2565b83811115620000925750506000910152565b600080604083850312156200042257600080fd5b82516001600160a01b03811681146200043a57600080fd5b60208401519092506001600160401b03808211156200045857600080fd5b818501915085601f8301126200046d57600080fd5b815181811115620004825762000482620003c9565b604051601f8201601f19908116603f01168101908382118183101715620004ad57620004ad620003c9565b81604052828152886020848701011115620004c757600080fd5b620004da836020830160208801620003df565b80955050505050509250929050565b60008251620004fd818460208701620003df565b9190910192915050565b602081526000825180602084015262000528816040850160208701620003df565b601f01601f19169190910160400192915050565b610b31806200054c6000396000f3fe60806040526004361061007f5760003560e01c80633659cfe61161004e5780633659cfe61461014957806391d1485414610169578063a217fddf14610189578063d547741f1461019e5761008e565b806301ffc9a714610096578063248a9ca3146100cb5780632f2ff15d1461010957806336568abe146101295761008e565b3661008e5761008c6101be565b005b61008c6101be565b3480156100a257600080fd5b506100b66100b13660046108aa565b6101d0565b60405190151581526020015b60405180910390f35b3480156100d757600080fd5b506100fb6100e63660046108d4565b60009081526020819052604090206001015490565b6040519081526020016100c2565b34801561011557600080fd5b5061008c610124366004610909565b610207565b34801561013557600080fd5b5061008c610144366004610909565b610231565b34801561015557600080fd5b5061008c610164366004610935565b6102b4565b34801561017557600080fd5b506100b6610184366004610909565b6102c8565b34801561019557600080fd5b506100fb600081565b3480156101aa57600080fd5b5061008c6101b9366004610909565b6102f1565b6101ce6101c9610354565b61038c565b565b60006001600160e01b03198216637965db0b60e01b148061020157506301ffc9a760e01b6001600160e01b03198316145b92915050565b600082815260208190526040902060010154610222816103b0565b61022c83836103bd565b505050565b6001600160a01b03811633146102a65760405162461bcd60e51b815260206004820152602f60248201527f416363657373436f6e74726f6c3a2063616e206f6e6c792072656e6f756e636560448201526e103937b632b9903337b91039b2b63360891b60648201526084015b60405180910390fd5b6102b08282610441565b5050565b60006102bf816103b0565b6102b0826104a6565b6000918252602082815260408084206001600160a01b0393909316845291905290205460ff1690565b60008281526020819052604090206001015461030c816103b0565b61022c8383610441565b606061033b8383604051806060016040528060278152602001610ad5602791396104e6565b9392505050565b6001600160a01b03163b151590565b90565b60006103877f360894a13ba1a3210667c828492db98dca3e2076cc3735a920a3ca505d382bbc546001600160a01b031690565b905090565b3660008037600080366000845af43d6000803e8080156103ab573d6000f35b3d6000fd5b6103ba81336105c3565b50565b6103c782826102c8565b6102b0576000828152602081815260408083206001600160a01b03851684529091529020805460ff191660011790556103fd3390565b6001600160a01b0316816001600160a01b0316837f2f8788117e7eff1d82e926ec794901d17c78024a50270940304540a733656f0d60405160405180910390a45050565b61044b82826102c8565b156102b0576000828152602081815260408083206001600160a01b0385168085529252808320805460ff1916905551339285917ff6391f5c32d9c69d2a47ea670b442974b53935d1edc7fd64eb21e047a839171b9190a45050565b6104af81610627565b6040516001600160a01b038216907fbc7cd75a20ee27fd9adebab32041f755214dbc6bffa90cc0225b39da2e5c2d3b90600090a250565b60606001600160a01b0384163b61054e5760405162461bcd60e51b815260206004820152602660248201527f416464726573733a2064656c65676174652063616c6c20746f206e6f6e2d636f6044820152651b9d1c9858dd60d21b606482015260840161029d565b600080856001600160a01b0316856040516105699190610980565b600060405180830381855af49150503d80600081146105a4576040519150601f19603f3d011682016040523d82523d6000602084013e6105a9565b606091505b50915091506105b98282866106d5565b9695505050505050565b6105cd82826102c8565b6102b0576105e5816001600160a01b0316601461070e565b6105f083602061070e565b60405160200161060192919061099c565b60408051601f198184030181529082905262461bcd60e51b825261029d91600401610a11565b6001600160a01b0381163b6106945760405162461bcd60e51b815260206004820152602d60248201527f455243313936373a206e657720696d706c656d656e746174696f6e206973206e60448201526c1bdd08184818dbdb9d1c9858dd609a1b606482015260840161029d565b7f360894a13ba1a3210667c828492db98dca3e2076cc3735a920a3ca505d382bbc80546001600160a01b0319166001600160a01b0392909216919091179055565b606083156106e457508161033b565b8251156106f45782518084602001fd5b8160405162461bcd60e51b815260040161029d9190610a11565b6060600061071d836002610a5a565b610728906002610a79565b67ffffffffffffffff81111561074057610740610a91565b6040519080825280601f01601f19166020018201604052801561076a576020820181803683370190505b509050600360fc1b8160008151811061078557610785610aa7565b60200101906001600160f81b031916908160001a905350600f60fb1b816001815181106107b4576107b4610aa7565b60200101906001600160f81b031916908160001a90535060006107d8846002610a5a565b6107e3906001610a79565b90505b600181111561085b576f181899199a1a9b1b9c1cb0b131b232b360811b85600f166010811061081757610817610aa7565b1a60f81b82828151811061082d5761082d610aa7565b60200101906001600160f81b031916908160001a90535060049490941c9361085481610abd565b90506107e6565b50831561033b5760405162461bcd60e51b815260206004820181905260248201527f537472696e67733a20686578206c656e67746820696e73756666696369656e74604482015260640161029d565b6000602082840312156108bc57600080fd5b81356001600160e01b03198116811461033b57600080fd5b6000602082840312156108e657600080fd5b5035919050565b80356001600160a01b038116811461090457600080fd5b919050565b6000806040838503121561091c57600080fd5b8235915061092c602084016108ed565b90509250929050565b60006020828403121561094757600080fd5b61033b826108ed565b60005b8381101561096b578181015183820152602001610953565b8381111561097a576000848401525b50505050565b60008251610992818460208701610950565b9190910192915050565b7f416363657373436f6e74726f6c3a206163636f756e74200000000000000000008152600083516109d4816017850160208801610950565b7001034b99036b4b9b9b4b733903937b6329607d1b6017918401918201528351610a05816028840160208801610950565b01602801949350505050565b6020815260008251806020840152610a30816040850160208701610950565b601f01601f19169190910160400192915050565b634e487b7160e01b600052601160045260246000fd5b6000816000190483118215151615610a7457610a74610a44565b500290565b60008219821115610a8c57610a8c610a44565b500190565b634e487b7160e01b600052604160045260246000fd5b634e487b7160e01b600052603260045260246000fd5b600081610acc57610acc610a44565b50600019019056fe416464726573733a206c6f772d6c6576656c2064656c65676174652063616c6c206661696c6564a26469706673582212202f8f6e96477d406096b07826c7f2ce07fd9b864631e5ce3cd188dcbba8b9664764736f6c634300080b0033416464726573733a206c6f772d6c6576656c2064656c65676174652063616c6c206661696c6564139c2898040ef16910dc9f44dc697df79363da767d8bc92f2e310312b816e46d28f5a99355973cc89255b8c4ac88405f27c78ded7608b040ee77a8bdf44d15e2a2646970667358221220fb496331be3dbc8bd11d3e7ca0bfc0109e0e1c15c09fcf80c9964ec036e13c9a64736f6c634300080b0033",
  "linkReferences": {},
  "deployedLinkReferences": {}
}