{
  "_format": "hh-sol-artifact-1",
  "contractName": "ERC20Locker",
  "sourceName": "contracts/ERC20Locker.sol",
  "abi": [
    {
      "inputs": [
        {
          "internalType": "bytes",
          "name": "_nearTokenFactory",
          "type": "bytes"
        },
        {
          "internalType": "contract INearProver",
          "name": "_prover",
          "type": "address"
        },
        {
          "internalType": "uint64",
          "name": "_minBlockAcceptanceHeight",
          "type": "uint64"
        },
        {
          "internalType": "address",
          "name": "_admin",
          "type": "address"
        },
        {
          "internalType": "uint256",
          "name": "_pausedFlags",
          "type": "uint256"
        }
      ],
      "stateMutability": "nonpayable",
      "type": "constructor"
    },
    {
      "anonymous": false,
      "inputs": [
        {
          "indexed": true,
          "internalType": "address",
          "name": "token",
          "type": "address"
        },
        {
          "indexed": true,
          "internalType": "address",
          "name": "sender",
          "type": "address"
        },
        {
          "indexed": false,
          "internalType": "uint256",
          "name": "amount",
          "type": "uint256"
        },
        {
          "indexed": false,
          "internalType": "string",
          "name": "accountId",
          "type": "string"
        }
      ],
      "name": "Locked",
      "type": "event"
    },
    {
      "anonymous": false,
      "inputs": [
        {
          "indexed": false,
          "internalType": "uint128",
          "name": "amount",
          "type": "uint128"
        },
        {
          "indexed": false,
          "internalType": "address",
          "name": "recipient",
          "type": "address"
        }
      ],
      "name": "Unlocked",
      "type": "event"
    },
    {
      "inputs": [],
      "name": "admin",
      "outputs": [
        {
          "internalType": "address",
          "name": "",
          "type": "address"
        }
      ],
      "stateMutability": "view",
      "type": "function"
    },
    {
      "inputs": [
        {
          "internalType": "address",
          "name": "target",
          "type": "address"
        },
        {
          "internalType": "bytes",
          "name": "data",
          "type": "bytes"
        }
      ],
      "name": "adminDelegatecall",
      "outputs": [
        {
          "internalType": "bytes",
          "name": "",
          "type": "bytes"
        }
      ],
      "stateMutability": "payable",
      "type": "function"
    },
    {
      "inputs": [
        {
          "internalType": "uint256",
          "name": "flags",
          "type": "uint256"
        }
      ],
      "name": "adminPause",
      "outputs": [],
      "stateMutability": "nonpayable",
      "type": "function"
    },
    {
      "inputs": [],
      "name": "adminReceiveEth",
      "outputs": [],
      "stateMutability": "payable",
      "type": "function"
    },
    {
      "inputs": [
        {
          "internalType": "address payable",
          "name": "destination",
          "type": "address"
        },
        {
          "internalType": "uint256",
          "name": "amount",
          "type": "uint256"
        }
      ],
      "name": "adminSendEth",
      "outputs": [],
      "stateMutability": "nonpayable",
      "type": "function"
    },
    {
      "inputs": [
        {
          "internalType": "uint256",
          "name": "key",
          "type": "uint256"
        },
        {
          "internalType": "uint256",
          "name": "value",
          "type": "uint256"
        }
      ],
      "name": "adminSstore",
      "outputs": [],
      "stateMutability": "nonpayable",
      "type": "function"
    },
    {
      "inputs": [
        {
          "internalType": "uint256",
          "name": "key",
          "type": "uint256"
        },
        {
          "internalType": "uint256",
          "name": "value",
          "type": "uint256"
        },
        {
          "internalType": "uint256",
          "name": "mask",
          "type": "uint256"
        }
      ],
      "name": "adminSstoreWithMask",
      "outputs": [],
      "stateMutability": "nonpayable",
      "type": "function"
    },
    {
      "inputs": [
        {
          "internalType": "contract IERC20",
          "name": "token",
          "type": "address"
        },
        {
          "internalType": "address",
          "name": "destination",
          "type": "address"
        },
        {
          "internalType": "uint256",
          "name": "amount",
          "type": "uint256"
        }
      ],
      "name": "adminTransfer",
      "outputs": [],
      "stateMutability": "nonpayable",
      "type": "function"
    },
    {
      "inputs": [
        {
          "internalType": "address",
          "name": "ethToken",
          "type": "address"
        },
        {
          "internalType": "uint256",
          "name": "amount",
          "type": "uint256"
        },
        {
          "internalType": "string",
          "name": "accountId",
          "type": "string"
        }
      ],
      "name": "lockToken",
      "outputs": [],
      "stateMutability": "nonpayable",
      "type": "function"
    },
    {
      "inputs": [],
      "name": "minBlockAcceptanceHeight",
      "outputs": [
        {
          "internalType": "uint64",
          "name": "",
          "type": "uint64"
        }
      ],
      "stateMutability": "view",
      "type": "function"
    },
    {
      "inputs": [],
      "name": "nearTokenFactory",
      "outputs": [
        {
          "internalType": "bytes",
          "name": "",
          "type": "bytes"
        }
      ],
      "stateMutability": "view",
      "type": "function"
    },
    {
      "inputs": [],
      "name": "paused",
      "outputs": [
        {
          "internalType": "uint256",
          "name": "",
          "type": "uint256"
        }
      ],
      "stateMutability": "view",
      "type": "function"
    },
    {
      "inputs": [],
      "name": "prover",
      "outputs": [
        {
          "internalType": "contract INearProver",
          "name": "",
          "type": "address"
        }
      ],
      "stateMutability": "view",
      "type": "function"
    },
    {
      "inputs": [
        {
          "internalType": "address",
          "name": "_from",
          "type": "address"
        },
        {
          "internalType": "uint256",
          "name": "_value",
          "type": "uint256"
        },
        {
          "internalType": "bytes",
          "name": "_data",
          "type": "bytes"
        }
      ],
      "name": "tokenFallback",
      "outputs": [],
      "stateMutability": "pure",
      "type": "function"
    },
    {
      "inputs": [
        {
          "internalType": "bytes",
          "name": "proofData",
          "type": "bytes"
        },
        {
          "internalType": "uint64",
          "name": "proofBlockHeight",
          "type": "uint64"
        }
      ],
      "name": "unlockToken",
      "outputs": [],
      "stateMutability": "nonpayable",
      "type": "function"
    },
    {
      "inputs": [
        {
          "internalType": "bytes32",
          "name": "",
          "type": "bytes32"
        }
      ],
      "name": "usedProofs",
      "outputs": [
        {
          "internalType": "bool",
          "name": "",
          "type": "bool"
        }
      ],
      "stateMutability": "view",
      "type": "function"
    }
  ],
  "bytecode": "0x60806040523480156200001157600080fd5b506040516200260e3803806200260e83398101604081905262000034916200025c565b818186868660008351116200009b5760405162461bcd60e51b815260206004820152602260248201527f496e76616c6964204e65617220546f6b656e20466163746f7279206164647265604482015261737360f01b60648201526084015b60405180910390fd5b6001600160a01b038216620000f35760405162461bcd60e51b815260206004820152601b60248201527f496e76616c6964204e6561722070726f76657220616464726573730000000000604482015260640162000092565b8251620001089060019060208601906200016b565b50600080546001600160a01b039384166001600160a01b031991821617909155600280546001600160401b039093166001600160401b031990931692909217909155600480549590921694169390931790925560055550620003b9945050505050565b82805462000179906200037c565b90600052602060002090601f0160209004810192826200019d5760008555620001e8565b82601f10620001b857805160ff1916838001178555620001e8565b82800160010185558215620001e8579182015b82811115620001e8578251825591602001919060010190620001cb565b50620001f6929150620001fa565b5090565b5b80821115620001f65760008155600101620001fb565b634e487b7160e01b600052604160045260246000fd5b80516001600160a01b03811681146200023f57600080fd5b919050565b80516001600160401b03811681146200023f57600080fd5b600080600080600060a086880312156200027557600080fd5b85516001600160401b03808211156200028d57600080fd5b818801915088601f830112620002a257600080fd5b815181811115620002b757620002b762000211565b604051601f8201601f19908116603f01168101908382118183101715620002e257620002e262000211565b81604052828152602093508b84848701011115620002ff57600080fd5b600091505b8282101562000323578482018401518183018501529083019062000304565b82821115620003355760008484830101525b98506200034791505088820162000227565b95505050620003596040870162000244565b9250620003696060870162000227565b9150608086015190509295509295909350565b600181811c908216806200039157607f821691505b60208210811415620003b357634e487b7160e01b600052602260045260246000fd5b50919050565b61224580620003c96000396000f3fe6080604052600436106100f35760003560e01c80636c4624c31161008a578063c30a0f2511610059578063c30a0f25146102a8578063da72c1e8146102e8578063f48ab4e014610308578063f851a4401461031057600080fd5b80636c4624c314610235578063b8e9744c14610255578063be831a2e14610268578063c0ee0b8a1461028857600080fd5b80634a6295dc116100c65780634a6295dc14610197578063530208f2146101b95780635c975abb146101d95780636bf43296146101fd57600080fd5b80630889bfe7146100f85780632692c59f1461011a57806332a8f30f1461013a5780634a00c62914610177575b600080fd5b34801561010457600080fd5b50610118610113366004611d1d565b610330565b005b34801561012657600080fd5b50610118610135366004611d89565b6104ab565b34801561014657600080fd5b5060005461015a906001600160a01b031681565b6040516001600160a01b0390911681526020015b60405180910390f35b34801561018357600080fd5b50610118610192366004611dc2565b6104c7565b3480156101a357600080fd5b506101ac61058f565b60405161016e9190611e73565b3480156101c557600080fd5b506101186101d4366004611e86565b61061d565b3480156101e557600080fd5b506101ef60055481565b60405190815260200161016e565b34801561020957600080fd5b5060025461021d906001600160401b031681565b6040516001600160401b03909116815260200161016e565b34801561024157600080fd5b50610118610250366004611eb2565b61066a565b6101ac610263366004611ede565b61068c565b34801561027457600080fd5b50610118610283366004611f2d565b61071a565b34801561029457600080fd5b506101186102a3366004611f4f565b505050565b3480156102b457600080fd5b506102d86102c3366004611d89565b60036020526000908152604090205460ff1681565b604051901515815260200161016e565b3480156102f457600080fd5b50610118610303366004611f9d565b610735565b610118610760565b34801561031c57600080fd5b5060045461015a906001600160a01b031681565b600180600554166000148061034f57506004546001600160a01b031633145b61035857600080fd5b6103676001600160801b611ff4565b6040516370a0823160e01b81523060048201526103db9085906001600160a01b038816906370a0823190602401602060405180830381865afa1580156103b1573d6000803e3d6000fd5b505050506040513d601f19601f820116820180604052508101906103d5919061200b565b90610779565b11156104435760405162461bcd60e51b815260206004820152602c60248201527f4d6178696d756d20746f6b656e73206c6f636b6564206578636565646564202860448201526b3c20325e313238202d20312960a01b60648201526084015b60405180910390fd5b6104586001600160a01b03851633308661078c565b336001600160a01b0316846001600160a01b03167fdd85dc56b5b4da387bf69c28ec19b1d66e793e0d51b567882fa31dc50bbd32c5858560405161049d929190612024565b60405180910390a350505050565b6004546001600160a01b031633146104c257600080fd5b600555565b60028060055416600014806104e657506004546001600160a01b031633145b6104ef57600080fd5b60006104fb84846107fd565b9050600061050c8260600151610be0565b604081015181516020830151929350610538926001600160a01b031691906001600160801b0316610cba565b805160408083015181516001600160801b0390931683526001600160a01b031660208301527f5fd575e9a8dd4ba1e9f434728800fe78c3c5ffccfa6a852bc7415294ecc0c2d5910160405180910390a15050505050565b6001805461059c9061203d565b80601f01602080910402602001604051908101604052809291908181526020018280546105c89061203d565b80156106155780601f106105ea57610100808354040283529160200191610615565b820191906000526020600020905b8154815290600101906020018083116105f857829003601f168201915b505050505081565b6004546001600160a01b0316331461063457600080fd5b6040516001600160a01b0383169082156108fc029083906000818181858888f193505050501580156102a3573d6000803e3d6000fd5b6004546001600160a01b0316331461068157600080fd5b825491821816189055565b6004546060906001600160a01b031633146106a657600080fd5b600080846001600160a01b0316846040516106c19190612072565b600060405180830381855af49150503d80600081146106fc576040519150601f19603f3d011682016040523d82523d6000602084013e610701565b606091505b50915091508161071057600080fd5b9150505b92915050565b6004546001600160a01b0316331461073157600080fd5b9055565b6004546001600160a01b0316331461074c57600080fd5b6102a36001600160a01b0384168383610cba565b6004546001600160a01b0316331461077757600080fd5b565b6000610785828461208e565b9392505050565b6040516001600160a01b03808516602483015283166044820152606481018290526107f79085906323b872dd60e01b906084015b60408051601f198184030181529190526020810180516001600160e01b03166001600160e01b031990931692909217909152610cea565b50505050565b6040805160a081018252600080825260208201819052818301819052606080830152608082018190525491516392d68dfd60e01b815290916001600160a01b0316906392d68dfd9061085590869086906004016120a6565b602060405180830381865afa158015610872573d6000803e3d6000fd5b505050506040513d601f19601f8201168201806040525081019061089691906120d1565b6108da5760405162461bcd60e51b8152602060048201526015602482015274141c9bdbd9881cda1bdd5b19081899481d985b1a59605a1b604482015260640161043a565b60006108e584610dbc565b905060006108f282610ded565b90506108fd82610e2f565b6002546040808301510151516001600160401b03918216911610156109645760405162461bcd60e51b815260206004820152601f60248201527f50726f6f662069732066726f6d2074686520616e6369656e7420626c6f636b00604482015260640161043a565b60008160000151604001516020015160200151600081518110610989576109896120f3565b6020908102919091018101516000818152600390925260409091205490915060ff1615610a065760405162461bcd60e51b815260206004820152602560248201527f546865206275726e206576656e742070726f6f662063616e6e6f742062652072604482015264195d5cd95960da1b606482015260840161043a565b60008181526003602052604090819020805460ff191660019081179091559051610a309190612109565b604051809103902082600001516040015160200151608001518051906020012014610ad45760405162461bcd60e51b815260206004820152604860248201527f43616e206f6e6c7920756e6c6f636b20746f6b656e732066726f6d207468652060448201527f6c696e6b65642070726f6f662070726f6475636572206f6e204e65617220626c60648201526737b1b5b1b430b4b760c11b608482015260a40161043a565b8160000151604001516020015160a001519350836040015115610b5f5760405162461bcd60e51b815260206004820152603c60248201527f43616e6e6f7420757365206661696c656420657865637574696f6e206f75746360448201527f6f6d6520666f7220756e6c6f636b696e672074686520746f6b656e7300000000606482015260840161043a565b836020015115610bd75760405162461bcd60e51b815260206004820152603d60248201527f43616e6e6f742075736520756e6b6e6f776e20657865637574696f6e206f757460448201527f636f6d6520666f7220756e6c6f636b696e672074686520746f6b656e73000000606482015260840161043a565b50505092915050565b6040805160608101825260008082526020820181905291810182905290610c0683610dbc565b90506000610c1382610e86565b905060ff811615610c665760405162461bcd60e51b815260206004820152601760248201527f4552525f4e4f545f57495448445241575f524553554c54000000000000000000604482015260640161043a565b610c6f82610e9c565b6001600160801b031683526000610c8583610f49565b606081901c602086015290506000610c9c84610f49565b606081901c60408701529050610cb184610e2f565b50505050919050565b6040516001600160a01b0383166024820152604481018290526102a390849063a9059cbb60e01b906064016107c0565b6000610d3f826040518060400160405280602081526020017f5361666545524332303a206c6f772d6c6576656c2063616c6c206661696c6564815250856001600160a01b0316610f569092919063ffffffff16565b8051909150156102a35780806020019051810190610d5d91906120d1565b6102a35760405162461bcd60e51b815260206004820152602a60248201527f5361666545524332303a204552433230206f7065726174696f6e20646964206e6044820152691bdd081cdd58d8d9595960b21b606482015260840161043a565b604080518082019091526000808252602082015260208201815281610ddf815190565b825101602083015250919050565b610df5611aec565b610dfe82610f6d565b8152610e0982610fa1565b6020820152610e178261106c565b6040820152610e2582610fa1565b6060820152919050565b6020810151815114610e835760405162461bcd60e51b815260206004820152601960248201527f5061727365206572726f723a20454f4920657870656374656400000000000000604482015260640161043a565b50565b6000610e93826001611188565b60f81c92915050565b6000610714610eac836010611188565b60801c6dff000000ff000000ff000000ff00600882811b9182166cff000000ff000000ff000000ff9390911c92831617601090811b6fff000000ff000000ff000000ff0000009092166eff000000ff000000ff000000ff00009093169290921790911c17602081811b6fffffffff00000000ffffffff00000000166bffffffff00000000ffffffff9290911c9190911617604081811b91901c1790565b6000610714826014611188565b6060610f6584846000856111a1565b949350505050565b610f75611b47565b610f7e82610fa1565b8152610f89826112c9565b6020820152610f97826112d6565b6040820152919050565b604080516020810190915260608152610fb9826113b1565b63ffffffff166001600160401b03811115610fd657610fd6611c92565b60405190808252806020026020018201604052801561101b57816020015b6040805180820190915260008082526020820152815260200190600190039081610ff45790505b50815260005b81515181101561106657611034836113e7565b8251805183908110611048576110486120f3565b6020026020010181905250808061105e906121a5565b915050611021565b50919050565b611074611b6d565b61107d826112c9565b8152611088826112c9565b602082015261109682611493565b60408083018290526101009091015160208084015183519182019290925291820152600290819060600160408051601f19818403018152908290526110da91612072565b602060405180830381855afa1580156110f7573d6000803e3d6000fd5b5050506040513d601f19601f8201168201806040525081019061111a919061200b565b825160408051602081019390935282015260600160408051601f198184030181529082905261114891612072565b602060405180830381855afa158015611165573d6000803e3d6000fd5b5050506040513d601f19601f82011682018060405250810190610e25919061200b565b60006111948383611530565b5081518051910190915290565b6060824710156112025760405162461bcd60e51b815260206004820152602660248201527f416464726573733a20696e73756666696369656e742062616c616e636520666f6044820152651c8818d85b1b60d21b606482015260840161043a565b843b6112505760405162461bcd60e51b815260206004820152601d60248201527f416464726573733a2063616c6c20746f206e6f6e2d636f6e7472616374000000604482015260640161043a565b600080866001600160a01b0316858760405161126c9190612072565b60006040518083038185875af1925050503d80600081146112a9576040519150601f19603f3d011682016040523d82523d6000602084013e6112ae565b606091505b50915091506112be82828661158b565b979650505050505050565b6000610714826020611188565b6112de611b99565b6112e7826112c9565b81526112f2826115c4565b6020820181905260c001515160009061130c90600161208e565b90506002600882811c62ff00ff1663ff00ff009184901b9190911617601081811c91901b17835160208086015160c0015160405161134c949392016121c0565b60408051601f198184030181529082905261136691612072565b602060405180830381855afa158015611383573d6000803e3d6000fd5b5050506040513d601f19601f820116820180604052508101906113a6919061200b565b604083015250919050565b60006107146113c1836004611188565b60e881901c62ff00ff1663ff00ff0060d89290921c9190911617601081811c91901b1790565b6040805180820190915260008082526020820152611404826112c9565b815261140f82610e86565b60ff166020820181905260021161148e5760405162461bcd60e51b815260206004820152603760248201527f50726f6f664465636f6465723a204d65726b6c65506174684974656d2064697260448201527f656374696f6e2073686f756c642062652030206f722031000000000000000000606482015260840161043a565b919050565b61149b611bb4565b6114a68260d06118ac565b6101008201526114b5826118c4565b6001600160401b031681526114c9826112c9565b60208201526114d7826112c9565b60408201526114e5826112c9565b60608201526114f3826112c9565b6080820152611501826118c4565b6001600160401b031660a0820152611518826112c9565b60c0820152611526826112c9565b60e0820152919050565b60208201518251820111156115875760405162461bcd60e51b815260206004820152601b60248201527f5061727365206572726f723a20756e657870656374656420454f490000000000604482015260640161043a565b5050565b6060831561159a575081610785565b8251156115aa5782518084602001fd5b8160405162461bcd60e51b815260040161043a9190611e73565b6115cc611c00565b6115d5826113b1565b63ffffffff166001600160401b038111156115f2576115f2611c92565b60405190808252806020026020018201604052801561162557816020015b60608152602001906001900390816116105790505b50815260005b8151518110156116705761163e83611939565b8251805183908110611652576116526120f3565b60200260200101819052508080611668906121a5565b91505061162b565b50815161167c836113b1565b63ffffffff166001600160401b0381111561169957611699611c92565b6040519080825280602002602001820160405280156116c2578160200160208202803683370190505b50602083015260005b826020015151811015611714576116e1846112c9565b836020015182815181106116f7576116f76120f3565b60209081029190910101528061170c816121a5565b9150506116cb565b5061171e836118c4565b6001600160401b0316604083015261173583610e9c565b6001600160801b0316606083015261174c83611939565b608083015261175a83611979565b60a083015281515161176d90600161208e565b6001600160401b0381111561178457611784611c92565b6040519080825280602002602001820160405280156117ad578160200160208202803683370190505b5060c083015282516117cb9082906117c6908290611ff4565b611a80565b8260c001516000815181106117e2576117e26120f3565b60200260200101818152505060005b8251518110156118a557600283600001518281518110611813576118136120f3565b60200260200101516040516118289190612072565b602060405180830381855afa158015611845573d6000803e3d6000fd5b5050506040513d601f19601f82011682018060405250810190611868919061200b565b60c084015161187883600161208e565b81518110611888576118886120f3565b60209081029190910101528061189d816121a5565b9150506117f1565b5050919050565b60006118b88383611530565b82516107859083611a80565b60006107146118d4836008611188565b66ff000000ff000060c882901c90811667ff000000ff00000060b89390931c92831617601090811c64ff000000ff9290921665ff000000ff00939093169290921790911b17602081811c63ffffffff1691901b6bffffffffffffffff00000000161790565b60606000611946836113b1565b63ffffffff169050611961818461153090919063ffffffff16565b825161196d9082611aa2565b83519091019092525090565b6040805160a08101825260008082526020820181905291810182905260608082015260808101919091526119ac82610e86565b60ff168082526119c25760016020820152919050565b806000015160ff16600114156119de5760016040820152919050565b806000015160ff16600214156119f757610e2582611939565b806000015160ff1660031415611a1a57611a10826112c9565b6080820152919050565b60405162461bcd60e51b815260206004820152603560248201527f4e6561724465636f6465723a206465636f6465457865637574696f6e53746174604482015274757320696e646578206f7574206f662072616e676560581b606482015260840161043a565b600060206000838560025afa5b80611a9757611a8d565b505060005192915050565b60608115610714576040519050601f19603f830116810180604052828252602082015b8451815260200181811415611ad957611ae4565b602085019450611ac5565b505092915050565b6040518060800160405280611aff611b47565b8152602001611b1a6040518060200160405280606081525090565b8152602001611b27611b6d565b8152602001611b426040518060200160405280606081525090565b905290565b604080516080810182526060808201908152815260006020820152908101611b42611b99565b6040805160808101825260008082526020820152908101611b8c611bb4565b8152600060209091015290565b60408051606081019091526000815260208101611b8c611c00565b6040805161012081018252600080825260208201819052918101829052606081018290526080810182905260a0810182905260c0810182905260e0810182905261010081019190915290565b6040518060e00160405280606081526020016060815260200160006001600160401b0316815260200160006001600160801b0316815260200160608152602001611c706040805160a081018252600080825260208201819052918101829052606080820152608081019190915290565b8152602001606081525090565b6001600160a01b0381168114610e8357600080fd5b634e487b7160e01b600052604160045260246000fd5b60006001600160401b0380841115611cc257611cc2611c92565b604051601f8501601f19908116603f01168101908282118183101715611cea57611cea611c92565b81604052809350858152868686011115611d0357600080fd5b858560208301376000602087830101525050509392505050565b600080600060608486031215611d3257600080fd5b8335611d3d81611c7d565b92506020840135915060408401356001600160401b03811115611d5f57600080fd5b8401601f81018613611d7057600080fd5b611d7f86823560208401611ca8565b9150509250925092565b600060208284031215611d9b57600080fd5b5035919050565b600082601f830112611db357600080fd5b61078583833560208501611ca8565b60008060408385031215611dd557600080fd5b82356001600160401b0380821115611dec57600080fd5b611df886838701611da2565b9350602085013591508082168214611e0f57600080fd5b50809150509250929050565b60005b83811015611e36578181015183820152602001611e1e565b838111156107f75750506000910152565b60008151808452611e5f816020860160208601611e1b565b601f01601f19169290920160200192915050565b6020815260006107856020830184611e47565b60008060408385031215611e9957600080fd5b8235611ea481611c7d565b946020939093013593505050565b600080600060608486031215611ec757600080fd5b505081359360208301359350604090920135919050565b60008060408385031215611ef157600080fd5b8235611efc81611c7d565b915060208301356001600160401b03811115611f1757600080fd5b611f2385828601611da2565b9150509250929050565b60008060408385031215611f4057600080fd5b50508035926020909101359150565b600080600060608486031215611f6457600080fd5b8335611f6f81611c7d565b92506020840135915060408401356001600160401b03811115611f9157600080fd5b611d7f86828701611da2565b600080600060608486031215611fb257600080fd5b8335611fbd81611c7d565b92506020840135611fcd81611c7d565b929592945050506040919091013590565b634e487b7160e01b600052601160045260246000fd5b60008282101561200657612006611fde565b500390565b60006020828403121561201d57600080fd5b5051919050565b828152604060208201526000610f656040830184611e47565b600181811c9082168061205157607f821691505b6020821081141561106657634e487b7160e01b600052602260045260246000fd5b60008251612084818460208701611e1b565b9190910192915050565b600082198211156120a1576120a1611fde565b500190565b6040815260006120b96040830185611e47565b90506001600160401b03831660208301529392505050565b6000602082840312156120e357600080fd5b8151801515811461078557600080fd5b634e487b7160e01b600052603260045260246000fd5b600080835481600182811c91508083168061212557607f831692505b602080841082141561214557634e487b7160e01b86526022600452602486fd5b818015612159576001811461216a57612197565b60ff19861689528489019650612197565b60008a81526020902060005b8681101561218f5781548b820152908501908301612176565b505084890196505b509498975050505050505050565b60006000198214156121b9576121b9611fde565b5060010190565b63ffffffff60e01b8460e01b1681528260048201526000602482018351602080860160005b83811015612201578151855293820193908201906001016121e5565b50929897505050505050505056fea26469706673582212205f493266c99598da705fc2e67a319a9a59cb7d73803006ca8a43d57122ea0b1164736f6c634300080b0033",
  "linkReferences": {},
  "deployedLinkReferences": {}
}