{
  "_format": "hh-sol-artifact-1",
  "contractName": "ERC20MetadataLogger",
  "sourceName": "contracts/ERC20MetadataLogger.sol",
  "abi": [
    {
      "anonymous": false,
      "inputs": [
        {
          "indexed": true,
          "internalType": "address",
          "name": "erc20",
          "type": "address"
        },
        {
          "indexed": false,
          "internalType": "string",
          "name": "name",
          "type": "string"
        },
        {
          "indexed": false,
          "internalType": "string",
          "name": "symbol",
          "type": "string"
        },
        {
          "indexed": false,
          "internalType": "uint8",
          "name": "decimals",
          "type": "uint8"
        },
        {
          "indexed": false,
          "internalType": "uint256",
          "name": "timestamp",
          "type": "uint256"
        }
      ],
      "name": "Log",
      "type": "event"
    },
    {
      "inputs": [
        {
          "internalType": "address",
          "name": "erc20",
          "type": "address"
        }
      ],
      "name": "log",
      "outputs": [],
      "stateMutability": "nonpayable",
      "type": "function"
    }
  ],
  "bytecode": "0x608060405234801561001057600080fd5b506105e8806100206000396000f3fe608060405234801561001057600080fd5b506004361061002b5760003560e01c80632c2ecbc214610030575b600080fd5b61004a600480360381019061004591906102c4565b61004c565b005b60008190508173ffffffffffffffffffffffffffffffffffffffff167f72d3a85f106ffbbc03b56c03a209d0535b122d715b300039ac725a98eadd986c8273ffffffffffffffffffffffffffffffffffffffff166306fdde036040518163ffffffff1660e01b815260040160006040518083038186803b1580156100cf57600080fd5b505afa1580156100e3573d6000803e3d6000fd5b505050506040513d6000823e3d601f19601f8201168201806040525081019061010c91906102f1565b8373ffffffffffffffffffffffffffffffffffffffff166395d89b416040518163ffffffff1660e01b815260040160006040518083038186803b15801561015257600080fd5b505afa158015610166573d6000803e3d6000fd5b505050506040513d6000823e3d601f19601f8201168201806040525081019061018f91906102f1565b8473ffffffffffffffffffffffffffffffffffffffff1663313ce5676040518163ffffffff1660e01b815260040160206040518083038186803b1580156101d557600080fd5b505afa1580156101e9573d6000803e3d6000fd5b505050506040513d601f19601f8201168201806040525081019061020d919061033a565b4360405161021e94939291906103be565b60405180910390a25050565b600061023d61023884610436565b610411565b90508281526020810184848401111561025957610258610564565b5b6102648482856104cc565b509392505050565b60008135905061027b81610584565b92915050565b600082601f8301126102965761029561055f565b5b81516102a684826020860161022a565b91505092915050565b6000815190506102be8161059b565b92915050565b6000602082840312156102da576102d961056e565b5b60006102e88482850161026c565b91505092915050565b6000602082840312156103075761030661056e565b5b600082015167ffffffffffffffff81111561032557610324610569565b5b61033184828501610281565b91505092915050565b6000602082840312156103505761034f61056e565b5b600061035e848285016102af565b91505092915050565b600061037282610467565b61037c8185610472565b935061038c8185602086016104cc565b61039581610573565b840191505092915050565b6103a9816104b5565b82525050565b6103b8816104bf565b82525050565b600060808201905081810360008301526103d88187610367565b905081810360208301526103ec8186610367565b90506103fb60408301856103af565b61040860608301846103a0565b95945050505050565b600061041b61042c565b905061042782826104ff565b919050565b6000604051905090565b600067ffffffffffffffff82111561045157610450610530565b5b61045a82610573565b9050602081019050919050565b600081519050919050565b600082825260208201905092915050565b600061048e82610495565b9050919050565b600073ffffffffffffffffffffffffffffffffffffffff82169050919050565b6000819050919050565b600060ff82169050919050565b60005b838110156104ea5780820151818401526020810190506104cf565b838111156104f9576000848401525b50505050565b61050882610573565b810181811067ffffffffffffffff8211171561052757610526610530565b5b80604052505050565b7f4e487b7100000000000000000000000000000000000000000000000000000000600052604160045260246000fd5b600080fd5b600080fd5b600080fd5b600080fd5b6000601f19601f8301169050919050565b61058d81610483565b811461059857600080fd5b50565b6105a4816104bf565b81146105af57600080fd5b5056fea26469706673582212201d07f85f903f21e42b72f0b3e1ca216eb662b05e87f0a41d0c69b078455f17b164736f6c63430008050033",
  "linkReferences": {},
  "deployedLinkReferences": {}
}