{
  "_format": "hh-sol-artifact-1",
  "contractName": "ERC20Locker",
  "sourceName": "contracts/ERC20Locker.sol",
  "abi": [
    {
      "inputs": [
        {
          "internalType": "bytes",
          "name": "_nearTokenFactory",
          "type": "bytes"
        },
        {
          "internalType": "contract INearProver",
          "name": "_prover",
          "type": "address"
        },
        {
          "internalType": "uint64",
          "name": "_minBlockAcceptanceHeight",
          "type": "uint64"
        },
        {
          "internalType": "address",
          "name": "_admin",
          "type": "address"
        },
        {
          "internalType": "uint256",
          "name": "_pausedFlags",
          "type": "uint256"
        }
      ],
      "stateMutability": "nonpayable",
      "type": "constructor"
    },
    {
      "anonymous": false,
      "inputs": [
        {
          "indexed": true,
          "internalType": "address",
          "name": "token",
          "type": "address"
        },
        {
          "indexed": true,
          "internalType": "address",
          "name": "sender",
          "type": "address"
        },
        {
          "indexed": false,
          "internalType": "uint256",
          "name": "amount",
          "type": "uint256"
        },
        {
          "indexed": false,
          "internalType": "string",
          "name": "accountId",
          "type": "string"
        }
      ],
      "name": "Locked",
      "type": "event"
    },
    {
      "anonymous": false,
      "inputs": [
        {
          "indexed": false,
          "internalType": "uint128",
          "name": "amount",
          "type": "uint128"
        },
        {
          "indexed": false,
          "internalType": "address",
          "name": "recipient",
          "type": "address"
        }
      ],
      "name": "Unlocked",
      "type": "event"
    },
    {
      "inputs": [
        {
          "internalType": "address",
          "name": "newAdmin",
          "type": "address"
        }
      ],
      "name": "acceptAdmin",
      "outputs": [],
      "stateMutability": "nonpayable",
      "type": "function"
    },
    {
      "inputs": [],
      "name": "admin",
      "outputs": [
        {
          "internalType": "address",
          "name": "",
          "type": "address"
        }
      ],
      "stateMutability": "view",
      "type": "function"
    },
    {
      "inputs": [
        {
          "internalType": "address",
          "name": "target",
          "type": "address"
        },
        {
          "internalType": "bytes",
          "name": "data",
          "type": "bytes"
        }
      ],
      "name": "adminDelegatecall",
      "outputs": [
        {
          "internalType": "bytes",
          "name": "",
          "type": "bytes"
        }
      ],
      "stateMutability": "payable",
      "type": "function"
    },
    {
      "inputs": [
        {
          "internalType": "uint256",
          "name": "flags",
          "type": "uint256"
        }
      ],
      "name": "adminPause",
      "outputs": [],
      "stateMutability": "nonpayable",
      "type": "function"
    },
    {
      "inputs": [],
      "name": "adminReceiveEth",
      "outputs": [],
      "stateMutability": "payable",
      "type": "function"
    },
    {
      "inputs": [
        {
          "internalType": "address payable",
          "name": "destination",
          "type": "address"
        },
        {
          "internalType": "uint256",
          "name": "amount",
          "type": "uint256"
        }
      ],
      "name": "adminSendEth",
      "outputs": [],
      "stateMutability": "nonpayable",
      "type": "function"
    },
    {
      "inputs": [
        {
          "internalType": "uint256",
          "name": "key",
          "type": "uint256"
        },
        {
          "internalType": "uint256",
          "name": "value",
          "type": "uint256"
        }
      ],
      "name": "adminSstore",
      "outputs": [],
      "stateMutability": "nonpayable",
      "type": "function"
    },
    {
      "inputs": [
        {
          "internalType": "uint256",
          "name": "key",
          "type": "uint256"
        },
        {
          "internalType": "uint256",
          "name": "value",
          "type": "uint256"
        },
        {
          "internalType": "uint256",
          "name": "mask",
          "type": "uint256"
        }
      ],
      "name": "adminSstoreWithMask",
      "outputs": [],
      "stateMutability": "nonpayable",
      "type": "function"
    },
    {
      "inputs": [
        {
          "internalType": "contract IERC20",
          "name": "token",
          "type": "address"
        },
        {
          "internalType": "address",
          "name": "destination",
          "type": "address"
        },
        {
          "internalType": "uint256",
          "name": "amount",
          "type": "uint256"
        }
      ],
      "name": "adminTransfer",
      "outputs": [],
      "stateMutability": "nonpayable",
      "type": "function"
    },
    {
      "inputs": [
        {
          "internalType": "address",
          "name": "ethToken",
          "type": "address"
        },
        {
          "internalType": "uint256",
          "name": "amount",
          "type": "uint256"
        },
        {
          "internalType": "string",
          "name": "accountId",
          "type": "string"
        }
      ],
      "name": "lockToken",
      "outputs": [],
      "stateMutability": "nonpayable",
      "type": "function"
    },
    {
      "inputs": [],
      "name": "minBlockAcceptanceHeight",
      "outputs": [
        {
          "internalType": "uint64",
          "name": "",
          "type": "uint64"
        }
      ],
      "stateMutability": "view",
      "type": "function"
    },
    {
      "inputs": [],
      "name": "nearTokenFactory",
      "outputs": [
        {
          "internalType": "bytes",
          "name": "",
          "type": "bytes"
        }
      ],
      "stateMutability": "view",
      "type": "function"
    },
    {
      "inputs": [
        {
          "internalType": "address",
          "name": "newAdmin",
          "type": "address"
        }
      ],
      "name": "nominateAdmin",
      "outputs": [],
      "stateMutability": "nonpayable",
      "type": "function"
    },
    {
      "inputs": [],
      "name": "nominatedAdmin",
      "outputs": [
        {
          "internalType": "address",
          "name": "",
          "type": "address"
        }
      ],
      "stateMutability": "view",
      "type": "function"
    },
    {
      "inputs": [],
      "name": "paused",
      "outputs": [
        {
          "internalType": "uint256",
          "name": "",
          "type": "uint256"
        }
      ],
      "stateMutability": "view",
      "type": "function"
    },
    {
      "inputs": [],
      "name": "prover",
      "outputs": [
        {
          "internalType": "contract INearProver",
          "name": "",
          "type": "address"
        }
      ],
      "stateMutability": "view",
      "type": "function"
    },
    {
      "inputs": [],
      "name": "rejectNominatedAdmin",
      "outputs": [],
      "stateMutability": "nonpayable",
      "type": "function"
    },
    {
      "inputs": [
        {
          "internalType": "address",
          "name": "_from",
          "type": "address"
        },
        {
          "internalType": "uint256",
          "name": "_value",
          "type": "uint256"
        },
        {
          "internalType": "bytes",
          "name": "_data",
          "type": "bytes"
        }
      ],
      "name": "tokenFallback",
      "outputs": [],
      "stateMutability": "pure",
      "type": "function"
    },
    {
      "inputs": [
        {
          "internalType": "bytes",
          "name": "proofData",
          "type": "bytes"
        },
        {
          "internalType": "uint64",
          "name": "proofBlockHeight",
          "type": "uint64"
        }
      ],
      "name": "unlockToken",
      "outputs": [],
      "stateMutability": "nonpayable",
      "type": "function"
    },
    {
      "inputs": [
        {
          "internalType": "bytes32",
          "name": "",
          "type": "bytes32"
        }
      ],
      "name": "usedProofs",
      "outputs": [
        {
          "internalType": "bool",
          "name": "",
          "type": "bool"
        }
      ],
      "stateMutability": "view",
      "type": "function"
    }
  ],
  "bytecode": "0x60806040523480156200001157600080fd5b50604051620028fb380380620028fb83398101604081905262000034916200025c565b818186868660008351116200009b5760405162461bcd60e51b815260206004820152602260248201527f496e76616c6964204e65617220546f6b656e20466163746f7279206164647265604482015261737360f01b60648201526084015b60405180910390fd5b6001600160a01b038216620000f35760405162461bcd60e51b815260206004820152601b60248201527f496e76616c6964204e6561722070726f76657220616464726573730000000000604482015260640162000092565b8251620001089060019060208601906200016b565b50600080546001600160a01b039384166001600160a01b031991821617909155600280546001600160401b039093166001600160401b031990931692909217909155600480549590921694169390931790925560065550620003b9945050505050565b82805462000179906200037c565b90600052602060002090601f0160209004810192826200019d5760008555620001e8565b82601f10620001b857805160ff1916838001178555620001e8565b82800160010185558215620001e8579182015b82811115620001e8578251825591602001919060010190620001cb565b50620001f6929150620001fa565b5090565b5b80821115620001f65760008155600101620001fb565b634e487b7160e01b600052604160045260246000fd5b80516001600160a01b03811681146200023f57600080fd5b919050565b80516001600160401b03811681146200023f57600080fd5b600080600080600060a086880312156200027557600080fd5b85516001600160401b03808211156200028d57600080fd5b818801915088601f830112620002a257600080fd5b815181811115620002b757620002b762000211565b604051601f8201601f19908116603f01168101908382118183101715620002e257620002e262000211565b81604052828152602093508b84848701011115620002ff57600080fd5b600091505b8282101562000323578482018401518183018501529083019062000304565b82821115620003355760008484830101525b98506200034791505088820162000227565b95505050620003596040870162000244565b9250620003696060870162000227565b9150608086015190509295509295909350565b600181811c908216806200039157607f821691505b60208210811415620003b357634e487b7160e01b600052602260045260246000fd5b50919050565b61253280620003c96000396000f3fe60806040526004361061011f5760003560e01c8063ac77a535116100a0578063cd5ad4c511610064578063cd5ad4c514610349578063da72c1e814610369578063e8ac653314610389578063f48ab4e0146103a9578063f851a440146103b157600080fd5b8063ac77a535146102a1578063b8e9744c146102b6578063be831a2e146102c9578063c0ee0b8a146102e9578063c30a0f251461030957600080fd5b8063530208f2116100e7578063530208f2146101e55780635c975abb14610205578063628806ef146102295780636bf43296146102495780636c4624c31461028157600080fd5b80630889bfe7146101245780632692c59f1461014657806332a8f30f146101665780634a00c629146101a35780634a6295dc146101c3575b600080fd5b34801561013057600080fd5b5061014461013f366004611fed565b6103d1565b005b34801561015257600080fd5b50610144610161366004612059565b61054c565b34801561017257600080fd5b50600054610186906001600160a01b031681565b6040516001600160a01b0390911681526020015b60405180910390f35b3480156101af57600080fd5b506101446101be366004612092565b610568565b3480156101cf57600080fd5b506101d8610630565b60405161019a9190612143565b3480156101f157600080fd5b50610144610200366004612156565b6106be565b34801561021157600080fd5b5061021b60065481565b60405190815260200161019a565b34801561023557600080fd5b50610144610244366004612182565b61070b565b34801561025557600080fd5b50600254610269906001600160401b031681565b6040516001600160401b03909116815260200161019a565b34801561028d57600080fd5b5061014461029c36600461219f565b6107d6565b3480156102ad57600080fd5b506101446107f8565b6101d86102c43660046121cb565b610821565b3480156102d557600080fd5b506101446102e436600461221a565b6108af565b3480156102f557600080fd5b5061014461030436600461223c565b505050565b34801561031557600080fd5b50610339610324366004612059565b60036020526000908152604090205460ff1681565b604051901515815260200161019a565b34801561035557600080fd5b50610144610364366004612182565b6108ca565b34801561037557600080fd5b5061014461038436600461228a565b61090c565b34801561039557600080fd5b50600554610186906001600160a01b031681565b610144610937565b3480156103bd57600080fd5b50600454610186906001600160a01b031681565b60018060065416600014806103f057506004546001600160a01b031633145b6103f957600080fd5b6104086001600160801b6122e1565b6040516370a0823160e01b815230600482015261047c9085906001600160a01b038816906370a0823190602401602060405180830381865afa158015610452573d6000803e3d6000fd5b505050506040513d601f19601f8201168201806040525081019061047691906122f8565b90610950565b11156104e45760405162461bcd60e51b815260206004820152602c60248201527f4d6178696d756d20746f6b656e73206c6f636b6564206578636565646564202860448201526b3c20325e313238202d20312960a01b60648201526084015b60405180910390fd5b6104f96001600160a01b038516333086610963565b336001600160a01b0316846001600160a01b03167fdd85dc56b5b4da387bf69c28ec19b1d66e793e0d51b567882fa31dc50bbd32c5858560405161053e929190612311565b60405180910390a350505050565b6004546001600160a01b0316331461056357600080fd5b600655565b600280600654166000148061058757506004546001600160a01b031633145b61059057600080fd5b600061059c84846109d4565b905060006105ad8260600151610db7565b6040810151815160208301519293506105d9926001600160a01b031691906001600160801b0316610e91565b805160408083015181516001600160801b0390931683526001600160a01b031660208301527f5fd575e9a8dd4ba1e9f434728800fe78c3c5ffccfa6a852bc7415294ecc0c2d5910160405180910390a15050505050565b6001805461063d9061232a565b80601f01602080910402602001604051908101604052809291908181526020018280546106699061232a565b80156106b65780601f1061068b576101008083540402835291602001916106b6565b820191906000526020600020905b81548152906001019060200180831161069957829003601f168201915b505050505081565b6004546001600160a01b031633146106d557600080fd5b6040516001600160a01b0383169082156108fc029083906000818181858888f19350505050158015610304573d6000803e3d6000fd5b6004546001600160a01b0316331461072257600080fd5b61072b81610ec1565b6005546001600160a01b038281169116146107ae5760405162461bcd60e51b815260206004820152603a60248201527f5468652070726f76696465642061646d696e206164647265737320646f65736e60448201527f2774206d6174636820746865206e6f6d696e61746564206f6e6500000000000060648201526084016104db565b5060058054600480546001600160a01b03199081166001600160a01b03841617909155169055565b6004546001600160a01b031633146107ed57600080fd5b825491821816189055565b6004546001600160a01b0316331461080f57600080fd5b600580546001600160a01b0319169055565b6004546060906001600160a01b0316331461083b57600080fd5b600080846001600160a01b031684604051610856919061235f565b600060405180830381855af49150503d8060008114610891576040519150601f19603f3d011682016040523d82523d6000602084013e610896565b606091505b5091509150816108a557600080fd5b9150505b92915050565b6004546001600160a01b031633146108c657600080fd5b9055565b6004546001600160a01b031633146108e157600080fd5b6108ea81610ec1565b600580546001600160a01b0319166001600160a01b0392909216919091179055565b6004546001600160a01b0316331461092357600080fd5b6103046001600160a01b0384168383610e91565b6004546001600160a01b0316331461094e57600080fd5b565b600061095c828461237b565b9392505050565b6040516001600160a01b03808516602483015283166044820152606481018290526109ce9085906323b872dd60e01b906084015b60408051601f198184030181529190526020810180516001600160e01b03166001600160e01b031990931692909217909152610fb4565b50505050565b6040805160a081018252600080825260208201819052818301819052606080830152608082018190525491516392d68dfd60e01b815290916001600160a01b0316906392d68dfd90610a2c9086908690600401612393565b602060405180830381865afa158015610a49573d6000803e3d6000fd5b505050506040513d601f19601f82011682018060405250810190610a6d91906123be565b610ab15760405162461bcd60e51b8152602060048201526015602482015274141c9bdbd9881cda1bdd5b19081899481d985b1a59605a1b60448201526064016104db565b6000610abc84611086565b90506000610ac9826110b7565b9050610ad4826110f9565b6002546040808301510151516001600160401b0391821691161015610b3b5760405162461bcd60e51b815260206004820152601f60248201527f50726f6f662069732066726f6d2074686520616e6369656e7420626c6f636b0060448201526064016104db565b60008160000151604001516020015160200151600081518110610b6057610b606123e0565b6020908102919091018101516000818152600390925260409091205490915060ff1615610bdd5760405162461bcd60e51b815260206004820152602560248201527f546865206275726e206576656e742070726f6f662063616e6e6f742062652072604482015264195d5cd95960da1b60648201526084016104db565b60008181526003602052604090819020805460ff191660019081179091559051610c0791906123f6565b604051809103902082600001516040015160200151608001518051906020012014610cab5760405162461bcd60e51b815260206004820152604860248201527f43616e206f6e6c7920756e6c6f636b20746f6b656e732066726f6d207468652060448201527f6c696e6b65642070726f6f662070726f6475636572206f6e204e65617220626c60648201526737b1b5b1b430b4b760c11b608482015260a4016104db565b8160000151604001516020015160a001519350836040015115610d365760405162461bcd60e51b815260206004820152603c60248201527f43616e6e6f7420757365206661696c656420657865637574696f6e206f75746360448201527f6f6d6520666f7220756e6c6f636b696e672074686520746f6b656e730000000060648201526084016104db565b836020015115610dae5760405162461bcd60e51b815260206004820152603d60248201527f43616e6e6f742075736520756e6b6e6f776e20657865637574696f6e206f757460448201527f636f6d6520666f7220756e6c6f636b696e672074686520746f6b656e7300000060648201526084016104db565b50505092915050565b6040805160608101825260008082526020820181905291810182905290610ddd83611086565b90506000610dea8261114d565b905060ff811615610e3d5760405162461bcd60e51b815260206004820152601760248201527f4552525f4e4f545f57495448445241575f524553554c5400000000000000000060448201526064016104db565b610e4682611163565b6001600160801b031683526000610e5c83611210565b606081901c602086015290506000610e7384611210565b606081901c60408701529050610e88846110f9565b50505050919050565b6040516001600160a01b03831660248201526044810182905261030490849063a9059cbb60e01b90606401610997565b6004546001600160a01b03163314610ed857600080fd5b6004546001600160a01b0382811691161415610f495760405162461bcd60e51b815260206004820152602a60248201527f4e6f6d696e617465642061646d696e206973207468652073616d6520617320746044820152691a194818dd5c9c995b9d60b21b60648201526084016104db565b6001600160a01b038116610fb15760405162461bcd60e51b815260206004820152602960248201527f4e6f6d696e617465642061646d696e2073686f756c646e2774206265207a65726044820152686f206164647265737360b81b60648201526084016104db565b50565b6000611009826040518060400160405280602081526020017f5361666545524332303a206c6f772d6c6576656c2063616c6c206661696c6564815250856001600160a01b031661121d9092919063ffffffff16565b805190915015610304578080602001905181019061102791906123be565b6103045760405162461bcd60e51b815260206004820152602a60248201527f5361666545524332303a204552433230206f7065726174696f6e20646964206e6044820152691bdd081cdd58d8d9595960b21b60648201526084016104db565b6040805180820190915260008082526020820152602082018152816110a9815190565b825101602083015250919050565b6110bf611dbc565b6110c882611234565b81526110d382611268565b60208201526110e182611333565b60408201526110ef82611268565b6060820152919050565b6020810151815114610fb15760405162461bcd60e51b815260206004820152601960248201527f5061727365206572726f723a20454f492065787065637465640000000000000060448201526064016104db565b600061115a82600161144f565b60f81c92915050565b60006108a961117383601061144f565b60801c6dff000000ff000000ff000000ff00600882811b9182166cff000000ff000000ff000000ff9390911c92831617601090811b6fff000000ff000000ff000000ff0000009092166eff000000ff000000ff000000ff00009093169290921790911c17602081811b6fffffffff00000000ffffffff00000000166bffffffff00000000ffffffff9290911c9190911617604081811b91901c1790565b60006108a982601461144f565b606061122c8484600085611468565b949350505050565b61123c611e17565b61124582611268565b815261125082611599565b602082015261125e826115a6565b6040820152919050565b60408051602081019091526060815261128082611681565b63ffffffff166001600160401b0381111561129d5761129d611f62565b6040519080825280602002602001820160405280156112e257816020015b60408051808201909152600080825260208201528152602001906001900390816112bb5790505b50815260005b81515181101561132d576112fb836116b7565b825180518390811061130f5761130f6123e0565b6020026020010181905250808061132590612492565b9150506112e8565b50919050565b61133b611e3d565b61134482611599565b815261134f82611599565b602082015261135d82611763565b60408083018290526101009091015160208084015183519182019290925291820152600290819060600160408051601f19818403018152908290526113a19161235f565b602060405180830381855afa1580156113be573d6000803e3d6000fd5b5050506040513d601f19601f820116820180604052508101906113e191906122f8565b825160408051602081019390935282015260600160408051601f198184030181529082905261140f9161235f565b602060405180830381855afa15801561142c573d6000803e3d6000fd5b5050506040513d601f19601f820116820180604052508101906110ef91906122f8565b600061145b8383611800565b5081518051910190915290565b6060824710156114c95760405162461bcd60e51b815260206004820152602660248201527f416464726573733a20696e73756666696369656e742062616c616e636520666f6044820152651c8818d85b1b60d21b60648201526084016104db565b6001600160a01b0385163b6115205760405162461bcd60e51b815260206004820152601d60248201527f416464726573733a2063616c6c20746f206e6f6e2d636f6e747261637400000060448201526064016104db565b600080866001600160a01b0316858760405161153c919061235f565b60006040518083038185875af1925050503d8060008114611579576040519150601f19603f3d011682016040523d82523d6000602084013e61157e565b606091505b509150915061158e82828661185b565b979650505050505050565b60006108a982602061144f565b6115ae611e69565b6115b782611599565b81526115c282611894565b6020820181905260c00151516000906115dc90600161237b565b90506002600882811c62ff00ff1663ff00ff009184901b9190911617601081811c91901b17835160208086015160c0015160405161161c949392016124ad565b60408051601f19818403018152908290526116369161235f565b602060405180830381855afa158015611653573d6000803e3d6000fd5b5050506040513d601f19601f8201168201806040525081019061167691906122f8565b604083015250919050565b60006108a961169183600461144f565b60e881901c62ff00ff1663ff00ff0060d89290921c9190911617601081811c91901b1790565b60408051808201909152600080825260208201526116d482611599565b81526116df8261114d565b60ff166020820181905260021161175e5760405162461bcd60e51b815260206004820152603760248201527f50726f6f664465636f6465723a204d65726b6c65506174684974656d2064697260448201527f656374696f6e2073686f756c642062652030206f72203100000000000000000060648201526084016104db565b919050565b61176b611e84565b6117768260d0611b7c565b61010082015261178582611b94565b6001600160401b0316815261179982611599565b60208201526117a782611599565b60408201526117b582611599565b60608201526117c382611599565b60808201526117d182611b94565b6001600160401b031660a08201526117e882611599565b60c08201526117f682611599565b60e0820152919050565b60208201518251820111156118575760405162461bcd60e51b815260206004820152601b60248201527f5061727365206572726f723a20756e657870656374656420454f49000000000060448201526064016104db565b5050565b6060831561186a57508161095c565b82511561187a5782518084602001fd5b8160405162461bcd60e51b81526004016104db9190612143565b61189c611ed0565b6118a582611681565b63ffffffff166001600160401b038111156118c2576118c2611f62565b6040519080825280602002602001820160405280156118f557816020015b60608152602001906001900390816118e05790505b50815260005b8151518110156119405761190e83611c09565b8251805183908110611922576119226123e0565b6020026020010181905250808061193890612492565b9150506118fb565b50815161194c83611681565b63ffffffff166001600160401b0381111561196957611969611f62565b604051908082528060200260200182016040528015611992578160200160208202803683370190505b50602083015260005b8260200151518110156119e4576119b184611599565b836020015182815181106119c7576119c76123e0565b6020908102919091010152806119dc81612492565b91505061199b565b506119ee83611b94565b6001600160401b03166040830152611a0583611163565b6001600160801b03166060830152611a1c83611c09565b6080830152611a2a83611c49565b60a0830152815151611a3d90600161237b565b6001600160401b03811115611a5457611a54611f62565b604051908082528060200260200182016040528015611a7d578160200160208202803683370190505b5060c08301528251611a9b908290611a969082906122e1565b611d50565b8260c00151600081518110611ab257611ab26123e0565b60200260200101818152505060005b825151811015611b7557600283600001518281518110611ae357611ae36123e0565b6020026020010151604051611af8919061235f565b602060405180830381855afa158015611b15573d6000803e3d6000fd5b5050506040513d601f19601f82011682018060405250810190611b3891906122f8565b60c0840151611b4883600161237b565b81518110611b5857611b586123e0565b602090810291909101015280611b6d81612492565b915050611ac1565b5050919050565b6000611b888383611800565b825161095c9083611d50565b60006108a9611ba483600861144f565b66ff000000ff000060c882901c90811667ff000000ff00000060b89390931c92831617601090811c64ff000000ff9290921665ff000000ff00939093169290921790911b17602081811c63ffffffff1691901b6bffffffffffffffff00000000161790565b60606000611c1683611681565b63ffffffff169050611c31818461180090919063ffffffff16565b8251611c3d9082611d72565b83519091019092525090565b6040805160a0810182526000808252602082018190529181018290526060808201526080810191909152611c7c8261114d565b60ff16808252611c925760016020820152919050565b806000015160ff1660011415611cae5760016040820152919050565b806000015160ff1660021415611cc7576110ef82611c09565b806000015160ff1660031415611cea57611ce082611599565b6080820152919050565b60405162461bcd60e51b815260206004820152603560248201527f4e6561724465636f6465723a206465636f6465457865637574696f6e53746174604482015274757320696e646578206f7574206f662072616e676560581b60648201526084016104db565b600060206000838560025afa5b80611d6757611d5d565b505060005192915050565b606081156108a9576040519050601f19603f830116810180604052828252602082015b8451815260200181811415611da957611db4565b602085019450611d95565b505092915050565b6040518060800160405280611dcf611e17565b8152602001611dea6040518060200160405280606081525090565b8152602001611df7611e3d565b8152602001611e126040518060200160405280606081525090565b905290565b604080516080810182526060808201908152815260006020820152908101611e12611e69565b6040805160808101825260008082526020820152908101611e5c611e84565b8152600060209091015290565b60408051606081019091526000815260208101611e5c611ed0565b6040805161012081018252600080825260208201819052918101829052606081018290526080810182905260a0810182905260c0810182905260e0810182905261010081019190915290565b6040518060e00160405280606081526020016060815260200160006001600160401b0316815260200160006001600160801b0316815260200160608152602001611f406040805160a081018252600080825260208201819052918101829052606080820152608081019190915290565b8152602001606081525090565b6001600160a01b0381168114610fb157600080fd5b634e487b7160e01b600052604160045260246000fd5b60006001600160401b0380841115611f9257611f92611f62565b604051601f8501601f19908116603f01168101908282118183101715611fba57611fba611f62565b81604052809350858152868686011115611fd357600080fd5b858560208301376000602087830101525050509392505050565b60008060006060848603121561200257600080fd5b833561200d81611f4d565b92506020840135915060408401356001600160401b0381111561202f57600080fd5b8401601f8101861361204057600080fd5b61204f86823560208401611f78565b9150509250925092565b60006020828403121561206b57600080fd5b5035919050565b600082601f83011261208357600080fd5b61095c83833560208501611f78565b600080604083850312156120a557600080fd5b82356001600160401b03808211156120bc57600080fd5b6120c886838701612072565b93506020850135915080821682146120df57600080fd5b50809150509250929050565b60005b838110156121065781810151838201526020016120ee565b838111156109ce5750506000910152565b6000815180845261212f8160208601602086016120eb565b601f01601f19169290920160200192915050565b60208152600061095c6020830184612117565b6000806040838503121561216957600080fd5b823561217481611f4d565b946020939093013593505050565b60006020828403121561219457600080fd5b813561095c81611f4d565b6000806000606084860312156121b457600080fd5b505081359360208301359350604090920135919050565b600080604083850312156121de57600080fd5b82356121e981611f4d565b915060208301356001600160401b0381111561220457600080fd5b61221085828601612072565b9150509250929050565b6000806040838503121561222d57600080fd5b50508035926020909101359150565b60008060006060848603121561225157600080fd5b833561225c81611f4d565b92506020840135915060408401356001600160401b0381111561227e57600080fd5b61204f86828701612072565b60008060006060848603121561229f57600080fd5b83356122aa81611f4d565b925060208401356122ba81611f4d565b929592945050506040919091013590565b634e487b7160e01b600052601160045260246000fd5b6000828210156122f3576122f36122cb565b500390565b60006020828403121561230a57600080fd5b5051919050565b82815260406020820152600061122c6040830184612117565b600181811c9082168061233e57607f821691505b6020821081141561132d57634e487b7160e01b600052602260045260246000fd5b600082516123718184602087016120eb565b9190910192915050565b6000821982111561238e5761238e6122cb565b500190565b6040815260006123a66040830185612117565b90506001600160401b03831660208301529392505050565b6000602082840312156123d057600080fd5b8151801515811461095c57600080fd5b634e487b7160e01b600052603260045260246000fd5b600080835481600182811c91508083168061241257607f831692505b602080841082141561243257634e487b7160e01b86526022600452602486fd5b818015612446576001811461245757612484565b60ff19861689528489019650612484565b60008a81526020902060005b8681101561247c5781548b820152908501908301612463565b505084890196505b509498975050505050505050565b60006000198214156124a6576124a66122cb565b5060010190565b63ffffffff60e01b8460e01b1681528260048201526000602482018351602080860160005b838110156124ee578151855293820193908201906001016124d2565b50929897505050505050505056fea264697066735822122066cbc710b4f4cadcea13806c1016a07861de87c7abc3a49cc0399e071943e0e164736f6c634300080b0033",
  "linkReferences": {},
  "deployedLinkReferences": {}
}