{
  "_format": "hh-sol-artifact-1",
  "contractName": "ERC20Locker",
  "sourceName": "contracts/ERC20Locker.sol",
  "abi": [
    {
      "inputs": [
        {
          "internalType": "bytes",
          "name": "nearTokenFactory",
          "type": "bytes"
        },
        {
          "internalType": "contract INearProver",
          "name": "prover",
          "type": "address"
        },
        {
          "internalType": "uint64",
          "name": "minBlockAcceptanceHeight",
          "type": "uint64"
        },
        {
          "internalType": "address",
          "name": "_admin",
          "type": "address"
        },
        {
          "internalType": "uint256",
          "name": "pausedFlags",
          "type": "uint256"
        }
      ],
      "stateMutability": "nonpayable",
      "type": "constructor"
    },
    {
      "anonymous": false,
      "inputs": [
        {
          "indexed": true,
          "internalType": "address",
          "name": "token",
          "type": "address"
        },
        {
          "indexed": true,
          "internalType": "address",
          "name": "sender",
          "type": "address"
        },
        {
          "indexed": false,
          "internalType": "uint256",
          "name": "amount",
          "type": "uint256"
        },
        {
          "indexed": false,
          "internalType": "string",
          "name": "accountId",
          "type": "string"
        }
      ],
      "name": "Locked",
      "type": "event"
    },
    {
      "anonymous": false,
      "inputs": [
        {
          "indexed": false,
          "internalType": "uint128",
          "name": "amount",
          "type": "uint128"
        },
        {
          "indexed": false,
          "internalType": "address",
          "name": "recipient",
          "type": "address"
        }
      ],
      "name": "Unlocked",
      "type": "event"
    },
    {
      "inputs": [],
      "name": "admin",
      "outputs": [
        {
          "internalType": "address",
          "name": "",
          "type": "address"
        }
      ],
      "stateMutability": "view",
      "type": "function"
    },
    {
      "inputs": [
        {
          "internalType": "address",
          "name": "target",
          "type": "address"
        },
        {
          "internalType": "bytes",
          "name": "data",
          "type": "bytes"
        }
      ],
      "name": "adminDelegatecall",
      "outputs": [
        {
          "internalType": "bytes",
          "name": "",
          "type": "bytes"
        }
      ],
      "stateMutability": "payable",
      "type": "function"
    },
    {
      "inputs": [
        {
          "internalType": "uint256",
          "name": "flags",
          "type": "uint256"
        }
      ],
      "name": "adminPause",
      "outputs": [],
      "stateMutability": "nonpayable",
      "type": "function"
    },
    {
      "inputs": [],
      "name": "adminReceiveEth",
      "outputs": [],
      "stateMutability": "payable",
      "type": "function"
    },
    {
      "inputs": [
        {
          "internalType": "address payable",
          "name": "destination",
          "type": "address"
        },
        {
          "internalType": "uint256",
          "name": "amount",
          "type": "uint256"
        }
      ],
      "name": "adminSendEth",
      "outputs": [],
      "stateMutability": "nonpayable",
      "type": "function"
    },
    {
      "inputs": [
        {
          "internalType": "uint256",
          "name": "key",
          "type": "uint256"
        },
        {
          "internalType": "uint256",
          "name": "value",
          "type": "uint256"
        }
      ],
      "name": "adminSstore",
      "outputs": [],
      "stateMutability": "nonpayable",
      "type": "function"
    },
    {
      "inputs": [
        {
          "internalType": "uint256",
          "name": "key",
          "type": "uint256"
        },
        {
          "internalType": "uint256",
          "name": "value",
          "type": "uint256"
        },
        {
          "internalType": "uint256",
          "name": "mask",
          "type": "uint256"
        }
      ],
      "name": "adminSstoreWithMask",
      "outputs": [],
      "stateMutability": "nonpayable",
      "type": "function"
    },
    {
      "inputs": [
        {
          "internalType": "contract IERC20",
          "name": "token",
          "type": "address"
        },
        {
          "internalType": "address",
          "name": "destination",
          "type": "address"
        },
        {
          "internalType": "uint256",
          "name": "amount",
          "type": "uint256"
        }
      ],
      "name": "adminTransfer",
      "outputs": [],
      "stateMutability": "nonpayable",
      "type": "function"
    },
    {
      "inputs": [
        {
          "internalType": "address",
          "name": "ethToken",
          "type": "address"
        },
        {
          "internalType": "uint256",
          "name": "amount",
          "type": "uint256"
        },
        {
          "internalType": "string",
          "name": "accountId",
          "type": "string"
        }
      ],
      "name": "lockToken",
      "outputs": [],
      "stateMutability": "nonpayable",
      "type": "function"
    },
    {
      "inputs": [],
      "name": "minBlockAcceptanceHeight_",
      "outputs": [
        {
          "internalType": "uint64",
          "name": "",
          "type": "uint64"
        }
      ],
      "stateMutability": "view",
      "type": "function"
    },
    {
      "inputs": [],
      "name": "nearTokenFactory_",
      "outputs": [
        {
          "internalType": "bytes",
          "name": "",
          "type": "bytes"
        }
      ],
      "stateMutability": "view",
      "type": "function"
    },
    {
      "inputs": [],
      "name": "paused",
      "outputs": [
        {
          "internalType": "uint256",
          "name": "",
          "type": "uint256"
        }
      ],
      "stateMutability": "view",
      "type": "function"
    },
    {
      "inputs": [],
      "name": "prover_",
      "outputs": [
        {
          "internalType": "contract INearProver",
          "name": "",
          "type": "address"
        }
      ],
      "stateMutability": "view",
      "type": "function"
    },
    {
      "inputs": [
        {
          "internalType": "address",
          "name": "_from",
          "type": "address"
        },
        {
          "internalType": "uint256",
          "name": "_value",
          "type": "uint256"
        },
        {
          "internalType": "bytes",
          "name": "_data",
          "type": "bytes"
        }
      ],
      "name": "tokenFallback",
      "outputs": [],
      "stateMutability": "pure",
      "type": "function"
    },
    {
      "inputs": [
        {
          "internalType": "bytes",
          "name": "proofData",
          "type": "bytes"
        },
        {
          "internalType": "uint64",
          "name": "proofBlockHeight",
          "type": "uint64"
        }
      ],
      "name": "unlockToken",
      "outputs": [],
      "stateMutability": "nonpayable",
      "type": "function"
    },
    {
      "inputs": [
        {
          "internalType": "bytes32",
          "name": "",
          "type": "bytes32"
        }
      ],
      "name": "usedProofs_",
      "outputs": [
        {
          "internalType": "bool",
          "name": "",
          "type": "bool"
        }
      ],
      "stateMutability": "view",
      "type": "function"
    }
  ],
  "bytecode": "0x60806040523480156200001157600080fd5b50604051620025fe380380620025fe83398101604081905262000034916200025c565b818186868660008351116200009b5760405162461bcd60e51b815260206004820152602260248201527f496e76616c6964204e65617220546f6b656e20466163746f7279206164647265604482015261737360f01b60648201526084015b60405180910390fd5b6001600160a01b038216620000f35760405162461bcd60e51b815260206004820152601b60248201527f496e76616c6964204e6561722070726f76657220616464726573730000000000604482015260640162000092565b8251620001089060019060208601906200016b565b50600080546001600160a01b039384166001600160a01b031991821617909155600280546001600160401b039093166001600160401b031990931692909217909155600480549590921694169390931790925560055550620003b9945050505050565b82805462000179906200037c565b90600052602060002090601f0160209004810192826200019d5760008555620001e8565b82601f10620001b857805160ff1916838001178555620001e8565b82800160010185558215620001e8579182015b82811115620001e8578251825591602001919060010190620001cb565b50620001f6929150620001fa565b5090565b5b80821115620001f65760008155600101620001fb565b634e487b7160e01b600052604160045260246000fd5b80516001600160a01b03811681146200023f57600080fd5b919050565b80516001600160401b03811681146200023f57600080fd5b600080600080600060a086880312156200027557600080fd5b85516001600160401b03808211156200028d57600080fd5b818801915088601f830112620002a257600080fd5b815181811115620002b757620002b762000211565b604051601f8201601f19908116603f01168101908382118183101715620002e257620002e262000211565b81604052828152602093508b84848701011115620002ff57600080fd5b600091505b8282101562000323578482018401518183018501529083019062000304565b82821115620003355760008484830101525b98506200034791505088820162000227565b95505050620003596040870162000244565b9250620003696060870162000227565b9150608086015190509295509295909350565b600181811c908216806200039157607f821691505b60208210811415620003b357634e487b7160e01b600052602260045260246000fd5b50919050565b61223580620003c96000396000f3fe6080604052600436106100f35760003560e01c8063b8e9744c1161008a578063da72c1e811610059578063da72c1e8146102d3578063f48ab4e0146102f3578063f851a440146102fb578063fc63e1291461031b57600080fd5b8063b8e9744c1461023b578063bb00b6981461025b578063be831a2e14610293578063c0ee0b8a146102b357600080fd5b8063530208f2116100c6578063530208f2146101975780635c975abb146101b75780636c4624c3146101db57806384c1c519146101fb57600080fd5b80630889bfe7146100f85780631c420a201461011a5780632692c59f146101575780634a00c62914610177575b600080fd5b34801561010457600080fd5b50610118610113366004611d0d565b610330565b005b34801561012657600080fd5b5060025461013a906001600160401b031681565b6040516001600160401b0390911681526020015b60405180910390f35b34801561016357600080fd5b50610118610172366004611d79565b6104ab565b34801561018357600080fd5b50610118610192366004611db2565b6104c7565b3480156101a357600080fd5b506101186101b2366004611e0b565b61058f565b3480156101c357600080fd5b506101cd60055481565b60405190815260200161014e565b3480156101e757600080fd5b506101186101f6366004611e37565b6105dc565b34801561020757600080fd5b5061022b610216366004611d79565b60036020526000908152604090205460ff1681565b604051901515815260200161014e565b61024e610249366004611e63565b6105fe565b60405161014e9190611f0a565b34801561026757600080fd5b5060005461027b906001600160a01b031681565b6040516001600160a01b03909116815260200161014e565b34801561029f57600080fd5b506101186102ae366004611f1d565b61068c565b3480156102bf57600080fd5b506101186102ce366004611f3f565b505050565b3480156102df57600080fd5b506101186102ee366004611f8d565b6106a7565b6101186106d2565b34801561030757600080fd5b5060045461027b906001600160a01b031681565b34801561032757600080fd5b5061024e6106eb565b600180600554166000148061034f57506004546001600160a01b031633145b61035857600080fd5b6103676001600160801b611fe4565b6040516370a0823160e01b81523060048201526103db9085906001600160a01b038816906370a0823190602401602060405180830381865afa1580156103b1573d6000803e3d6000fd5b505050506040513d601f19601f820116820180604052508101906103d59190611ffb565b90610779565b11156104435760405162461bcd60e51b815260206004820152602c60248201527f4d6178696d756d20746f6b656e73206c6f636b6564206578636565646564202860448201526b3c20325e313238202d20312960a01b60648201526084015b60405180910390fd5b6104586001600160a01b03851633308661078c565b336001600160a01b0316846001600160a01b03167fdd85dc56b5b4da387bf69c28ec19b1d66e793e0d51b567882fa31dc50bbd32c5858560405161049d929190612014565b60405180910390a350505050565b6004546001600160a01b031633146104c257600080fd5b600555565b60028060055416600014806104e657506004546001600160a01b031633145b6104ef57600080fd5b60006104fb84846107fd565b9050600061050c8260600151610bdc565b604081015181516020830151929350610538926001600160a01b031691906001600160801b0316610caa565b805160408083015181516001600160801b0390931683526001600160a01b031660208301527f5fd575e9a8dd4ba1e9f434728800fe78c3c5ffccfa6a852bc7415294ecc0c2d5910160405180910390a15050505050565b6004546001600160a01b031633146105a657600080fd5b6040516001600160a01b0383169082156108fc029083906000818181858888f193505050501580156102ce573d6000803e3d6000fd5b6004546001600160a01b031633146105f357600080fd5b825491821816189055565b6004546060906001600160a01b0316331461061857600080fd5b600080846001600160a01b031684604051610633919061202d565b600060405180830381855af49150503d806000811461066e576040519150601f19603f3d011682016040523d82523d6000602084013e610673565b606091505b50915091508161068257600080fd5b9150505b92915050565b6004546001600160a01b031633146106a357600080fd5b9055565b6004546001600160a01b031633146106be57600080fd5b6102ce6001600160a01b0384168383610caa565b6004546001600160a01b031633146106e957600080fd5b565b600180546106f890612049565b80601f016020809104026020016040519081016040528092919081815260200182805461072490612049565b80156107715780601f1061074657610100808354040283529160200191610771565b820191906000526020600020905b81548152906001019060200180831161075457829003601f168201915b505050505081565b6000610785828461207e565b9392505050565b6040516001600160a01b03808516602483015283166044820152606481018290526107f79085906323b872dd60e01b906084015b60408051601f198184030181529190526020810180516001600160e01b03166001600160e01b031990931692909217909152610cda565b50505050565b6040805160a08101825260008082526020820181905291810182905260608082015260808101919091526002546001600160401b0390811690831610156108865760405162461bcd60e51b815260206004820152601f60248201527f50726f6f662069732066726f6d2074686520616e6369656e7420626c6f636b00604482015260640161043a565b6000546040516392d68dfd60e01b81526001600160a01b03909116906392d68dfd906108b89086908690600401612096565b602060405180830381865afa1580156108d5573d6000803e3d6000fd5b505050506040513d601f19601f820116820180604052508101906108f991906120c1565b61093d5760405162461bcd60e51b8152602060048201526015602482015274141c9bdbd9881cda1bdd5b19081899481d985b1a59605a1b604482015260640161043a565b600061094884610dac565b9050600061095582610ddd565b905061096082610e1f565b60008160000151604001516020015160200151600081518110610985576109856120e3565b6020908102919091018101516000818152600390925260409091205490915060ff1615610a025760405162461bcd60e51b815260206004820152602560248201527f546865206275726e206576656e742070726f6f662063616e6e6f742062652072604482015264195d5cd95960da1b606482015260840161043a565b60008181526003602052604090819020805460ff191660019081179091559051610a2c91906120f9565b604051809103902082600001516040015160200151608001518051906020012014610ad05760405162461bcd60e51b815260206004820152604860248201527f43616e206f6e6c7920756e6c6f636b20746f6b656e732066726f6d207468652060448201527f6c696e6b65642070726f6f662070726f6475636572206f6e204e65617220626c60648201526737b1b5b1b430b4b760c11b608482015260a40161043a565b8160000151604001516020015160a001519350836040015115610b5b5760405162461bcd60e51b815260206004820152603c60248201527f43616e6e6f7420757365206661696c656420657865637574696f6e206f75746360448201527f6f6d6520666f7220756e6c6f636b696e672074686520746f6b656e7300000000606482015260840161043a565b836020015115610bd35760405162461bcd60e51b815260206004820152603d60248201527f43616e6e6f742075736520756e6b6e6f776e20657865637574696f6e206f757460448201527f636f6d6520666f7220756e6c6f636b696e672074686520746f6b656e73000000606482015260840161043a565b50505092915050565b6040805160608101825260008082526020820181905291810182905290610c0283610dac565b90506000610c0f82610e76565b905060ff811615610c625760405162461bcd60e51b815260206004820152601760248201527f4552525f4e4f545f57495448445241575f524553554c54000000000000000000604482015260640161043a565b610c6b82610e8c565b6001600160801b031683526000610c8183610f39565b606081901c602086015290506000610c9884610f39565b60601c60408601525092949350505050565b6040516001600160a01b0383166024820152604481018290526102ce90849063a9059cbb60e01b906064016107c0565b6000610d2f826040518060400160405280602081526020017f5361666545524332303a206c6f772d6c6576656c2063616c6c206661696c6564815250856001600160a01b0316610f469092919063ffffffff16565b8051909150156102ce5780806020019051810190610d4d91906120c1565b6102ce5760405162461bcd60e51b815260206004820152602a60248201527f5361666545524332303a204552433230206f7065726174696f6e20646964206e6044820152691bdd081cdd58d8d9595960b21b606482015260840161043a565b604080518082019091526000808252602082015260208201815281610dcf815190565b825101602083015250919050565b610de5611adc565b610dee82610f5d565b8152610df982610f91565b6020820152610e078261105c565b6040820152610e1582610f91565b6060820152919050565b6020810151815114610e735760405162461bcd60e51b815260206004820152601960248201527f5061727365206572726f723a20454f4920657870656374656400000000000000604482015260640161043a565b50565b6000610e83826001611178565b60f81c92915050565b6000610686610e9c836010611178565b60801c6dff000000ff000000ff000000ff00600882811b9182166cff000000ff000000ff000000ff9390911c92831617601090811b6fff000000ff000000ff000000ff0000009092166eff000000ff000000ff000000ff00009093169290921790911c17602081811b6fffffffff00000000ffffffff00000000166bffffffff00000000ffffffff9290911c9190911617604081811b91901c1790565b6000610686826014611178565b6060610f558484600085611191565b949350505050565b610f65611b37565b610f6e82610f91565b8152610f79826112b9565b6020820152610f87826112c6565b6040820152919050565b604080516020810190915260608152610fa9826113a1565b63ffffffff166001600160401b03811115610fc657610fc6611c82565b60405190808252806020026020018201604052801561100b57816020015b6040805180820190915260008082526020820152815260200190600190039081610fe45790505b50815260005b81515181101561105657611024836113d7565b8251805183908110611038576110386120e3565b6020026020010181905250808061104e90612195565b915050611011565b50919050565b611064611b5d565b61106d826112b9565b8152611078826112b9565b602082015261108682611483565b60408083018290526101009091015160208084015183519182019290925291820152600290819060600160408051601f19818403018152908290526110ca9161202d565b602060405180830381855afa1580156110e7573d6000803e3d6000fd5b5050506040513d601f19601f8201168201806040525081019061110a9190611ffb565b825160408051602081019390935282015260600160408051601f19818403018152908290526111389161202d565b602060405180830381855afa158015611155573d6000803e3d6000fd5b5050506040513d601f19601f82011682018060405250810190610e159190611ffb565b60006111848383611520565b5081518051910190915290565b6060824710156111f25760405162461bcd60e51b815260206004820152602660248201527f416464726573733a20696e73756666696369656e742062616c616e636520666f6044820152651c8818d85b1b60d21b606482015260840161043a565b843b6112405760405162461bcd60e51b815260206004820152601d60248201527f416464726573733a2063616c6c20746f206e6f6e2d636f6e7472616374000000604482015260640161043a565b600080866001600160a01b0316858760405161125c919061202d565b60006040518083038185875af1925050503d8060008114611299576040519150601f19603f3d011682016040523d82523d6000602084013e61129e565b606091505b50915091506112ae82828661157b565b979650505050505050565b6000610686826020611178565b6112ce611b89565b6112d7826112b9565b81526112e2826115b4565b6020820181905260c00151516000906112fc90600161207e565b90506002600882811c62ff00ff1663ff00ff009184901b9190911617601081811c91901b17835160208086015160c0015160405161133c949392016121b0565b60408051601f19818403018152908290526113569161202d565b602060405180830381855afa158015611373573d6000803e3d6000fd5b5050506040513d601f19601f820116820180604052508101906113969190611ffb565b604083015250919050565b60006106866113b1836004611178565b60e881901c62ff00ff1663ff00ff0060d89290921c9190911617601081811c91901b1790565b60408051808201909152600080825260208201526113f4826112b9565b81526113ff82610e76565b60ff166020820181905260021161147e5760405162461bcd60e51b815260206004820152603760248201527f50726f6f664465636f6465723a204d65726b6c65506174684974656d2064697260448201527f656374696f6e2073686f756c642062652030206f722031000000000000000000606482015260840161043a565b919050565b61148b611ba4565b6114968260d061189c565b6101008201526114a5826118b4565b6001600160401b031681526114b9826112b9565b60208201526114c7826112b9565b60408201526114d5826112b9565b60608201526114e3826112b9565b60808201526114f1826118b4565b6001600160401b031660a0820152611508826112b9565b60c0820152611516826112b9565b60e0820152919050565b60208201518251820111156115775760405162461bcd60e51b815260206004820152601b60248201527f5061727365206572726f723a20756e657870656374656420454f490000000000604482015260640161043a565b5050565b6060831561158a575081610785565b82511561159a5782518084602001fd5b8160405162461bcd60e51b815260040161043a9190611f0a565b6115bc611bf0565b6115c5826113a1565b63ffffffff166001600160401b038111156115e2576115e2611c82565b60405190808252806020026020018201604052801561161557816020015b60608152602001906001900390816116005790505b50815260005b8151518110156116605761162e83611929565b8251805183908110611642576116426120e3565b6020026020010181905250808061165890612195565b91505061161b565b50815161166c836113a1565b63ffffffff166001600160401b0381111561168957611689611c82565b6040519080825280602002602001820160405280156116b2578160200160208202803683370190505b50602083015260005b826020015151811015611704576116d1846112b9565b836020015182815181106116e7576116e76120e3565b6020908102919091010152806116fc81612195565b9150506116bb565b5061170e836118b4565b6001600160401b0316604083015261172583610e8c565b6001600160801b0316606083015261173c83611929565b608083015261174a83611969565b60a083015281515161175d90600161207e565b6001600160401b0381111561177457611774611c82565b60405190808252806020026020018201604052801561179d578160200160208202803683370190505b5060c083015282516117bb9082906117b6908290611fe4565b611a70565b8260c001516000815181106117d2576117d26120e3565b60200260200101818152505060005b82515181101561189557600283600001518281518110611803576118036120e3565b6020026020010151604051611818919061202d565b602060405180830381855afa158015611835573d6000803e3d6000fd5b5050506040513d601f19601f820116820180604052508101906118589190611ffb565b60c084015161186883600161207e565b81518110611878576118786120e3565b60209081029190910101528061188d81612195565b9150506117e1565b5050919050565b60006118a88383611520565b82516107859083611a70565b60006106866118c4836008611178565b66ff000000ff000060c882901c90811667ff000000ff00000060b89390931c92831617601090811c64ff000000ff9290921665ff000000ff00939093169290921790911b17602081811c63ffffffff1691901b6bffffffffffffffff00000000161790565b60606000611936836113a1565b63ffffffff169050611951818461152090919063ffffffff16565b825161195d9082611a92565b83519091019092525090565b6040805160a081018252600080825260208201819052918101829052606080820152608081019190915261199c82610e76565b60ff168082526119b25760016020820152919050565b806000015160ff16600114156119ce5760016040820152919050565b806000015160ff16600214156119e757610e1582611929565b806000015160ff1660031415611a0a57611a00826112b9565b6080820152919050565b60405162461bcd60e51b815260206004820152603560248201527f4e6561724465636f6465723a206465636f6465457865637574696f6e53746174604482015274757320696e646578206f7574206f662072616e676560581b606482015260840161043a565b600060206000838560025afa5b80611a8757611a7d565b505060005192915050565b60608115610686576040519050601f19603f830116810180604052828252602082015b8451815260200181811415611ac957611ad4565b602085019450611ab5565b505092915050565b6040518060800160405280611aef611b37565b8152602001611b0a6040518060200160405280606081525090565b8152602001611b17611b5d565b8152602001611b326040518060200160405280606081525090565b905290565b604080516080810182526060808201908152815260006020820152908101611b32611b89565b6040805160808101825260008082526020820152908101611b7c611ba4565b8152600060209091015290565b60408051606081019091526000815260208101611b7c611bf0565b6040805161012081018252600080825260208201819052918101829052606081018290526080810182905260a0810182905260c0810182905260e0810182905261010081019190915290565b6040518060e00160405280606081526020016060815260200160006001600160401b0316815260200160006001600160801b0316815260200160608152602001611c606040805160a081018252600080825260208201819052918101829052606080820152608081019190915290565b8152602001606081525090565b6001600160a01b0381168114610e7357600080fd5b634e487b7160e01b600052604160045260246000fd5b60006001600160401b0380841115611cb257611cb2611c82565b604051601f8501601f19908116603f01168101908282118183101715611cda57611cda611c82565b81604052809350858152868686011115611cf357600080fd5b858560208301376000602087830101525050509392505050565b600080600060608486031215611d2257600080fd5b8335611d2d81611c6d565b92506020840135915060408401356001600160401b03811115611d4f57600080fd5b8401601f81018613611d6057600080fd5b611d6f86823560208401611c98565b9150509250925092565b600060208284031215611d8b57600080fd5b5035919050565b600082601f830112611da357600080fd5b61078583833560208501611c98565b60008060408385031215611dc557600080fd5b82356001600160401b0380821115611ddc57600080fd5b611de886838701611d92565b9350602085013591508082168214611dff57600080fd5b50809150509250929050565b60008060408385031215611e1e57600080fd5b8235611e2981611c6d565b946020939093013593505050565b600080600060608486031215611e4c57600080fd5b505081359360208301359350604090920135919050565b60008060408385031215611e7657600080fd5b8235611e8181611c6d565b915060208301356001600160401b03811115611e9c57600080fd5b611ea885828601611d92565b9150509250929050565b60005b83811015611ecd578181015183820152602001611eb5565b838111156107f75750506000910152565b60008151808452611ef6816020860160208601611eb2565b601f01601f19169290920160200192915050565b6020815260006107856020830184611ede565b60008060408385031215611f3057600080fd5b50508035926020909101359150565b600080600060608486031215611f5457600080fd5b8335611f5f81611c6d565b92506020840135915060408401356001600160401b03811115611f8157600080fd5b611d6f86828701611d92565b600080600060608486031215611fa257600080fd5b8335611fad81611c6d565b92506020840135611fbd81611c6d565b929592945050506040919091013590565b634e487b7160e01b600052601160045260246000fd5b600082821015611ff657611ff6611fce565b500390565b60006020828403121561200d57600080fd5b5051919050565b828152604060208201526000610f556040830184611ede565b6000825161203f818460208701611eb2565b9190910192915050565b600181811c9082168061205d57607f821691505b6020821081141561105657634e487b7160e01b600052602260045260246000fd5b6000821982111561209157612091611fce565b500190565b6040815260006120a96040830185611ede565b90506001600160401b03831660208301529392505050565b6000602082840312156120d357600080fd5b8151801515811461078557600080fd5b634e487b7160e01b600052603260045260246000fd5b600080835481600182811c91508083168061211557607f831692505b602080841082141561213557634e487b7160e01b86526022600452602486fd5b818015612149576001811461215a57612187565b60ff19861689528489019650612187565b60008a81526020902060005b8681101561217f5781548b820152908501908301612166565b505084890196505b509498975050505050505050565b60006000198214156121a9576121a9611fce565b5060010190565b63ffffffff60e01b8460e01b1681528260048201526000602482018351602080860160005b838110156121f1578151855293820193908201906001016121d5565b50929897505050505050505056fea26469706673582212208ae4fa9066e80a83eb9655ec4cf0a7c96aa82d8b58ee04fd1ba5afa2c1235bf264736f6c634300080b0033",
  "linkReferences": {},
  "deployedLinkReferences": {}
}