{
  "_format": "hh-sol-artifact-1",
  "contractName": "Locker",
  "sourceName": "contracts/Locker.sol",
  "abi": [
    {
      "inputs": [
        {
          "internalType": "bytes",
          "name": "nearTokenFactory",
          "type": "bytes"
        },
        {
          "internalType": "contract INearProver",
          "name": "prover",
          "type": "address"
        },
        {
          "internalType": "uint64",
          "name": "minBlockAcceptanceHeight",
          "type": "uint64"
        }
      ],
      "stateMutability": "nonpayable",
      "type": "constructor"
    },
    {
      "inputs": [],
      "name": "minBlockAcceptanceHeight_",
      "outputs": [
        {
          "internalType": "uint64",
          "name": "",
          "type": "uint64"
        }
      ],
      "stateMutability": "view",
      "type": "function"
    },
    {
      "inputs": [],
      "name": "nearTokenFactory_",
      "outputs": [
        {
          "internalType": "bytes",
          "name": "",
          "type": "bytes"
        }
      ],
      "stateMutability": "view",
      "type": "function"
    },
    {
      "inputs": [],
      "name": "prover_",
      "outputs": [
        {
          "internalType": "contract INearProver",
          "name": "",
          "type": "address"
        }
      ],
      "stateMutability": "view",
      "type": "function"
    },
    {
      "inputs": [
        {
          "internalType": "bytes32",
          "name": "",
          "type": "bytes32"
        }
      ],
      "name": "usedProofs_",
      "outputs": [
        {
          "internalType": "bool",
          "name": "",
          "type": "bool"
        }
      ],
      "stateMutability": "view",
      "type": "function"
    }
  ],
  "bytecode": "0x608060405234801561001057600080fd5b506040516105c13803806105c183398101604081905261002f91610222565b60008351116100905760405162461bcd60e51b815260206004820152602260248201527f496e76616c6964204e65617220546f6b656e20466163746f7279206164647265604482015261737360f01b60648201526084015b60405180910390fd5b6001600160a01b0382166100e65760405162461bcd60e51b815260206004820152601b60248201527f496e76616c6964204e6561722070726f766572206164647265737300000000006044820152606401610087565b82516100f9906001906020860190610140565b50600080546001600160a01b0319166001600160a01b039390931692909217909155600280546001600160401b0319166001600160401b039092169190911790555061034f565b82805461014c90610314565b90600052602060002090601f01602090048101928261016e57600085556101b4565b82601f1061018757805160ff19168380011785556101b4565b828001600101855582156101b4579182015b828111156101b4578251825591602001919060010190610199565b506101c09291506101c4565b5090565b5b808211156101c057600081556001016101c5565b634e487b7160e01b600052604160045260246000fd5b80516001600160a01b038116811461020657600080fd5b919050565b80516001600160401b038116811461020657600080fd5b60008060006060848603121561023757600080fd5b83516001600160401b038082111561024e57600080fd5b818601915086601f83011261026257600080fd5b815181811115610274576102746101d9565b604051601f8201601f19908116603f0116810190838211818310171561029c5761029c6101d9565b816040528281526020935089848487010111156102b857600080fd5b600091505b828210156102da57848201840151818301850152908301906102bd565b828211156102eb5760008484830101525b96506102fb9150508682016101ef565b9350505061030b6040850161020b565b90509250925092565b600181811c9082168061032857607f821691505b6020821081141561034957634e487b7160e01b600052602260045260246000fd5b50919050565b6102638061035e6000396000f3fe608060405234801561001057600080fd5b506004361061004c5760003560e01c80631c420a201461005157806384c1c51914610083578063bb00b698146100b6578063fc63e129146100e1575b600080fd5b6002546100659067ffffffffffffffff1681565b60405167ffffffffffffffff90911681526020015b60405180910390f35b6100a6610091366004610184565b60036020526000908152604090205460ff1681565b604051901515815260200161007a565b6000546100c9906001600160a01b031681565b6040516001600160a01b03909116815260200161007a565b6100e96100f6565b60405161007a919061019d565b60018054610103906101f2565b80601f016020809104026020016040519081016040528092919081815260200182805461012f906101f2565b801561017c5780601f106101515761010080835404028352916020019161017c565b820191906000526020600020905b81548152906001019060200180831161015f57829003601f168201915b505050505081565b60006020828403121561019657600080fd5b5035919050565b600060208083528351808285015260005b818110156101ca578581018301518582016040015282016101ae565b818111156101dc576000604083870101525b50601f01601f1916929092016040019392505050565b600181811c9082168061020657607f821691505b6020821081141561022757634e487b7160e01b600052602260045260246000fd5b5091905056fea2646970667358221220f59d021db1a439427a934b5ee8bd9bd9f671acff1f247bebfef27c14bd58aa4664736f6c634300080b0033",
  "linkReferences": {},
  "deployedLinkReferences": {}
}