{
  "_format": "hh-sol-artifact-1",
  "contractName": "NearProverMock",
  "sourceName": "contracts/test/NearProverMock.sol",
  "abi": [
    {
      "inputs": [
        {
          "internalType": "bytes",
          "name": "",
          "type": "bytes"
        },
        {
          "internalType": "uint64",
          "name": "",
          "type": "uint64"
        }
      ],
      "name": "proveOutcome",
      "outputs": [
        {
          "internalType": "bool",
          "name": "",
          "type": "bool"
        }
      ],
      "stateMutability": "pure",
      "type": "function"
    }
  ],
  "bytecode": "0x608060405234801561001057600080fd5b50610185806100206000396000f3fe608060405234801561001057600080fd5b506004361061002b5760003560e01c806392d68dfd14610030575b600080fd5b61004661003e36600461008d565b600192915050565b604051901515815260200160405180910390f35b634e487b7160e01b600052604160045260246000fd5b803567ffffffffffffffff8116811461008857600080fd5b919050565b600080604083850312156100a057600080fd5b823567ffffffffffffffff808211156100b857600080fd5b818501915085601f8301126100cc57600080fd5b8135818111156100de576100de61005a565b604051601f8201601f19908116603f011681019083821181831017156101065761010661005a565b8160405282815288602084870101111561011f57600080fd5b82602086016020830137600060208483010152809650505050505061014660208401610070565b9050925092905056fea26469706673582212205e98c6e8e00d7e3249b54cc63d8bedc2f6b2b77b49e12581b3a5e9f492593d5264736f6c634300080b0033",
  "linkReferences": {},
  "deployedLinkReferences": {}
}