{
  "_format": "hh-sol-artifact-1",
  "contractName": "ProofConsumer",
  "sourceName": "contracts/ProofConsumer.sol",
  "abi": [
    {
      "inputs": [
        {
          "internalType": "bytes",
          "name": "_nearTokenLocker",
          "type": "bytes"
        },
        {
          "internalType": "contract INearProver",
          "name": "_prover",
          "type": "address"
        },
        {
          "internalType": "uint64",
          "name": "_minBlockAcceptanceHeight",
          "type": "uint64"
        }
      ],
      "stateMutability": "nonpayable",
      "type": "constructor"
    },
    {
      "anonymous": false,
      "inputs": [
        {
          "indexed": true,
          "internalType": "address",
          "name": "previousOwner",
          "type": "address"
        },
        {
          "indexed": true,
          "internalType": "address",
          "name": "newOwner",
          "type": "address"
        }
      ],
      "name": "OwnershipTransferred",
      "type": "event"
    },
    {
      "inputs": [],
      "name": "minBlockAcceptanceHeight",
      "outputs": [
        {
          "internalType": "uint64",
          "name": "",
          "type": "uint64"
        }
      ],
      "stateMutability": "view",
      "type": "function"
    },
    {
      "inputs": [],
      "name": "nearTokenLocker",
      "outputs": [
        {
          "internalType": "bytes",
          "name": "",
          "type": "bytes"
        }
      ],
      "stateMutability": "view",
      "type": "function"
    },
    {
      "inputs": [],
      "name": "owner",
      "outputs": [
        {
          "internalType": "address",
          "name": "",
          "type": "address"
        }
      ],
      "stateMutability": "view",
      "type": "function"
    },
    {
      "inputs": [
        {
          "internalType": "bytes",
          "name": "proofData",
          "type": "bytes"
        },
        {
          "internalType": "uint64",
          "name": "proofBlockHeight",
          "type": "uint64"
        }
      ],
      "name": "parseAndConsumeProof",
      "outputs": [
        {
          "components": [
            {
              "internalType": "uint8",
              "name": "enumIndex",
              "type": "uint8"
            },
            {
              "internalType": "bool",
              "name": "unknown",
              "type": "bool"
            },
            {
              "internalType": "bool",
              "name": "failed",
              "type": "bool"
            },
            {
              "internalType": "bytes",
              "name": "successValue",
              "type": "bytes"
            },
            {
              "internalType": "bytes32",
              "name": "successReceiptId",
              "type": "bytes32"
            }
          ],
          "internalType": "struct ProofDecoder.ExecutionStatus",
          "name": "result",
          "type": "tuple"
        }
      ],
      "stateMutability": "nonpayable",
      "type": "function"
    },
    {
      "inputs": [],
      "name": "prover",
      "outputs": [
        {
          "internalType": "contract INearProver",
          "name": "",
          "type": "address"
        }
      ],
      "stateMutability": "view",
      "type": "function"
    },
    {
      "inputs": [],
      "name": "renounceOwnership",
      "outputs": [],
      "stateMutability": "nonpayable",
      "type": "function"
    },
    {
      "inputs": [
        {
          "internalType": "address",
          "name": "newOwner",
          "type": "address"
        }
      ],
      "name": "transferOwnership",
      "outputs": [],
      "stateMutability": "nonpayable",
      "type": "function"
    },
    {
      "inputs": [
        {
          "internalType": "bytes32",
          "name": "",
          "type": "bytes32"
        }
      ],
      "name": "usedProofs",
      "outputs": [
        {
          "internalType": "bool",
          "name": "",
          "type": "bool"
        }
      ],
      "stateMutability": "view",
      "type": "function"
    }
  ],
  "bytecode": "0x60806040523480156200001157600080fd5b5060405162001cdb38038062001cdb833981016040819052620000349162000296565b6200003f3362000155565b6000835111620000a05760405162461bcd60e51b815260206004820152602160248201527f496e76616c6964204e65617220546f6b656e204c6f636b6572206164647265736044820152607360f81b60648201526084015b60405180910390fd5b6001600160a01b038216620000f85760405162461bcd60e51b815260206004820152601b60248201527f496e76616c6964204e6561722070726f76657220616464726573730000000000604482015260640162000097565b82516200010d906002906020860190620001a5565b50600180546001600160a01b0319166001600160a01b039390931692909217909155600380546001600160401b0319166001600160401b0390921691909117905550620003d6565b600080546001600160a01b038381166001600160a01b0319831681178455604051919092169283917f8be0079c531659141344cd1fd0a4f28419497f9722a3daafe3b4186f6b6457e09190a35050565b828054620001b39062000399565b90600052602060002090601f016020900481019282620001d7576000855562000222565b82601f10620001f257805160ff191683800117855562000222565b8280016001018555821562000222579182015b828111156200022257825182559160200191906001019062000205565b506200023092915062000234565b5090565b5b8082111562000230576000815560010162000235565b634e487b7160e01b600052604160045260246000fd5b80516001600160a01b03811681146200027957600080fd5b919050565b80516001600160401b03811681146200027957600080fd5b600080600060608486031215620002ac57600080fd5b83516001600160401b0380821115620002c457600080fd5b818601915086601f830112620002d957600080fd5b815181811115620002ee57620002ee6200024b565b604051601f8201601f19908116603f011681019083821181831017156200031957620003196200024b565b816040528281526020935089848487010111156200033657600080fd5b600091505b828210156200035a57848201840151818301850152908301906200033b565b828211156200036c5760008484830101525b96506200037e91505086820162000261565b9350505062000390604085016200027e565b90509250925092565b600181811c90821680620003ae57607f821691505b60208210811415620003d057634e487b7160e01b600052602260045260246000fd5b50919050565b6118f580620003e66000396000f3fe608060405234801561001057600080fd5b50600436106100885760003560e01c8063a93933b41161005b578063a93933b414610103578063aff046a814610123578063c30a0f2514610138578063f2fde38b1461016b57600080fd5b806332a8f30f1461008d5780636bf43296146100bd578063715018a6146100e85780638da5cb5b146100f2575b600080fd5b6001546100a0906001600160a01b031681565b6040516001600160a01b0390911681526020015b60405180910390f35b6003546100d0906001600160401b031681565b6040516001600160401b0390911681526020016100b4565b6100f061017e565b005b6000546001600160a01b03166100a0565b6101166101113660046114de565b610192565b6040516100b491906115fb565b61012b6105ba565b6040516100b49190611652565b61015b610146366004611665565b60046020526000908152604090205460ff1681565b60405190151581526020016100b4565b6100f061017936600461167e565b610648565b6101866106c1565b610190600061071b565b565b6040805160a08101825260008082526020820181905291810182905260608082015260808101919091526101c46106c1565b6001546040516392d68dfd60e01b81526001600160a01b03909116906392d68dfd906101f690869086906004016116a7565b602060405180830381865afa158015610213573d6000803e3d6000fd5b505050506040513d601f19601f8201168201806040525081019061023791906116d2565b6102805760405162461bcd60e51b8152602060048201526015602482015274141c9bdbd9881cda1bdd5b19081899481d985b1a59605a1b60448201526064015b60405180910390fd5b600061028b8461076b565b905060006102988261079c565b90506102a3826107de565b6003546040808301510151516001600160401b039182169116101561030a5760405162461bcd60e51b815260206004820152601f60248201527f50726f6f662069732066726f6d2074686520616e6369656e7420626c6f636b006044820152606401610277565b6000816000015160400151602001516020015160008151811061032f5761032f6116f4565b6020908102919091018101516000818152600490925260409091205490915060ff16156103ac5760405162461bcd60e51b815260206004820152602560248201527f546865206275726e206576656e742070726f6f662063616e6e6f742062652072604482015264195d5cd95960da1b6064820152608401610277565b60008181526004602052604090819020805460ff19166001179055516103d49060029061173f565b6040518091039020826000015160400151602001516080015180519060200120146104855760405162461bcd60e51b815260206004820152605560248201527f43616e206f6e6c7920756e6c6f636b20746f6b656e732f736574206d6574616460448201527f6174612066726f6d20746865206c696e6b65642070726f6f662070726f64756360648201527432b21037b7102732b0b910313637b1b5b1b430b4b760591b608482015260a401610277565b8160000151604001516020015160a0015193508360400151156105245760405162461bcd60e51b815260206004820152604b60248201527f43616e277420757365206661696c656420657865637574696f6e206f7574636f60448201527f6d6520666f7220756e6c6f636b696e672074686520746f6b656e73206f72207360648201526a6574206d6574616461746160a81b608482015260a401610277565b8360200151156105b15760405162461bcd60e51b815260206004820152604c60248201527f43616e27742075736520756e6b6e6f776e20657865637574696f6e206f75746360448201527f6f6d6520666f7220756e6c6f636b696e672074686520746f6b656e73206f722060648201526b736574206d6574616461746160a01b608482015260a401610277565b50505092915050565b600280546105c79061170a565b80601f01602080910402602001604051908101604052809291908181526020018280546105f39061170a565b80156106405780601f1061061557610100808354040283529160200191610640565b820191906000526020600020905b81548152906001019060200180831161062357829003601f168201915b505050505081565b6106506106c1565b6001600160a01b0381166106b55760405162461bcd60e51b815260206004820152602660248201527f4f776e61626c653a206e6577206f776e657220697320746865207a65726f206160448201526564647265737360d01b6064820152608401610277565b6106be8161071b565b50565b6000546001600160a01b031633146101905760405162461bcd60e51b815260206004820181905260248201527f4f776e61626c653a2063616c6c6572206973206e6f7420746865206f776e65726044820152606401610277565b600080546001600160a01b038381166001600160a01b0319831681178455604051919092169283917f8be0079c531659141344cd1fd0a4f28419497f9722a3daafe3b4186f6b6457e09190a35050565b60408051808201909152600080825260208201526020820181528161078e815190565b825101602083015250919050565b6107a4611320565b6107ad82610832565b81526107b882610866565b60208201526107c682610931565b60408201526107d482610866565b6060820152919050565b60208101518151146106be5760405162461bcd60e51b815260206004820152601960248201527f5061727365206572726f723a20454f49206578706563746564000000000000006044820152606401610277565b61083a61137b565b61084382610866565b815261084e82610a4d565b602082015261085c82610a60565b6040820152919050565b60408051602081019091526060815261087e82610b3b565b63ffffffff166001600160401b0381111561089b5761089b6114b1565b6040519080825280602002602001820160405280156108e057816020015b60408051808201909152600080825260208201528152602001906001900390816108b95790505b50815260005b81515181101561092b576108f983610b71565b825180518390811061090d5761090d6116f4565b60200260200101819052508080610923906117f1565b9150506108e6565b50919050565b6109396113a1565b61094282610a4d565b815261094d82610a4d565b602082015261095b82610c1d565b60408083018290526101009091015160208084015183519182019290925291820152600290819060600160408051601f198184030181529082905261099f9161180c565b602060405180830381855afa1580156109bc573d6000803e3d6000fd5b5050506040513d601f19601f820116820180604052508101906109df9190611828565b825160408051602081019390935282015260600160408051601f1981840301815290829052610a0d9161180c565b602060405180830381855afa158015610a2a573d6000803e3d6000fd5b5050506040513d601f19601f820116820180604052508101906107d49190611828565b6000610a5a826020610cba565b92915050565b610a686113cd565b610a7182610a4d565b8152610a7c82610cd3565b6020820181905260c0015151600090610a96906001611841565b90506002600882811c62ff00ff1663ff00ff009184901b9190911617601081811c91901b17835160208086015160c00151604051610ad694939201611859565b60408051601f1981840301815290829052610af09161180c565b602060405180830381855afa158015610b0d573d6000803e3d6000fd5b5050506040513d601f19601f82011682018060405250810190610b309190611828565b604083015250919050565b6000610a5a610b4b836004610cba565b60e881901c62ff00ff1663ff00ff0060d89290921c9190911617601081811c91901b1790565b6040805180820190915260008082526020820152610b8e82610a4d565b8152610b9982610fbb565b60ff1660208201819052600211610c185760405162461bcd60e51b815260206004820152603760248201527f50726f6f664465636f6465723a204d65726b6c65506174684974656d2064697260448201527f656374696f6e2073686f756c642062652030206f7220310000000000000000006064820152608401610277565b919050565b610c256113e8565b610c308260d0610fd1565b610100820152610c3f82610ff0565b6001600160401b03168152610c5382610a4d565b6020820152610c6182610a4d565b6040820152610c6f82610a4d565b6060820152610c7d82610a4d565b6080820152610c8b82610ff0565b6001600160401b031660a0820152610ca282610a4d565b60c0820152610cb082610a4d565b60e0820152919050565b6000610cc68383611065565b5081518051910190915290565b610cdb611434565b610ce482610b3b565b63ffffffff166001600160401b03811115610d0157610d016114b1565b604051908082528060200260200182016040528015610d3457816020015b6060815260200190600190039081610d1f5790505b50815260005b815151811015610d7f57610d4d836110c0565b8251805183908110610d6157610d616116f4565b60200260200101819052508080610d77906117f1565b915050610d3a565b508151610d8b83610b3b565b63ffffffff166001600160401b03811115610da857610da86114b1565b604051908082528060200260200182016040528015610dd1578160200160208202803683370190505b50602083015260005b826020015151811015610e2357610df084610a4d565b83602001518281518110610e0657610e066116f4565b602090810291909101015280610e1b816117f1565b915050610dda565b50610e2d83610ff0565b6001600160401b03166040830152610e4483611100565b6001600160801b03166060830152610e5b836110c0565b6080830152610e69836111ad565b60a0830152815151610e7c906001611841565b6001600160401b03811115610e9357610e936114b1565b604051908082528060200260200182016040528015610ebc578160200160208202803683370190505b5060c08301528251610eda908290610ed59082906118a8565b6112b4565b8260c00151600081518110610ef157610ef16116f4565b60200260200101818152505060005b825151811015610fb457600283600001518281518110610f2257610f226116f4565b6020026020010151604051610f37919061180c565b602060405180830381855afa158015610f54573d6000803e3d6000fd5b5050506040513d601f19601f82011682018060405250810190610f779190611828565b60c0840151610f87836001611841565b81518110610f9757610f976116f4565b602090810291909101015280610fac816117f1565b915050610f00565b5050919050565b6000610fc8826001610cba565b60f81c92915050565b6000610fdd8383611065565b8251610fe990836112b4565b9392505050565b6000610a5a611000836008610cba565b66ff000000ff000060c882901c90811667ff000000ff00000060b89390931c92831617601090811c64ff000000ff9290921665ff000000ff00939093169290921790911b17602081811c63ffffffff1691901b6bffffffffffffffff00000000161790565b60208201518251820111156110bc5760405162461bcd60e51b815260206004820152601b60248201527f5061727365206572726f723a20756e657870656374656420454f4900000000006044820152606401610277565b5050565b606060006110cd83610b3b565b63ffffffff1690506110e8818461106590919063ffffffff16565b82516110f490826112d6565b83519091019092525090565b6000610a5a611110836010610cba565b60801c6dff000000ff000000ff000000ff00600882811b9182166cff000000ff000000ff000000ff9390911c92831617601090811b6fff000000ff000000ff000000ff0000009092166eff000000ff000000ff000000ff00009093169290921790911c17602081811b6fffffffff00000000ffffffff00000000166bffffffff00000000ffffffff9290911c9190911617604081811b91901c1790565b6040805160a08101825260008082526020820181905291810182905260608082015260808101919091526111e082610fbb565b60ff168082526111f65760016020820152919050565b806000015160ff16600114156112125760016040820152919050565b806000015160ff166002141561122b576107d4826110c0565b806000015160ff166003141561124e5761124482610a4d565b6080820152919050565b60405162461bcd60e51b815260206004820152603560248201527f4e6561724465636f6465723a206465636f6465457865637574696f6e53746174604482015274757320696e646578206f7574206f662072616e676560581b6064820152608401610277565b600060206000838560025afa5b806112cb576112c1565b505060005192915050565b60608115610a5a576040519050601f19603f830116810180604052828252602082015b845181526020018181141561130d57611318565b6020850194506112f9565b505092915050565b604051806080016040528061133361137b565b815260200161134e6040518060200160405280606081525090565b815260200161135b6113a1565b81526020016113766040518060200160405280606081525090565b905290565b6040805160808101825260608082019081528152600060208201529081016113766113cd565b60408051608081018252600080825260208201529081016113c06113e8565b8152600060209091015290565b604080516060810190915260008152602081016113c0611434565b6040805161012081018252600080825260208201819052918101829052606081018290526080810182905260a0810182905260c0810182905260e0810182905261010081019190915290565b6040518060e00160405280606081526020016060815260200160006001600160401b0316815260200160006001600160801b03168152602001606081526020016114a46040805160a081018252600080825260208201819052918101829052606080820152608081019190915290565b8152602001606081525090565b634e487b7160e01b600052604160045260246000fd5b80356001600160401b0381168114610c1857600080fd5b600080604083850312156114f157600080fd5b82356001600160401b038082111561150857600080fd5b818501915085601f83011261151c57600080fd5b81358181111561152e5761152e6114b1565b604051601f8201601f19908116603f01168101908382118183101715611556576115566114b1565b8160405282815288602084870101111561156f57600080fd5b826020860160208301376000602084830101528096505050505050611596602084016114c7565b90509250929050565b60005b838110156115ba5781810151838201526020016115a2565b838111156115c9576000848401525b50505050565b600081518084526115e781602086016020860161159f565b601f01601f19169290920160200192915050565b6020815260ff82511660208201526020820151151560408201526040820151151560608201526000606083015160a0608084015261163c60c08401826115cf565b9050608084015160a08401528091505092915050565b602081526000610fe960208301846115cf565b60006020828403121561167757600080fd5b5035919050565b60006020828403121561169057600080fd5b81356001600160a01b0381168114610fe957600080fd5b6040815260006116ba60408301856115cf565b90506001600160401b03831660208301529392505050565b6000602082840312156116e457600080fd5b81518015158114610fe957600080fd5b634e487b7160e01b600052603260045260246000fd5b600181811c9082168061171e57607f821691505b6020821081141561092b57634e487b7160e01b600052602260045260246000fd5b600080835481600182811c91508083168061175b57607f831692505b602080841082141561177b57634e487b7160e01b86526022600452602486fd5b81801561178f57600181146117a0576117cd565b60ff198616895284890196506117cd565b60008a81526020902060005b868110156117c55781548b8201529085019083016117ac565b505084890196505b509498975050505050505050565b634e487b7160e01b600052601160045260246000fd5b6000600019821415611805576118056117db565b5060010190565b6000825161181e81846020870161159f565b9190910192915050565b60006020828403121561183a57600080fd5b5051919050565b60008219821115611854576118546117db565b500190565b63ffffffff60e01b8460e01b1681528260048201526000602482018351602080860160005b8381101561189a5781518552938201939082019060010161187e565b509298975050505050505050565b6000828210156118ba576118ba6117db565b50039056fea264697066735822122024f34d92440cbd038f69cc51a0354ed8a52dd9e64b3ee03e9d9cd33e10443f9e64736f6c634300080b0033",
  "linkReferences": {},
  "deployedLinkReferences": {}
}