{
  "_format": "hh-sol-artifact-1",
  "contractName": "ResultsDecoder",
  "sourceName": "contracts/ResultsDecoder.sol",
  "abi": [
    {
      "inputs": [],
      "name": "RESULT_PREFIX_LOCK",
      "outputs": [
        {
          "internalType": "bytes32",
          "name": "",
          "type": "bytes32"
        }
      ],
      "stateMutability": "view",
      "type": "function"
    },
    {
      "inputs": [],
      "name": "RESULT_PREFIX_METADATA",
      "outputs": [
        {
          "internalType": "bytes32",
          "name": "",
          "type": "bytes32"
        }
      ],
      "stateMutability": "view",
      "type": "function"
    }
  ],
  "bytecode": "0x60d6610039600b82828239805160001a60731461002c57634e487b7160e01b600052600060045260246000fd5b30600052607381538281f3fe7300000000000000000000000000000000000000003014608060405260043610603d5760003560e01c806306a31c69146042578063ae3e626e14607a575b600080fd5b60687f0a9eb877458579dbce83ea57d556be50d1c3160bb5f1719fb172bd3300ac862381565b60405190815260200160405180910390f35b60687fb315d4d6e8f235f5fabb0b1a0f118507f6c8542fae8e1a9566abe60762047c168156fea26469706673582212200250560f5da939f6f4e084964dc497c6a759c107e0a019a7461e2bf476ec6c6064736f6c634300080b0033",
  "linkReferences": {},
  "deployedLinkReferences": {}
}