{
  "_format": "hh-sol-artifact-1",
  "contractName": "BridgeToken",
  "sourceName": "contracts/BridgeToken.sol",
  "abi": [
    {
      "inputs": [
        {
          "internalType": "string",
          "name": "name_",
          "type": "string"
        },
        {
          "internalType": "string",
          "name": "symbol_",
          "type": "string"
        },
        {
          "internalType": "uint8",
          "name": "decimals_",
          "type": "uint8"
        }
      ],
      "stateMutability": "nonpayable",
      "type": "constructor"
    },
    {
      "anonymous": false,
      "inputs": [
        {
          "indexed": true,
          "internalType": "address",
          "name": "owner",
          "type": "address"
        },
        {
          "indexed": true,
          "internalType": "address",
          "name": "spender",
          "type": "address"
        },
        {
          "indexed": false,
          "internalType": "uint256",
          "name": "value",
          "type": "uint256"
        }
      ],
      "name": "Approval",
      "type": "event"
    },
    {
      "anonymous": false,
      "inputs": [
        {
          "indexed": true,
          "internalType": "address",
          "name": "from",
          "type": "address"
        },
        {
          "indexed": true,
          "internalType": "address",
          "name": "to",
          "type": "address"
        },
        {
          "indexed": false,
          "internalType": "uint256",
          "name": "value",
          "type": "uint256"
        }
      ],
      "name": "Transfer",
      "type": "event"
    },
    {
      "inputs": [
        {
          "internalType": "address",
          "name": "owner",
          "type": "address"
        },
        {
          "internalType": "address",
          "name": "spender",
          "type": "address"
        }
      ],
      "name": "allowance",
      "outputs": [
        {
          "internalType": "uint256",
          "name": "",
          "type": "uint256"
        }
      ],
      "stateMutability": "view",
      "type": "function"
    },
    {
      "inputs": [
        {
          "internalType": "address",
          "name": "spender",
          "type": "address"
        },
        {
          "internalType": "uint256",
          "name": "amount",
          "type": "uint256"
        }
      ],
      "name": "approve",
      "outputs": [
        {
          "internalType": "bool",
          "name": "",
          "type": "bool"
        }
      ],
      "stateMutability": "nonpayable",
      "type": "function"
    },
    {
      "inputs": [
        {
          "internalType": "address",
          "name": "account",
          "type": "address"
        }
      ],
      "name": "balanceOf",
      "outputs": [
        {
          "internalType": "uint256",
          "name": "",
          "type": "uint256"
        }
      ],
      "stateMutability": "view",
      "type": "function"
    },
    {
      "inputs": [
        {
          "internalType": "address",
          "name": "act",
          "type": "address"
        },
        {
          "internalType": "uint256",
          "name": "amount",
          "type": "uint256"
        }
      ],
      "name": "burn",
      "outputs": [],
      "stateMutability": "nonpayable",
      "type": "function"
    },
    {
      "inputs": [],
      "name": "decimals",
      "outputs": [
        {
          "internalType": "uint8",
          "name": "",
          "type": "uint8"
        }
      ],
      "stateMutability": "view",
      "type": "function"
    },
    {
      "inputs": [
        {
          "internalType": "address",
          "name": "spender",
          "type": "address"
        },
        {
          "internalType": "uint256",
          "name": "subtractedValue",
          "type": "uint256"
        }
      ],
      "name": "decreaseAllowance",
      "outputs": [
        {
          "internalType": "bool",
          "name": "",
          "type": "bool"
        }
      ],
      "stateMutability": "nonpayable",
      "type": "function"
    },
    {
      "inputs": [
        {
          "internalType": "address",
          "name": "spender",
          "type": "address"
        },
        {
          "internalType": "uint256",
          "name": "addedValue",
          "type": "uint256"
        }
      ],
      "name": "increaseAllowance",
      "outputs": [
        {
          "internalType": "bool",
          "name": "",
          "type": "bool"
        }
      ],
      "stateMutability": "nonpayable",
      "type": "function"
    },
    {
      "inputs": [
        {
          "internalType": "address",
          "name": "beneficiary",
          "type": "address"
        },
        {
          "internalType": "uint256",
          "name": "amount",
          "type": "uint256"
        }
      ],
      "name": "mint",
      "outputs": [],
      "stateMutability": "nonpayable",
      "type": "function"
    },
    {
      "inputs": [],
      "name": "name",
      "outputs": [
        {
          "internalType": "string",
          "name": "",
          "type": "string"
        }
      ],
      "stateMutability": "view",
      "type": "function"
    },
    {
      "inputs": [
        {
          "internalType": "string",
          "name": "name_",
          "type": "string"
        },
        {
          "internalType": "string",
          "name": "symbol_",
          "type": "string"
        },
        {
          "internalType": "uint8",
          "name": "decimals_",
          "type": "uint8"
        },
        {
          "internalType": "uint64",
          "name": "blockHeight_",
          "type": "uint64"
        }
      ],
      "name": "set_metadata",
      "outputs": [],
      "stateMutability": "nonpayable",
      "type": "function"
    },
    {
      "inputs": [],
      "name": "symbol",
      "outputs": [
        {
          "internalType": "string",
          "name": "",
          "type": "string"
        }
      ],
      "stateMutability": "view",
      "type": "function"
    },
    {
      "inputs": [],
      "name": "totalSupply",
      "outputs": [
        {
          "internalType": "uint256",
          "name": "",
          "type": "uint256"
        }
      ],
      "stateMutability": "view",
      "type": "function"
    },
    {
      "inputs": [
        {
          "internalType": "address",
          "name": "to",
          "type": "address"
        },
        {
          "internalType": "uint256",
          "name": "amount",
          "type": "uint256"
        }
      ],
      "name": "transfer",
      "outputs": [
        {
          "internalType": "bool",
          "name": "",
          "type": "bool"
        }
      ],
      "stateMutability": "nonpayable",
      "type": "function"
    },
    {
      "inputs": [
        {
          "internalType": "address",
          "name": "from",
          "type": "address"
        },
        {
          "internalType": "address",
          "name": "to",
          "type": "address"
        },
        {
          "internalType": "uint256",
          "name": "amount",
          "type": "uint256"
        }
      ],
      "name": "transferFrom",
      "outputs": [
        {
          "internalType": "bool",
          "name": "",
          "type": "bool"
        }
      ],
      "stateMutability": "nonpayable",
      "type": "function"
    }
  ],
  "bytecode": "0x60806040523480156200001157600080fd5b50604051620011ef380380620011ef833981016040819052620000349162000234565b8251839083906200004d906003906020850190620000c1565b50805162000063906004906020840190620000c1565b5050600580546001600160a01b031916331790555082516200008d906006906020860190620000c1565b508151620000a3906007906020850190620000c1565b506008805460ff191660ff9290921691909117905550620002f69050565b828054620000cf90620002b9565b90600052602060002090601f016020900481019282620000f357600085556200013e565b82601f106200010e57805160ff19168380011785556200013e565b828001600101855582156200013e579182015b828111156200013e57825182559160200191906001019062000121565b506200014c92915062000150565b5090565b5b808211156200014c576000815560010162000151565b634e487b7160e01b600052604160045260246000fd5b600082601f8301126200018f57600080fd5b81516001600160401b0380821115620001ac57620001ac62000167565b604051601f8301601f19908116603f01168101908282118183101715620001d757620001d762000167565b81604052838152602092508683858801011115620001f457600080fd5b600091505b83821015620002185785820183015181830184015290820190620001f9565b838211156200022a5760008385830101525b9695505050505050565b6000806000606084860312156200024a57600080fd5b83516001600160401b03808211156200026257600080fd5b62000270878388016200017d565b945060208601519150808211156200028757600080fd5b5062000296868287016200017d565b925050604084015160ff81168114620002ae57600080fd5b809150509250925092565b600181811c90821680620002ce57607f821691505b60208210811415620002f057634e487b7160e01b600052602260045260246000fd5b50919050565b610ee980620003066000396000f3fe608060405234801561001057600080fd5b50600436106100ea5760003560e01c806370a082311161008c578063a457c2d711610066578063a457c2d7146101d6578063a9059cbb146101e9578063dd62ed3e146101fc578063f547717e1461023557600080fd5b806370a082311461019257806395d89b41146101bb5780639dc29fac146101c357600080fd5b806323b872dd116100c857806323b872dd14610142578063313ce56714610155578063395093511461016a57806340c10f191461017d57600080fd5b806306fdde03146100ef578063095ea7b31461010d57806318160ddd14610130575b600080fd5b6100f7610248565b6040516101049190610ba1565b60405180910390f35b61012061011b366004610c12565b6102da565b6040519015158152602001610104565b6002545b604051908152602001610104565b610120610150366004610c3c565b6102f2565b60085460405160ff9091168152602001610104565b610120610178366004610c12565b610316565b61019061018b366004610c12565b610355565b005b6101346101a0366004610c78565b6001600160a01b031660009081526020819052604090205490565b6100f7610396565b6101906101d1366004610c12565b6103a5565b6101206101e4366004610c12565b6103d9565b6101206101f7366004610c12565b61046b565b61013461020a366004610c9a565b6001600160a01b03918216600090815260016020908152604080832093909416825291909152205490565b610190610243366004610d70565b610479565b60606006805461025790610e07565b80601f016020809104026020016040519081016040528092919081815260200182805461028390610e07565b80156102d05780601f106102a5576101008083540402835291602001916102d0565b820191906000526020600020905b8154815290600101906020018083116102b357829003601f168201915b5050505050905090565b6000336102e881858561055e565b5060019392505050565b600033610300858285610683565b61030b858585610715565b506001949350505050565b3360008181526001602090815260408083206001600160a01b03871684529091528120549091906102e89082908690610350908790610e58565b61055e565b6005546001600160a01b031633146103885760405162461bcd60e51b815260040161037f90610e70565b60405180910390fd5b61039282826108e3565b5050565b60606007805461025790610e07565b6005546001600160a01b031633146103cf5760405162461bcd60e51b815260040161037f90610e70565b61039282826109c2565b3360008181526001602090815260408083206001600160a01b03871684529091528120549091908381101561045e5760405162461bcd60e51b815260206004820152602560248201527f45524332303a2064656372656173656420616c6c6f77616e63652062656c6f77604482015264207a65726f60d81b606482015260840161037f565b61030b828686840361055e565b6000336102e8818585610715565b6005546001600160a01b031633146104a35760405162461bcd60e51b815260040161037f90610e70565b60085467ffffffffffffffff610100909104811690821610156104fb5760405162461bcd60e51b815260206004820152601060248201526f4552525f4f4c445f4d4554414441544160801b604482015260640161037f565b6008805468ffffffffffffffff00191661010067ffffffffffffffff8416021790558351610530906006906020870190610b08565b508251610544906007906020860190610b08565b50506008805460ff191660ff929092169190911790555050565b6001600160a01b0383166105c05760405162461bcd60e51b8152602060048201526024808201527f45524332303a20617070726f76652066726f6d20746865207a65726f206164646044820152637265737360e01b606482015260840161037f565b6001600160a01b0382166106215760405162461bcd60e51b815260206004820152602260248201527f45524332303a20617070726f766520746f20746865207a65726f206164647265604482015261737360f01b606482015260840161037f565b6001600160a01b0383811660008181526001602090815260408083209487168084529482529182902085905590518481527f8c5be1e5ebec7d5bd14f71427d1e84f3dd0314c0f7b2291e5b200ac8c7c3b92591015b60405180910390a3505050565b6001600160a01b03838116600090815260016020908152604080832093861683529290522054600019811461070f57818110156107025760405162461bcd60e51b815260206004820152601d60248201527f45524332303a20696e73756666696369656e7420616c6c6f77616e6365000000604482015260640161037f565b61070f848484840361055e565b50505050565b6001600160a01b0383166107795760405162461bcd60e51b815260206004820152602560248201527f45524332303a207472616e736665722066726f6d20746865207a65726f206164604482015264647265737360d81b606482015260840161037f565b6001600160a01b0382166107db5760405162461bcd60e51b815260206004820152602360248201527f45524332303a207472616e7366657220746f20746865207a65726f206164647260448201526265737360e81b606482015260840161037f565b6001600160a01b038316600090815260208190526040902054818110156108535760405162461bcd60e51b815260206004820152602660248201527f45524332303a207472616e7366657220616d6f756e7420657863656564732062604482015265616c616e636560d01b606482015260840161037f565b6001600160a01b0380851660009081526020819052604080822085850390559185168152908120805484929061088a908490610e58565b92505081905550826001600160a01b0316846001600160a01b03167fddf252ad1be2c89b69c2b068fc378daa952ba7f163c4a11628f55a4df523b3ef846040516108d691815260200190565b60405180910390a361070f565b6001600160a01b0382166109395760405162461bcd60e51b815260206004820152601f60248201527f45524332303a206d696e7420746f20746865207a65726f206164647265737300604482015260640161037f565b806002600082825461094b9190610e58565b90915550506001600160a01b03821660009081526020819052604081208054839290610978908490610e58565b90915550506040518181526001600160a01b038316906000907fddf252ad1be2c89b69c2b068fc378daa952ba7f163c4a11628f55a4df523b3ef9060200160405180910390a35050565b6001600160a01b038216610a225760405162461bcd60e51b815260206004820152602160248201527f45524332303a206275726e2066726f6d20746865207a65726f206164647265736044820152607360f81b606482015260840161037f565b6001600160a01b03821660009081526020819052604090205481811015610a965760405162461bcd60e51b815260206004820152602260248201527f45524332303a206275726e20616d6f756e7420657863656564732062616c616e604482015261636560f01b606482015260840161037f565b6001600160a01b0383166000908152602081905260408120838303905560028054849290610ac5908490610e9c565b90915550506040518281526000906001600160a01b038516907fddf252ad1be2c89b69c2b068fc378daa952ba7f163c4a11628f55a4df523b3ef90602001610676565b828054610b1490610e07565b90600052602060002090601f016020900481019282610b365760008555610b7c565b82601f10610b4f57805160ff1916838001178555610b7c565b82800160010185558215610b7c579182015b82811115610b7c578251825591602001919060010190610b61565b50610b88929150610b8c565b5090565b5b80821115610b885760008155600101610b8d565b600060208083528351808285015260005b81811015610bce57858101830151858201604001528201610bb2565b81811115610be0576000604083870101525b50601f01601f1916929092016040019392505050565b80356001600160a01b0381168114610c0d57600080fd5b919050565b60008060408385031215610c2557600080fd5b610c2e83610bf6565b946020939093013593505050565b600080600060608486031215610c5157600080fd5b610c5a84610bf6565b9250610c6860208501610bf6565b9150604084013590509250925092565b600060208284031215610c8a57600080fd5b610c9382610bf6565b9392505050565b60008060408385031215610cad57600080fd5b610cb683610bf6565b9150610cc460208401610bf6565b90509250929050565b634e487b7160e01b600052604160045260246000fd5b600082601f830112610cf457600080fd5b813567ffffffffffffffff80821115610d0f57610d0f610ccd565b604051601f8301601f19908116603f01168101908282118183101715610d3757610d37610ccd565b81604052838152866020858801011115610d5057600080fd5b836020870160208301376000602085830101528094505050505092915050565b60008060008060808587031215610d8657600080fd5b843567ffffffffffffffff80821115610d9e57600080fd5b610daa88838901610ce3565b95506020870135915080821115610dc057600080fd5b610dcc88838901610ce3565b94506040870135915060ff82168214610de457600080fd5b9092506060860135908082168214610dfb57600080fd5b50939692955090935050565b600181811c90821680610e1b57607f821691505b60208210811415610e3c57634e487b7160e01b600052602260045260246000fd5b50919050565b634e487b7160e01b600052601160045260246000fd5b60008219821115610e6b57610e6b610e42565b500190565b60208082526012908201527122a9292fa727aa2fa1a7a72a2927a62622a960711b604082015260600190565b600082821015610eae57610eae610e42565b50039056fea26469706673582212208bd9282807a9bf26df3b933f9f16184b920500af9957c67b0300e5ef80d7945e64736f6c634300080b0033",
  "linkReferences": {},
  "deployedLinkReferences": {}
}