{
  "_format": "hh-sol-artifact-1",
  "contractName": "Locker",
  "sourceName": "contracts/Locker.sol",
  "abi": [
    {
      "inputs": [],
      "name": "nearTokenFactory_",
      "outputs": [
        {
          "internalType": "bytes",
          "name": "",
          "type": "bytes"
        }
      ],
      "stateMutability": "view",
      "type": "function"
    },
    {
      "inputs": [],
      "name": "prover_",
      "outputs": [
        {
          "internalType": "contract INearProver",
          "name": "",
          "type": "address"
        }
      ],
      "stateMutability": "view",
      "type": "function"
    },
    {
      "inputs": [
        {
          "internalType": "bytes32",
          "name": "",
          "type": "bytes32"
        }
      ],
      "name": "usedEvents_",
      "outputs": [
        {
          "internalType": "bool",
          "name": "",
          "type": "bool"
        }
      ],
      "stateMutability": "view",
      "type": "function"
    }
  ],
  "bytecode": "0x608060405234801561001057600080fd5b5061022b806100206000396000f3fe608060405234801561001057600080fd5b50600436106100415760003560e01c8063bb00b69814610046578063bccc9fcf14610076578063fc63e129146100a9575b600080fd5b600054610059906001600160a01b031681565b6040516001600160a01b0390911681526020015b60405180910390f35b61009961008436600461014c565b60026020526000908152604090205460ff1681565b604051901515815260200161006d565b6100b16100be565b60405161006d9190610165565b600180546100cb906101ba565b80601f01602080910402602001604051908101604052809291908181526020018280546100f7906101ba565b80156101445780601f1061011957610100808354040283529160200191610144565b820191906000526020600020905b81548152906001019060200180831161012757829003601f168201915b505050505081565b60006020828403121561015e57600080fd5b5035919050565b600060208083528351808285015260005b8181101561019257858101830151858201604001528201610176565b818111156101a4576000604083870101525b50601f01601f1916929092016040019392505050565b600181811c908216806101ce57607f821691505b602082108114156101ef57634e487b7160e01b600052602260045260246000fd5b5091905056fea264697066735822122016d6fba327da18e30e58a88a98b141cb77e602ac2a16049029da041493766b1064736f6c634300080b0033",
  "linkReferences": {},
  "deployedLinkReferences": {}
}