{
  "_format": "hh-sol-artifact-1",
  "contractName": "ERC20Locker",
  "sourceName": "contracts/ERC20Locker.sol",
  "abi": [
    {
      "anonymous": false,
      "inputs": [
        {
          "indexed": true,
          "internalType": "address",
          "name": "token",
          "type": "address"
        },
        {
          "indexed": true,
          "internalType": "address",
          "name": "sender",
          "type": "address"
        },
        {
          "indexed": false,
          "internalType": "uint256",
          "name": "amount",
          "type": "uint256"
        },
        {
          "indexed": false,
          "internalType": "string",
          "name": "accountId",
          "type": "string"
        }
      ],
      "name": "Locked",
      "type": "event"
    },
    {
      "anonymous": false,
      "inputs": [
        {
          "indexed": false,
          "internalType": "uint128",
          "name": "amount",
          "type": "uint128"
        },
        {
          "indexed": false,
          "internalType": "address",
          "name": "recipient",
          "type": "address"
        }
      ],
      "name": "Unlocked",
      "type": "event"
    },
    {
      "inputs": [
        {
          "internalType": "bytes",
          "name": "proofData",
          "type": "bytes"
        },
        {
          "internalType": "uint64",
          "name": "proofBlockHeight",
          "type": "uint64"
        }
      ],
      "name": "burnResult",
      "outputs": [
        {
          "internalType": "address",
          "name": "",
          "type": "address"
        }
      ],
      "stateMutability": "nonpayable",
      "type": "function"
    },
    {
      "inputs": [
        {
          "internalType": "address",
          "name": "ethToken",
          "type": "address"
        },
        {
          "internalType": "uint256",
          "name": "amount",
          "type": "uint256"
        },
        {
          "internalType": "string",
          "name": "accountId",
          "type": "string"
        }
      ],
      "name": "lockToken",
      "outputs": [],
      "stateMutability": "nonpayable",
      "type": "function"
    },
    {
      "inputs": [],
      "name": "nearTokenFactory_",
      "outputs": [
        {
          "internalType": "bytes",
          "name": "",
          "type": "bytes"
        }
      ],
      "stateMutability": "view",
      "type": "function"
    },
    {
      "inputs": [],
      "name": "prover_",
      "outputs": [
        {
          "internalType": "contract INearProver",
          "name": "",
          "type": "address"
        }
      ],
      "stateMutability": "view",
      "type": "function"
    },
    {
      "inputs": [
        {
          "internalType": "bytes",
          "name": "proofData",
          "type": "bytes"
        },
        {
          "internalType": "uint64",
          "name": "proofBlockHeight",
          "type": "uint64"
        }
      ],
      "name": "unlockToken",
      "outputs": [],
      "stateMutability": "nonpayable",
      "type": "function"
    },
    {
      "inputs": [
        {
          "internalType": "bytes32",
          "name": "",
          "type": "bytes32"
        }
      ],
      "name": "usedEvents_",
      "outputs": [
        {
          "internalType": "bool",
          "name": "",
          "type": "bool"
        }
      ],
      "stateMutability": "view",
      "type": "function"
    }
  ],
  "bytecode": "0x608060405234801561001057600080fd5b50611b75806100206000396000f3fe608060405234801561001057600080fd5b50600436106100625760003560e01c80630889bfe7146100675780634a00c6291461007c5780635ba3a5a11461008f578063bb00b698146100bf578063bccc9fcf146100d2578063fc63e12914610105575b600080fd5b61007a61007536600461179f565b61011a565b005b61007a61008a366004611818565b610181565b6100a261009d366004611818565b610220565b6040516001600160a01b0390911681526020015b60405180910390f35b6000546100a2906001600160a01b031681565b6100f56100e0366004611889565b60026020526000908152604090205460ff1681565b60405190151581526020016100b6565b61010d61024d565b6040516100b691906118fa565b61012f6001600160a01b0384163330856102db565b336001600160a01b0316836001600160a01b03167fdd85dc56b5b4da387bf69c28ec19b1d66e793e0d51b567882fa31dc50bbd32c5848460405161017492919061190d565b60405180910390a3505050565b600061018d838361034c565b9050600061019e82606001516106c9565b6040810151815160208301519293506101ca926001600160a01b031691906001600160801b0316610738565b805160408083015181516001600160801b0390931683526001600160a01b031660208301527f5fd575e9a8dd4ba1e9f434728800fe78c3c5ffccfa6a852bc7415294ecc0c2d5910160405180910390a150505050565b60008061022d848461034c565b9050600061023e82606001516106c9565b60200151925050505b92915050565b6001805461025a90611926565b80601f016020809104026020016040519081016040528092919081815260200182805461028690611926565b80156102d35780601f106102a8576101008083540402835291602001916102d3565b820191906000526020600020905b8154815290600101906020018083116102b657829003601f168201915b505050505081565b6040516001600160a01b03808516602483015283166044820152606481018290526103469085906323b872dd60e01b906084015b60408051601f198184030181529190526020810180516001600160e01b03166001600160e01b03199093169290921790915261076d565b50505050565b6040805160a081018252600080825260208201819052818301819052606080830152608082018190525491516392d68dfd60e01b815290916001600160a01b0316906392d68dfd906103a4908690869060040161195b565b602060405180830381865afa1580156103c1573d6000803e3d6000fd5b505050506040513d601f19601f820116820180604052508101906103e59190611987565b61042e5760405162461bcd60e51b8152602060048201526015602482015274141c9bdbd9881cda1bdd5b19081899481d985b1a59605a1b60448201526064015b60405180910390fd5b60006104398461083f565b9050600061044682610870565b9050610451826108b2565b60008160000151604001516020015160200151600081518110610476576104766119a9565b6020908102919091018101516000818152600290925260409091205490915060ff16156104e55760405162461bcd60e51b815260206004820152601f60248201527f546865206275726e206576656e742063616e6e6f7420626520726575736564006044820152606401610425565b60008181526002602052604090819020805460ff19166001908117909155905161050f91906119bf565b6040518091039020826000015160400151602001516080015180519060200120146105bd5760405162461bcd60e51b815260206004820152605260248201527f43616e206f6e6c7920756e6c6f636b20746f6b656e732066726f6d207468652060448201527f6c696e6b6564206d696e7461626c652066756e6769626c6520746f6b656e206f60648201527137102732b0b910313637b1b5b1b430b4b71760711b608482015260a401610425565b8160000151604001516020015160a0015193508360400151156106485760405162461bcd60e51b815260206004820152603d60248201527f43616e6e6f7420757365206661696c656420657865637574696f6e206f75746360448201527f6f6d6520666f7220756e6c6f636b696e672074686520746f6b656e732e0000006064820152608401610425565b8360200151156106c05760405162461bcd60e51b815260206004820152603e60248201527f43616e6e6f742075736520756e6b6e6f776e20657865637574696f6e206f757460448201527f636f6d6520666f7220756e6c6f636b696e672074686520746f6b656e732e00006064820152608401610425565b50505092915050565b60408051606081018252600080825260208201819052918101829052906106ef8361083f565b90506106fa81610909565b6001600160801b031682526000610710826109b6565b606081901c602085015290506000610727836109b6565b60601c604085015250919392505050565b6040516001600160a01b03831660248201526044810182905261076890849063a9059cbb60e01b9060640161030f565b505050565b60006107c2826040518060400160405280602081526020017f5361666545524332303a206c6f772d6c6576656c2063616c6c206661696c6564815250856001600160a01b03166109c39092919063ffffffff16565b80519091501561076857808060200190518101906107e09190611987565b6107685760405162461bcd60e51b815260206004820152602a60248201527f5361666545524332303a204552433230206f7065726174696f6e20646964206e6044820152691bdd081cdd58d8d9595960b21b6064820152608401610425565b604080518082019091526000808252602082015260208201815281610862815190565b825101602083015250919050565b610878611581565b610881826109dc565b815261088c82610a10565b602082015261089a82610adc565b60408201526108a882610a10565b6060820152919050565b60208101518151146109065760405162461bcd60e51b815260206004820152601960248201527f5061727365206572726f723a20454f49206578706563746564000000000000006044820152606401610425565b50565b6000610247610919836010610bf8565b60801c6dff000000ff000000ff000000ff00600882811b9182166cff000000ff000000ff000000ff9390911c92831617601090811b6fff000000ff000000ff000000ff0000009092166eff000000ff000000ff000000ff00009093169290921790911c17602081811b6fffffffff00000000ffffffff00000000166bffffffff00000000ffffffff9290911c9190911617604081811b91901c1790565b6000610247826014610bf8565b60606109d28484600085610c11565b90505b9392505050565b6109e46115dc565b6109ed82610a10565b81526109f882610d42565b6020820152610a0682610d4f565b6040820152919050565b604080516020810190915260608152610a2882610e2a565b63ffffffff1667ffffffffffffffff811115610a4657610a46611713565b604051908082528060200260200182016040528015610a8b57816020015b6040805180820190915260008082526020820152815260200190600190039081610a645790505b50815260005b815151811015610ad657610aa483610e60565b8251805183908110610ab857610ab86119a9565b60200260200101819052508080610ace90611a71565b915050610a91565b50919050565b610ae4611602565b610aed82610d42565b8152610af882610d42565b6020820152610b0682610f0c565b60408083018290526101009091015160208084015183519182019290925291820152600290819060600160408051601f1981840301815290829052610b4a91611a8c565b602060405180830381855afa158015610b67573d6000803e3d6000fd5b5050506040513d601f19601f82011682018060405250810190610b8a9190611aa8565b825160408051602081019390935282015260600160408051601f1981840301815290829052610bb891611a8c565b602060405180830381855afa158015610bd5573d6000803e3d6000fd5b5050506040513d601f19601f820116820180604052508101906108a89190611aa8565b6000610c048383610fab565b5081518051910190915290565b606082471015610c725760405162461bcd60e51b815260206004820152602660248201527f416464726573733a20696e73756666696369656e742062616c616e636520666f6044820152651c8818d85b1b60d21b6064820152608401610425565b6001600160a01b0385163b610cc95760405162461bcd60e51b815260206004820152601d60248201527f416464726573733a2063616c6c20746f206e6f6e2d636f6e74726163740000006044820152606401610425565b600080866001600160a01b03168587604051610ce59190611a8c565b60006040518083038185875af1925050503d8060008114610d22576040519150601f19603f3d011682016040523d82523d6000602084013e610d27565b606091505b5091509150610d37828286611006565b979650505050505050565b6000610247826020610bf8565b610d5761162e565b610d6082610d42565b8152610d6b8261103f565b6020820181905260c0015151600090610d85906001611ac1565b90506002600882811c62ff00ff1663ff00ff009184901b9190911617601081811c91901b17835160208086015160c00151604051610dc594939201611ad9565b60408051601f1981840301815290829052610ddf91611a8c565b602060405180830381855afa158015610dfc573d6000803e3d6000fd5b5050506040513d601f19601f82011682018060405250810190610e1f9190611aa8565b604083015250919050565b6000610247610e3a836004610bf8565b60e881901c62ff00ff1663ff00ff0060d89290921c9190911617601081811c91901b1790565b6040805180820190915260008082526020820152610e7d82610d42565b8152610e888261132b565b60ff1660208201819052600211610f075760405162461bcd60e51b815260206004820152603760248201527f50726f6f664465636f6465723a204d65726b6c65506174684974656d2064697260448201527f656374696f6e2073686f756c642062652030206f7220310000000000000000006064820152608401610425565b919050565b610f14611649565b610f1f8260d0611341565b610100820152610f2e82611359565b67ffffffffffffffff168152610f4382610d42565b6020820152610f5182610d42565b6040820152610f5f82610d42565b6060820152610f6d82610d42565b6080820152610f7b82611359565b67ffffffffffffffff1660a0820152610f9382610d42565b60c0820152610fa182610d42565b60e0820152919050565b60208201518251820111156110025760405162461bcd60e51b815260206004820152601b60248201527f5061727365206572726f723a20756e657870656374656420454f4900000000006044820152606401610425565b5050565b606083156110155750816109d5565b8251156110255782518084602001fd5b8160405162461bcd60e51b815260040161042591906118fa565b611047611695565b61105082610e2a565b63ffffffff1667ffffffffffffffff81111561106e5761106e611713565b6040519080825280602002602001820160405280156110a157816020015b606081526020019060019003908161108c5790505b50815260005b8151518110156110ec576110ba836113ce565b82518051839081106110ce576110ce6119a9565b602002602001018190525080806110e490611a71565b9150506110a7565b5081516110f883610e2a565b63ffffffff1667ffffffffffffffff81111561111657611116611713565b60405190808252806020026020018201604052801561113f578160200160208202803683370190505b50602083015260005b8260200151518110156111915761115e84610d42565b83602001518281518110611174576111746119a9565b60209081029190910101528061118981611a71565b915050611148565b5061119b83611359565b67ffffffffffffffff1660408301526111b383610909565b6001600160801b031660608301526111ca836113ce565b60808301526111d88361140e565b60a08301528151516111eb906001611ac1565b67ffffffffffffffff81111561120357611203611713565b60405190808252806020026020018201604052801561122c578160200160208202803683370190505b5060c0830152825161124a908290611245908290611b28565b611515565b8260c00151600081518110611261576112616119a9565b60200260200101818152505060005b82515181101561132457600283600001518281518110611292576112926119a9565b60200260200101516040516112a79190611a8c565b602060405180830381855afa1580156112c4573d6000803e3d6000fd5b5050506040513d601f19601f820116820180604052508101906112e79190611aa8565b60c08401516112f7836001611ac1565b81518110611307576113076119a9565b60209081029190910101528061131c81611a71565b915050611270565b5050919050565b6000611338826001610bf8565b60f81c92915050565b600061134d8383610fab565b82516109d59083611515565b6000610247611369836008610bf8565b66ff000000ff000060c882901c90811667ff000000ff00000060b89390931c92831617601090811c64ff000000ff9290921665ff000000ff00939093169290921790911b17602081811c63ffffffff1691901b6bffffffffffffffff00000000161790565b606060006113db83610e2a565b63ffffffff1690506113f68184610fab90919063ffffffff16565b82516114029082611537565b83519091019092525090565b6040805160a08101825260008082526020820181905291810182905260608082015260808101919091526114418261132b565b60ff168082526114575760016020820152919050565b806000015160ff16600114156114735760016040820152919050565b806000015160ff166002141561148c576108a8826113ce565b806000015160ff16600314156114af576114a582610d42565b6080820152919050565b60405162461bcd60e51b815260206004820152603560248201527f4e6561724465636f6465723a206465636f6465457865637574696f6e53746174604482015274757320696e646578206f7574206f662072616e676560581b6064820152608401610425565b600060206000838560025afa5b8061152c57611522565b505060005192915050565b60608115610247576040519050601f19603f830116810180604052828252602082015b845181526020018181141561156e57611579565b60208501945061155a565b505092915050565b60405180608001604052806115946115dc565b81526020016115af6040518060200160405280606081525090565b81526020016115bc611602565b81526020016115d76040518060200160405280606081525090565b905290565b6040805160808101825260608082019081528152600060208201529081016115d761162e565b6040805160808101825260008082526020820152908101611621611649565b8152600060209091015290565b60408051606081019091526000815260208101611621611695565b6040805161012081018252600080825260208201819052918101829052606081018290526080810182905260a0810182905260c0810182905260e0810182905261010081019190915290565b6040518060e001604052806060815260200160608152602001600067ffffffffffffffff16815260200160006001600160801b03168152602001606081526020016117066040805160a081018252600080825260208201819052918101829052606080820152608081019190915290565b8152602001606081525090565b634e487b7160e01b600052604160045260246000fd5b600067ffffffffffffffff8084111561174457611744611713565b604051601f8501601f19908116603f0116810190828211818310171561176c5761176c611713565b8160405280935085815286868601111561178557600080fd5b858560208301376000602087830101525050509392505050565b6000806000606084860312156117b457600080fd5b83356001600160a01b03811681146117cb57600080fd5b925060208401359150604084013567ffffffffffffffff8111156117ee57600080fd5b8401601f810186136117ff57600080fd5b61180e86823560208401611729565b9150509250925092565b6000806040838503121561182b57600080fd5b823567ffffffffffffffff8082111561184357600080fd5b818501915085601f83011261185757600080fd5b61186686833560208501611729565b935060208501359150808216821461187d57600080fd5b50809150509250929050565b60006020828403121561189b57600080fd5b5035919050565b60005b838110156118bd5781810151838201526020016118a5565b838111156103465750506000910152565b600081518084526118e68160208601602086016118a2565b601f01601f19169290920160200192915050565b6020815260006109d560208301846118ce565b8281526040602082015260006109d260408301846118ce565b600181811c9082168061193a57607f821691505b60208210811415610ad657634e487b7160e01b600052602260045260246000fd5b60408152600061196e60408301856118ce565b905067ffffffffffffffff831660208301529392505050565b60006020828403121561199957600080fd5b815180151581146109d557600080fd5b634e487b7160e01b600052603260045260246000fd5b600080835481600182811c9150808316806119db57607f831692505b60208084108214156119fb57634e487b7160e01b86526022600452602486fd5b818015611a0f5760018114611a2057611a4d565b60ff19861689528489019650611a4d565b60008a81526020902060005b86811015611a455781548b820152908501908301611a2c565b505084890196505b509498975050505050505050565b634e487b7160e01b600052601160045260246000fd5b6000600019821415611a8557611a85611a5b565b5060010190565b60008251611a9e8184602087016118a2565b9190910192915050565b600060208284031215611aba57600080fd5b5051919050565b60008219821115611ad457611ad4611a5b565b500190565b63ffffffff60e01b8460e01b1681528260048201526000602482018351602080860160005b83811015611b1a57815185529382019390820190600101611afe565b509298975050505050505050565b600082821015611b3a57611b3a611a5b565b50039056fea2646970667358221220b96e291f0e905e1f7c386b2418200d36f9ce84ed250decd7ad18b743df0623d764736f6c634300080b0033",
  "linkReferences": {},
  "deployedLinkReferences": {}
}